:020000040800F2
:100000001808002089010008E1010008E10100084A
:10001000E1010008E1010008E10100080000000022
:10002000000000000000000000000000E1010008E6
:10003000E101000800000000E10100087907000864
:10004000E1010008E1010008E1010008E101000808
:10005000E1010008E1010008E1010008E1010008F8
:10006000E1010008E1010008E1010008E1010008E8
:10007000E1010008E1010008E1010008E1010008D8
:10008000E1010008E1010008E1010008E1010008C8
:10009000E1010008E1010008E1010008E1010008B8
:1000A000E1010008E1010008E1010008E1010008A8
:1000B000E1010008E1010008E1010008E101000898
:1000C000E1010008E1010008E1010008E101000888
:1000D000E1010008E1010008E1010008E101000878
:1000E000E1010008E1010008E1010008E101000868
:1000F000E1010008E1010008E1010008E101000858
:10010000E1010008E1010008E1010008E101000847
:10011000E1010008E1010008E1010008E101000837
:10012000E1010008E1010008E1010008E101000827
:10013000E1010008E1010008E1010008E101000817
:10014000E1010008E1010008E1010008E101000807
:10015000E1010008E1010008E1010008E1010008F7
:10016000E1010008E1010008E1010008E1010008E7
:10017000E1010008E1010008E1010008E1010008D7
:10018000E1010008E101000880B582B000AF0F4B2B
:100190007B600F4B3B6007E03B681A1D3A607A6852
:1001A000111D796012681A603B680A4A9342F3D3C2
:1001B00009480A494FF000028842B8BF40F8042BB2
:1001C000FADB00F0E9F90837BD4680BD34100008BD
:1001D000000000201400002014000020180000205F
:1001E00080B400AFFEE700BF80B584B000AF04204C
:1001F000012100F027FA0323BB800023FB804FF48A
:100200007A73BB600023BB810023BB733B1D054891
:10021000194600F0EFFD0348012100F055FE1037AC
:10022000BD4680BD0008004080B586B000AF702399
:10023000BB800123FB8002233B8244F29E13FB60C0
:100240003B1D0A48194600F05FFE0848082100F0EF
:10025000D5FE3B1D0548194600F056FE034808210F
:1002600000F0CCFE1837BD4680BD00BF000800403E
:1002700080B582B000AF1820012100F0A7F901205D
:10028000012100F0C1F93F4800210C2200F084FC5C
:100290003C4801210C2200F07FFC3A4804210C224A
:1002A00000F07AFC374805210C2200F075FC354837
:1002B00007210C2200F070FC324808210C2200F0CB
:1002C0006BFC304809210C2200F066FC2D480A2105
:1002D0000C2200F061FC2B480E210C2200F05CFC8B
:1002E00028480F210C2200F057FC4CF2B3733B60FE
:1002F00002233B7102237B710023BB710023FB713E
:100300003B462048194600F09DFB1F4803210C2264
:1003100000F042FC1C4807210C2200F03DFC1A486A
:1003200008210C2200F038FC174809210C2200F0AB
:1003300033FC15480A210C2200F02EFC12480B2138
:100340000C2200F029FC10480C210C2200F024FCA7
:100350000D480D210C2200F01FFC0B480E210C2231
:1003600000F01AFC08480F210C2200F015FC4FF693
:1003700088733B603B460448194600F063FB08372E
:10038000BD4680BD000C02400010024080B582B026
:1003900000AF0820012100F019F916480C210222B3
:1003A00000F0FAFB4FF480533B6002233B710023C3
:1003B0007B710023BB710023FB713B460D4819463E
:1003C00000F040FB0420012100F000F940233B60D5
:1003D00001233B710023BB710023FB713B460648A0
:1003E000194600F02FFB0448402100F0B9FB083704
:1003F000BD4680BD000C02400008024080B596B0AA
:1004000000AF0023FB6100233B6200237B621023CB
:10041000BB620023FB6200237B630023BB630023DA
:10042000FB634FF480533B6400237B6400233B63F6
:100430000023BB640023FB643B463B6504233B6015
:1004400000237B600123BB600923FB6000233B6129
:1004500000237B610023BB613B467B6507F11C03E6
:10046000184600F02BFA0020012100F0C1FA58379D
:10047000BD4680BD80B500AFFFF7FAFE322000F028
:100480008DF9FFF783FF322000F088F9FFF7B6FF00
:10049000322000F083F980BD80B582B000AFFFF755
:1004A000E9FFFFF7A1FE00F065F810200F2100F032
:1004B000D9FB0A2000F072F90420812100F0D2FB60
:1004C0000A2000F06BF900F0E3FB0346FB801420E8
:1004D000632100F0C7FB1520002100F0C3FB1620AC
:1004E000032100F0BFFB1720022100F0BBFB182006
:1004F0000B2100F0B7FB1920DF2100F0B3FB1A201D
:10050000012100F0AFFB1B20202100F0ABFB1C20E1
:10051000002100F0A7FB1D20162100F0A3FB1E20E8
:10052000002100F09FFB1F20012100F09BFB3020E9
:10053000002100F097FB3120002100F093FB3420D4
:100540001F2100F08FFB3520032100F08BFB3220B0
:10055000002100F087FB3320002100F083FB3620D0
:10056000DF2100F07FFB3720012100F07BFB083703
:10057000BD4680BD80B500AF88200B2100F072FB26
:10058000142000F00BF98920022100F06BFB1420ED
:1005900000F004F980BD00BF80B500AF00F084FB1F
:1005A00000F0D4F800F076F9FFF776FF4FF4FA7018
:1005B00000F0F4F8FFF738FE00F00CF90A2000F024
:1005C000EDF800F0FFF800F05BF8FCE780B483B0D2
:1005D00000AF78600B46FB70FB78002B06D0094912
:1005E000084B1A6B7B6813430B6306E00549054B08
:1005F0001A6B7B68DB4313400B630C37BD465DF819
:10060000047B70470038024080B483B000AF78604C
:100610000B46FB70FB78002B06D00949084B9A6B00
:100620007B6813438B6306E00549054B9A6B7B6837
:10063000DB4313408B630C37BD465DF8047B70478A
:100640000038024080B483B000AF78600B46FB7086
:10065000FB78002B06D00949084B1A6C7B681343C2
:100660000B6406E00549054B1A6C7B68DB431340BD
:100670000B640C37BD465DF8047B704700380240C0
:1006800080B500AF1F2000F0EFF84FF4FA7000F0D3
:1006900085F84FF4784000F0E7F84FF4FA7000F076
:1006A0007DF84FF4FC6000F0DFF84FF4FA7000F0D2
:1006B00075F880BD80B483B000AF03463960FB712C
:1006C00097F90730002B0BDA0D49FB7903F00F0384
:1006D000043B3A68D2B21201D2B20B441A7609E056
:1006E000084997F907303A68D2B21201D2B20B44E6
:1006F00083F800230C37BD465DF8047B704700BFCC
:1007000000ED00E000E100E080B582B000AF78606D
:100710007B68B3F1807F01D3012311E00A4A7B6833
:1007200023F07F43013B53604FF0FF300F21FFF771
:10073000C1FF054B00229A60034B07221A60002379
:1007400018460837BD4680BD10E000E080B500AF18
:10075000064B00221A60064B1B68064AA2FB0323C5
:100760009B091846FFF7D0FF80BD00BF1400002092
:1007700000000020D34D621080B400AF064B1B6810
:10078000002B04D0044B1B68013B034A1360BD4699
:100790005DF8047B704700BF1400002080B483B074
:1007A00000AF7860064A7B68136000BF044B1B688B
:1007B000002BFBD10C37BD465DF8047B704700BFB2
:1007C0001400002080B500AF0120802100F04AFA1B
:1007D00080BD00BF80B500AF0120002100F042FACB
:1007E00080BD00BF90B583B000AF044608461146F7
:1007F0001A462346FB800346BB800B467B8013468C
:100800003B80FB889120194600F02CFAFB881B0ADC
:100810009BB29220194600F025FABB889320194616
:1008200000F020FABB881B0A9BB29420194600F006
:1008300019FA7B889520194600F014FA7B881B0A68
:100840009BB29620194600F00DFA3B889720194676
:1008500000F008FA3B881B0A9BB29820194600F06A
:1008600001FA0C37BD4690BD80B582B000AF03469B
:10087000FB80002000214FF4487240F2DF13FFF7A5
:10088000B1FF9020B02100F0EDF9FFF79BFF083792
:10089000BD4680BD80B500AF0748402100F06EF92D
:1008A0000120FFF77BFF0448402100F059F90A209E
:1008B000FFF774FF80BD00BF0008024080B483B022
:1008C00000AF78604FF020407B681B687A68516801
:1008D0007A68926811437A68D26811437A6812691B
:1008E00011437A68526911437A68926911437A68B0
:1008F000D26911437A68126A11437A68526A1143C5
:100900007A68926A11437A68D26A11437A68126BE4
:100910000A4340F823207B689B68082B0DD14FF0D9
:1009200020417B681B684FF020407A68126850F8BD
:10093000222042F0400241F823204FF020407B6803
:100940001B6801337A68526B11687A68526B52687F
:10095000120111437A68526B9268120211437A684D
:10096000526BD268120411437A68526B12691205F5
:1009700011437A68526B5269120611437A68526BBE
:1009800092690A4340F823207B68DB6AB3F5804F05
:1009900020D116487B681B687A68926B11687A6868
:1009A000926B5268120111437A68926B926812023C
:1009B00011437A68926B1269120511437A68926B3F
:1009C0005269120611437A68926B92690A4340F8A1
:1009D000232006E0054A7B681B686FF0704142F8EF
:1009E00023100C37BD465DF8047B7047040100A05E
:1009F00080B483B000AF78600B46FB70FB78002BAF
:100A00000CD04FF020414FF020427B6852F8233049
:100A100043F001027B6841F823200BE04FF02041B6
:100A20004FF020427B6852F82320054B13407A6830
:100A300041F822300C37BD465DF8047B704700BF9B
:100A4000FEFF0F0080B487B000AF786039600023EC
:100A50007B6100233B610023FB6000237B6176E028
:100A60007B69012202FA03F33B613B681A683B6928
:100A70001340FB60FA683B699A4265D17B681A684B
:100A80007B695B00194603238B40DB431A407B687C
:100A90001A607B681A683B681B7919467B695B00A2
:100AA00001FA03F31A437B681A603B681B79012B38
:100AB00003D03B681B79022B2ED17B689A687B6937
:100AC0005B00194603238B40DB431A407B689A6026
:100AD0007B689A683B685B7919467B695B0001FA21
:100AE00003F31A437B689A607B685A687B699BB200
:100AF000194601238B40DB431A407B685A607B68B0
:100B00005B683A68927911467A6992B201FA02F208
:100B100092B21A437B685A607B68DA687B699BB241
:100B20005B00032101FA03F3DB431A407B68DA60C0
:100B30007B68DA683B68DB7919467B695B0001FA00
:100B400003F31A437B68DA607B6901337B617B695D
:100B50000F2B85D91C37BD465DF8047B704700BF5D
:100B600080B483B000AF78600B467B807B687A8866
:100B70001A830C37BD465DF8047B704780B483B0A0
:100B800000AF78600B467B807B687A885A830C378D
:100B9000BD465DF8047B704780B485B000AF7860D7
:100BA0000B467B8013467B700023FB600023BB60F9
:100BB0007B787A8802F0070292009340FB607B8882
:100BC000DB089BB218467B88DB089BB21A467B6821
:100BD000083253F822207B8803F007039B00194654
:100BE0000F238B40DB4302EA03017B6800F108021C
:100BF00043F822107B88DB089BB21A467B680832D8
:100C000053F82220FB681343BB607B88DB089BB250
:100C10001A467B680832B96843F822101437BD467B
:100C20005DF8047B704700BF80B483B000AF03461B
:100C3000FB80044AFB8813800C37BD465DF8047BBB
:100C4000704700BF0000106080B483B000AF03465F
:100C5000FB804FF0C042FB8813800C37BD465DF827
:100C6000047B704780B582B000AF03460A46FB8024
:100C70001346BB80FB881846FFF7D6FF0120FFF71D
:100C80008DFDBB881846FFF7DFFF0837BD4680BDE6
:100C900080B400AF034B1B889BB21846BD465DF87D
:100CA000047B70470000106080B500AF114A114B03
:100CB0001B6843F0010313600E4B00229A600D4A3B
:100CC0000C4B1B6823F0847323F480331360094BAF
:100CD000094A5A60074A074B1B6823F480231360B4
:100CE000044B0022DA6000F00BF8044B4FF0006276
:100CF0009A6080BD003802401030002400ED00E012
:100D000080B483B000AF00237B6000233B60354A92
:100D1000344B1B6843F480331360324B1B6803F47D
:100D200000333B607B6801337B603B68002B03D161
:100D30007B68B3F5A06FF0D12A4B1B6803F4003336
:100D4000002B02D001233B6001E000233B603B68A5
:100D5000012B42D1234A234B1B6C43F08053136475
:100D6000214A214B1B6843F4804313601D4A1D4BED
:100D70009B6893601B4A1B4B9B6843F40043936042
:100D8000184A184B9B6843F4A0539360154B174ABD
:100D90005A60144A134B1B6843F08073136000BF02
:100DA000104B1B6803F00073002BF9D0104B40F27E
:100DB00005621A600B4A0B4B9B6823F00303936098
:100DC000084A084B9B6843F00203936000BF054B41
:100DD0009B6803F00C03082BF9D10C37BD465DF876
:100DE000047B7047003802400070004019544007EF
:100DF000003C024080B485B000AF786039600023C9
:100E0000FB817B681B88FB817B68284A934213D057
:100E10007B68274A93420FD07B68B3F1804F0BD099
:100E20007B68244A934207D07B68234A934203D0CD
:100E30007B68224A934208D1FB8923F07003FB812F
:100E40003B685A88FB891343FB817B681C4A9342A9
:100E50000CD07B681B4A934208D0FB8923F4407373
:100E6000FB813B681A89FB891343FB817B68FA8904
:100E70001A803B685A687B68DA623B681A887B682C
:100E80001A857B68094A934203D07B68084A9342DB
:100E900004D13B689B7A9AB27B681A867B680122F0
:100EA0009A821437BD465DF8047B7047000001400C
:100EB000000401400004004000080040000C004015
:100EC000001000400014004080B483B000AF786090
:100ED0000B46FB70FB78002B08D07B681B889BB20D
:100EE00043F001039AB27B681A8007E07B681B8895
:100EF0009BB223F001039AB27B681A800C37BD467F
:100F00005DF8047B704700BF80B485B000AF7860A7
:100F1000396000237B810023FB810023BB817B6838
:100F20001B8C9BB223F001039AB27B681A847B6806
:100F30001B8CFB817B689B88BB817B681B8B7B81C7
:100F40007B8923F070037B817B8923F003037B8102
:100F50003B681A887B8913437B81FB8923F002035A
:100F6000FB813B689A89FB891343FB813B685A8864
:100F7000FB891343FB817B681E4A934203D07B6845
:100F80001D4A934223D1FB8923F00803FB813B6870
:100F9000DA89FB891343FB81FB8923F00403FB817E
:100FA0003B689A88FB891343FB81BB8923F48073D8
:100FB000BB81BB8923F40073BB813B681A8ABB8960
:100FC0001343BB813B685A8ABB891343BB817B684F
:100FD000BA899A807B687A891A833B689A687B68A9
:100FE0005A637B68FA891A841437BD465DF8047B1E
:100FF000704700BF000001400004014080B485B08C
:1010000000AF78600B467B800023FB817B681B8BE5
:10101000FB81FB8923F00803FB81FA897B8813435A
:10102000FB817B68FA891A831437BD465DF8047B1F
:04103000704700BF46
:10103400007A030A0000000000000000010203041B
:04104400060708098A
:0400000508000000EF
:00000001FF
