:020000040800F2
:100000001808002049030008A1030008A103000804
:10001000A1030008A1030008A103000800000000DC
:10002000000000000000000000000000A103000824
:10003000A103000800000000A1030008290A00082D
:10004000A1030008A1030008A1030008A103000800
:10005000A1030008A1030008A1030008A1030008F0
:10006000A1030008A1030008A1030008A1030008E0
:10007000A1030008A1030008A1030008A1030008D0
:10008000A1030008A1030008A1030008A1030008C0
:10009000A1030008A1030008A1030008A1030008B0
:1000A000A1030008A1030008A1030008A1030008A0
:1000B000A1030008A1030008A1030008A103000890
:1000C000A1030008A1030008A1030008A103000880
:1000D000A1030008A1030008A1030008A103000870
:1000E000A1030008A1030008A1030008A103000860
:1000F000A1030008A1030008A1030008A103000850
:10010000A1030008A1030008A1030008A10300083F
:10011000A1030008A1030008A1030008A10300082F
:10012000A1030008A1030008A1030008A10300081F
:10013000A1030008A1030008A1030008A10300080F
:10014000A1030008A1030008A1030008A1030008FF
:10015000A1030008A1030008A1030008A1030008EF
:10016000A1030008A1030008A1030008A1030008DF
:10017000A1030008A1030008A1030008A1030008CF
:10018000A1030008A103000880B584B000AFF860A7
:10019000084611461A4603467B810B463B811346AF
:1001A000FB80002040F21F31002240F2DF1300F0FC
:1001B00051FD00F099FD00F09FFC00F01BFD0320B5
:1001C00000F08CFC00F07AFC00F080FC7A893B891E
:1001D0001046194600F0BEFCFB88184600F0D0FD22
:1001E0003B8B184600F0ACFD00F08EFC00F00AFDE1
:1001F0003B7F022B0ED0032B17D0012B20D100F018
:10020000CDFC012000F0E2FC042000F095FC00F0A1
:100210007BFC1FE000F0CAFC012000F0D7FC0420AA
:1002200000F08AFC00F070FC14E000F0C7FC012034
:1002300000F0CCFC042000F07FFC00F065FC09E03D
:1002400000F0ACFC012000F0C1FC042000F074FCC4
:1002500000F05AFC97F82030013B032B16D801A27E
:1002600052F823F0750200087B02000881020008A2
:100270008702000800F0CEFC08E000F0D3FC05E0A7
:1002800000F0D8FC02E000F0DDFC00BF00F04CFC08
:1002900000F042FC00F00CFCF86800F00BF82120A4
:1002A000002100F0AFFF2F20002100F0ABFF10373E
:1002B000BD4680BD80B582B000AF786000F014FD0F
:1002C000022000F075FF0AE07B681B789BB218469D
:1002D00000F07EFF7B6801337B6000F0CBFB7B6826
:1002E0001B78002BF0D10837BD4680BD80B582B0A9
:1002F00000AF0346FB80FB88184600F041FD00205C
:1003000000214FF4487240F2DF1300F059FD9020B5
:10031000B02100F077FF00F0BBFB0837BD4680BD81
:1003200080B500AF0748402100F0ECFE012000F04E
:100330008DFB0448402100F0D7FE0A2000F086FB28
:1003400080BD00BF0008024080B582B000AF0F4BF7
:100350007B600F4B3B6007E03B681A1D3A607A6890
:10036000111D796012681A603B680A4A9342F3D300
:1003700009480A494FF000028842B8BF40F8042BF0
:10038000FADB00F0E9F90837BD4680BDAC1600087D
:10039000000000201400002014000020180000209D
:1003A00080B400AFFEE700BF80B584B000AF04208A
:1003B000012100F09FFA0323BB800023FB804FF450
:1003C0007A73BB600023BB810023BB733B1D0548D0
:1003D000194601F03FF80348012101F0A5F8103754
:1003E000BD4680BD0008004080B586B000AF7023D8
:1003F000BB800123FB8002233B8244F29E13FB60FF
:100400003B1D0A48194601F0AFF80848082101F0E1
:1004100025F93B1D0548194601F0A6F803480821B7
:1004200001F01CF91837BD4680BD00BF0008004030
:1004300080B582B000AF1820012100F01FFA012022
:10044000012100F039FA3F4800210C2200F068FE3B
:100450003C4801210C2200F063FE3A4804210C22A2
:1004600000F05EFE374805210C2200F059FE3548A9
:1004700007210C2200F054FE324808210C2200F023
:100480004FFE304809210C2200F04AFE2D480A2177
:100490000C2200F045FE2B480E210C2200F040FEFD
:1004A00028480F210C2200F03BFE4CF2B3733B6056
:1004B00002233B7102237B710023BB710023FB717C
:1004C0003B462048194600F081FD1F4803210C22BD
:1004D00000F026FE1C4807210C2200F021FE1A48DD
:1004E00008210C2200F01CFE174809210C2200F004
:1004F00017FE15480A210C2200F012FE12480B21AB
:100500000C2200F00DFE10480C210C2200F008FE19
:100510000D480D210C2200F003FE0B480E210C2289
:1005200000F0FEFD08480F210C2200F0F9FD4FF607
:1005300088733B603B460448194600F047FD083786
:10054000BD4680BD000C02400010024080B582B064
:1005500000AF0820012100F091F916480C21022279
:1005600000F0DEFD4FF480533B6002233B7100231B
:100570007B710023BB710023FB713B460D4819467C
:1005800000F024FD0420012100F078F940233B60B5
:1005900001233B710023BB710023FB713B460648DE
:1005A000194600F013FD0448402100F09DFD083776
:1005B000BD4680BD000C02400008024080B596B0E8
:1005C00000AF0023FB6100233B6200237B6210230A
:1005D000BB620023FB6200237B630023BB63002319
:1005E000FB634FF480533B6400237B6400233B6335
:1005F0000023BB640023FB643B463B6504233B6054
:1006000000237B600123BB600923FB6000233B6167
:1006100000237B610023BB613B467B6507F11C0324
:10062000184600F00FFC0020012100F0A5FC58370F
:10063000BD4680BD80B500AFFFF7FAFE322000F066
:1006400005FAFFF783FF322000F000FAFFF7B6FF4C
:10065000322000F0FBF980BD80B582B000AFFFF71B
:10066000E9FFFFF7A1FE00F065F810200F2100F070
:10067000C9FD0A2000F0EAF90420812100F0C2FD42
:100680000A2000F0E3F900F033FE0346FB8014205B
:10069000632100F0B7FD1520002100F0B3FD162006
:1006A000032100F0AFFD1720032100F0ABFD18205F
:1006B0000B2100F0A7FD1920DF2100F0A3FD1A2077
:1006C000012100F09FFD1B20202100F09BFD1C203C
:1006D000002100F097FD1D20162100F093FD1E2043
:1006E000002100F08FFD1F20012100F08BFD302044
:1006F000002100F087FD3120002100F083FD34202F
:100700001F2100F07FFD3520032100F07BFD32200A
:10071000002100F077FD3320002100F073FD36202A
:10072000DF2100F06FFD3720012100F06BFD08375D
:10073000BD4680BD80B500AF88200B2100F062FD72
:10074000142000F083F98920022100F05BFD1420C1
:1007500000F07CF980BD00BF80B586B004AF00F02A
:10076000D3FD00F04BF9FFF7DBFDFFF775FF4FF40A
:10077000FA7000F06BF9FFF737FE00F091F90A20EC
:1007800000F064F900F084F94FF6FF70FFF7AEFD5A
:100790004FF4FA6000F05AF9002040F21F310022B5
:1007A00040F2DF1300F056FA4FF6FF730093012377
:1007B0000193012302932F4B03932F484FF4C871E9
:1007C00064220023FFF7E0FC4FF6FF730093012340
:1007D000019302230293274B039327484FF4C871D8
:1007E000C8220023FFF7D0FC4FF6FF7300930123CC
:1007F0000193032302931F4B03931F484FF4C871C7
:100800004FF496720023FFF7BFFC4FF6FF7300937F
:100810000123019304230293164B039316484FF4CC
:10082000C8714FF4C8720023FFF7AEFC6420C821E2
:10083000C8224FF4967300F00DFA00F04DFA6420D0
:10084000C82100F059FA022000F0B2FC00237B60BE
:1008500007E0002000F0BCFC00F00CF97B680133DD
:100860007B607B6842F2D8729342F2D900F060F864
:10087000FCE700BFA41600089416000880B483B0FB
:1008800000AF78600B46FB70FB78002B06D009495F
:10089000084B1A6B7B6813430B6306E00549054B55
:1008A0001A6B7B68DB4313400B630C37BD465DF866
:1008B000047B70470038024080B483B000AF78609A
:1008C0000B46FB70FB78002B06D00949084B9A6B4E
:1008D0007B6813438B6306E00549054B9A6B7B6885
:1008E000DB4313408B630C37BD465DF8047B7047D8
:1008F0000038024080B483B000AF78600B46FB70D4
:10090000FB78002B06D00949084B1A6C7B6813430F
:100910000B6406E00549054B1A6C7B68DB4313400A
:100920000B640C37BD465DF8047B7047003802400D
:1009300080B500AF1F20FFF7D9FC4FF4FA7000F02C
:1009400085F84FF47840FFF7D1FC4FF4FA7000F0CF
:100950007DF84FF4FC60FFF7C9FC4FF4FA7000F02B
:1009600075F880BD80B483B000AF03463960FB7179
:1009700097F90730002B0BDA0D49FB7903F00F03D1
:10098000043B3A68D2B21201D2B20B441A7609E0A3
:10099000084997F907303A68D2B21201D2B20B4433
:1009A00083F800230C37BD465DF8047B704700BF19
:1009B00000ED00E000E100E080B582B000AF7860BB
:1009C0007B68B3F1807F01D3012311E00A4A7B6881
:1009D00023F07F43013B53604FF0FF300F21FFF7BF
:1009E000C1FF054B00229A60034B07221A600023C7
:1009F00018460837BD4680BD10E000E080B500AF66
:100A0000064B00221A60064B1B68064AA2FB032312
:100A10009B091846FFF7D0FF80BD00BF14000020DF
:100A200000000020D34D621080B400AF064B1B685D
:100A3000002B04D0044B1B68013B034A1360BD46E6
:100A40005DF8047B704700BF1400002080B483B0C1
:100A500000AF7860064A7B68136000BF044B1B68D8
:100A6000002BFBD10C37BD465DF8047B704700BFFF
:100A70001400002080B582B000AF00F039FC0346BE
:100A8000FB71FB795BB2002BF7DB0837BD4680BDFD
:100A900080B500AF0120802100F0B4FB80BD00BF15
:100AA00080B500AF0120002100F0ACFB80BD00BF8D
:100AB00080B500AF022000F07BFB80BD80B500AFA9
:100AC0000520202100F0B4FB80BD00BF80B500AF41
:100AD0000520EF21082200F0E7FB80BD80B582B041
:100AE00000AF0346FB71FB799BB20620194600F06C
:100AF00089FB0837BD4680BD80B500AF212020218D
:100B000000F096FB80BD00BF80B500AF22208021A1
:100B100000F08EFB80BD00BF80B500AF2220F32126
:100B200000F0A4FB80BD00BF80B500AF2220FC21F7
:100B300000F09CFB80BD00BF80B582B000AF0346D3
:100B4000FB71FB799BB22920194600F05BFB08374B
:100B5000BD4680BD80B582B000AF03460A46FB802B
:100B60001346BB80FB882A20194600F04BFBFB880C
:100B70001B0A9BB22B20194600F044FBBB882C209B
:100B8000194600F03FFBBB881B0A9BB22D2019467B
:100B900000F038FB0837BD4680BD00BF80B500AF10
:100BA0002E203F2100F062FB80BD00BF80B500AF6A
:100BB0002E207F21402200F077FB80BD80B500AF62
:100BC0002E20802100F034FB80BD00BF80B584B0B2
:100BD00000AF0346FB71FB7903F03F03FB73FB7B24
:100BE0009BB22E20C0211A4600F05EFB1037BD4696
:100BF00080BD00BF80B500AF2F201F21802200F0F4
:100C000053FB80BD80B500AF2F20E321102200F000
:100C10004BFB80BD80B500AF2F20FC2100F026FBF0
:100C200080BD00BF80B500AF2F20FD21012200F064
:100C30003BFB80BD80B500AF2F20FE21022200F0DB
:100C400033FB80BD80B500AF2F20032100F0F0FA08
:100C500080BD00BF90B583B000AF04460846114682
:100C60001A462346FB800346BB800B467B80134617
:100C70003B80FB883020194600F0C4FAFB881B0A31
:100C80009BB23120194600F0BDFABB8834201946CA
:100C900000F0B8FABB881B0A9BB23520194600F059
:100CA000B1FA7B883220194600F0ACFA7B881B0A27
:100CB0009BB23320194600F0A5FA3B88362019462E
:100CC00000F0A0FA3B881B0A9BB23720194600F0BF
:100CD00099FA0C37BD4690BD80B500AF40207F210A
:100CE00000F0C4FA80BD00BF80B500AF4020802175
:100CF00000F09EFA80BD00BF80B582B000AF034611
:100D00000A46FB801346BB80FB884620194600F04C
:100D100079FAFB881B0A9BB24720194600F072FA49
:100D2000BB884820194600F06DFABB881B0A9BB2AD
:100D30004920194600F066FA0837BD4680BD00BF5D
:100D400080B582B000AF0346FB80FB88DB0A9BB214
:100D50006020194600F056FAFB8803F4FC635B112F
:100D60009BB26120194600F04DFAFB8803F01F0387
:100D70009BB26220194600F045FA0837BD4680BD97
:100D800080B582B000AF0346FB80FB88DB0A9BB2D4
:100D90006320194600F036FAFB8803F4FC635B110C
:100DA0009BB26420194600F02DFAFB8803F01F0364
:100DB0009BB26520194600F025FA0837BD4680BD74
:100DC00090B583B000AF0446084611461A46234644
:100DD000FB800346BB800B467B8013463B80FB8831
:100DE0009120194600F00EFAFB881B0A9BB2922054
:100DF000194600F007FABB889320194600F002FA62
:100E0000BB881B0A9BB29420194600F0FBF97B8833
:100E10009520194600F0F6F97B881B0A9BB29620B4
:100E2000194600F0EFF93B889720194600F0EAF9DF
:100E30003B881B0A9BB29820194600F0E3F90C3757
:100E4000BD4690BD80B483B000AF78604FF02040C5
:100E50007B681B687A6851687A68926811437A687F
:100E6000D26811437A68126911437A685269114352
:100E70007A68926911437A68D26911437A68126A72
:100E800011437A68526A11437A68926A11437A6808
:100E9000D26A11437A68126B0A4340F823207B68B8
:100EA0009B68082B0DD14FF020417B681B684FF0E9
:100EB00020407A68126850F8222042F0400241F83F
:100EC00023204FF020407B681B6801337A68526B07
:100ED00011687A68526B5268120111437A68526B3A
:100EE0009268120211437A68526BD268120411435D
:100EF0007A68526B1269120511437A68526B526913
:100F0000120611437A68526B92690A4340F8232013
:100F10007B68DB6AB3F5804F20D116487B681B687D
:100F20007A68926B11687A68926B52681201114369
:100F30007A68926B9268120211437A68926B126916
:100F4000120511437A68926B5269120611437A684E
:100F5000926B92690A4340F8232006E0054A7B68B9
:100F60001B686FF0704142F823100C37BD465DF8E6
:100F7000047B7047040100A080B483B000AF7860A8
:100F80000B46FB70FB78002B0CD04FF020414FF04C
:100F900020427B6852F8233043F001027B6841F81D
:100FA00023200BE04FF020414FF020427B6852F8A5
:100FB0002320054B13407A6841F822300C37BD4698
:100FC0005DF8047B704700BFFEFF0F0080B487B060
:100FD00000AF7860396000237B6100233B61002310
:100FE000FB6000237B6176E07B69012202FA03F358
:100FF0003B613B681A683B691340FB60FA683B69D8
:101000009A4265D17B681A687B695B0019460323A5
:101010008B40DB431A407B681A607B681A683B6828
:101020001B7919467B695B0001FA03F31A437B685D
:101030001A603B681B79012B03D03B681B79022B9C
:101040002ED17B689A687B695B00194603238B402D
:10105000DB431A407B689A607B689A683B685B79DF
:1010600019467B695B0001FA03F31A437B689A60B7
:101070007B685A687B699BB2194601238B40DB432E
:101080001A407B685A607B685B683A6892791146BF
:101090007A6992B201FA02F292B21A437B685A60FC
:1010A0007B68DA687B699BB25B00032101FA03F37A
:1010B000DB431A407B68DA607B68DA683B68DB797F
:1010C00019467B695B0001FA03F31A437B68DA6017
:1010D0007B6901337B617B690F2B85D91C37BD464A
:1010E0005DF8047B704700BF80B483B000AF7860C8
:1010F0000B467B807B687A881A830C37BD465DF887
:10110000047B704780B483B000AF78600B467B806F
:101110007B687A885A830C37BD465DF8047B70473C
:1011200080B485B000AF78600B467B8013467B703F
:101130000023FB600023BB607B787A8802F0070203
:1011400092009340FB607B88DB089BB218467B884B
:10115000DB089BB21A467B68083253F822207B8852
:1011600003F007039B0019460F238B40DB4302EA81
:1011700003017B6800F1080243F822107B88DB083A
:101180009BB21A467B68083253F82220FB6813434F
:10119000BB607B88DB089BB21A467B680832B96863
:1011A00043F822101437BD465DF8047B704700BF3A
:1011B00080B483B000AF0346FB80044AFB881380F1
:1011C0000C37BD465DF8047B704700BF000010601F
:1011D00080B483B000AF0346FB804FF0C042FB8871
:1011E00013800C37BD465DF8047B704780B400AFB8
:1011F0004FF0C0431B889BB21846BD465DF8047B88
:10120000704700BF80B582B000AF03460A46FB803E
:101210001346BB80FB881846FFF7CAFF0120FFF783
:1012200015FCBB881846FFF7D3FF0837BD4680BDC5
:1012300080B584B000AF03460A46FB801346BB80EE
:10124000FB881846FFF7B4FFFFF7D0FF0346FB818A
:10125000FA89BB881343FB81FA88FB89104619463B
:10126000FFF7D0FF18461037BD4680BD80B584B06B
:1012700000AF03460A46FB801346BB80FB88184636
:10128000FFF796FFFFF7B2FF0346FB81FA89BB88A1
:101290001340FB81FA88FB8910461946FFF7B2FF1D
:1012A00018461037BD4680BD80B584B000AF0346F8
:1012B000FB800B46BB8013467B80FB881846FFF7FC
:1012C00077FFFFF793FF0346FB81FA89BB88134042
:1012D000FB81FA897B881343FB81FA88FB891046DE
:1012E0001946FFF78FFF18461037BD4680BD00BF77
:1012F00080B400AF034B1B889BB21846BD465DF817
:10130000047B70470000106080B500AF114A114B9C
:101310001B6843F0010313600E4B00229A600D4AD4
:101320000C4B1B6823F0847323F480331360094B48
:10133000094A5A60074A074B1B6823F4802313604D
:10134000044B0022DA6000F00BF8044B4FF000620F
:101350009A6080BD003802401030002400ED00E0AB
:1013600080B483B000AF00237B6000233B60354A2C
:10137000344B1B6843F480331360324B1B6803F417
:1013800000333B607B6801337B603B68002B03D1FB
:101390007B68B3F5A06FF0D12A4B1B6803F40033D0
:1013A000002B02D001233B6001E000233B603B683F
:1013B000012B42D1234A234B1B6C43F0805313640F
:1013C000214A214B1B6843F4804313601D4A1D4B87
:1013D0009B6893601B4A1B4B9B6843F400439360DC
:1013E000184A184B9B6843F4A0539360154B174A57
:1013F0005A60144A134B1B6843F08073136000BF9C
:10140000104B1B6803F00073002BF9D0104B40F217
:1014100005621A600B4A0B4B9B6823F00303936031
:10142000084A084B9B6843F00203936000BF054BDA
:101430009B6803F00C03082BF9D10C37BD465DF80F
:10144000047B704700380240007000401954400788
:10145000003C024080B485B000AF78603960002362
:10146000FB817B681B88FB817B68284A934213D0F1
:101470007B68274A93420FD07B68B3F1804F0BD033
:101480007B68244A934207D07B68234A934203D067
:101490007B68224A934208D1FB8923F07003FB81C9
:1014A0003B685A88FB891343FB817B681C4A934243
:1014B0000CD07B681B4A934208D0FB8923F440730D
:1014C000FB813B681A89FB891343FB817B68FA899E
:1014D0001A803B685A687B68DA623B681A887B68C6
:1014E0001A857B68094A934203D07B68084A934275
:1014F00004D13B689B7A9AB27B681A867B6801228A
:101500009A821437BD465DF8047B704700000140A5
:10151000000401400004004000080040000C0040AE
:10152000001000400014004080B483B000AF786029
:101530000B46FB70FB78002B08D07B681B889BB2A6
:1015400043F001039AB27B681A8007E07B681B882E
:101550009BB223F001039AB27B681A800C37BD4618
:101560005DF8047B704700BF80B485B000AF786041
:10157000396000237B810023FB810023BB817B68D2
:101580001B8C9BB223F001039AB27B681A847B68A0
:101590001B8CFB817B689B88BB817B681B8B7B8161
:1015A0007B8923F070037B817B8923F003037B819C
:1015B0003B681A887B8913437B81FB8923F00203F4
:1015C000FB813B689A89FB891343FB813B685A88FE
:1015D000FB891343FB817B681E4A934203D07B68DF
:1015E0001D4A934223D1FB8923F00803FB813B680A
:1015F000DA89FB891343FB81FB8923F00403FB8118
:101600003B689A88FB891343FB81BB8923F4807371
:10161000BB81BB8923F40073BB813B681A8ABB89F9
:101620001343BB813B685A8ABB891343BB817B68E8
:10163000BA899A807B687A891A833B689A687B6842
:101640005A637B68FA891A841437BD465DF8047BB7
:10165000704700BF000001400004014080B485B025
:1016600000AF78600B467B800023FB817B681B8B7F
:10167000FB81FB8923F00803FB81FA897B881343F4
:10168000FB817B68FA891A831437BD465DF8047BB9
:10169000704700BF486F6C612050726573756E743F
:0C16A000610000007A6F6F6D32000000E6
:1016AC00007A030A0000000000000000010203049D
:0416BC00060708090C
:0400000508000000EF
:00000001FF
