:020000040800F2
:10000000E0AA0120D10400082905000829050008FC
:10001000290500082905000829050008000000003E
:10002000000000000000000000000000290500089A
:10003000290500080000000029050008310D00080E
:100040002905000829050008290500081D210008C8
:1000500029050008290500082905000829050008C8
:1000600029050008290500082905000829050008B8
:1000700029050008290500082905000829050008A8
:100080002905000829050008290500082905000898
:100090002905000829050008290500082905000888
:1000A0002905000829050008290500082905000878
:1000B0002905000829050008290500082905000868
:1000C0002905000829050008290500082905000858
:1000D0002905000829050008290500082905000848
:1000E00029050008492100082905000829050008FC
:1000F0002905000829050008290500082905000828
:100100002905000829050008290500082905000817
:100110002905000829050008290500082905000807
:1001200029050008290500082905000829050008F7
:1001300029050008290500082905000829050008E7
:1001400029050008290500082905000829050008D7
:1001500029050008290500082905000829050008C7
:1001600029050008290500082905000829050008B7
:1001700029050008290500082905000829050008A7
:10018000290500082905000890B585B000AF044690
:10019000084611461A462346FB800346BB800B46A1
:1001A0007B8013463B8000F081FFF888B9887A880D
:1001B0003B8800F0C9FFC820F02101F027F8C020DB
:1001C00000F0B4FF00F0AAFF022001F07BFA002348
:1001D000FB810BE0FB89094A32F81330184601F025
:1001E00081FA00F0CBFDFB890133FB81FB894BF6E3
:1001F0007F329342EED91437BD4690BD00000020F7
:1002000090B585B000AF0446084611461A4623460D
:10021000FB800346BB800B467B8013463B8000F08F
:1002200045FFF888B9887A883B8800F08DFF6E20FA
:10023000282100F0EBFFC02000F078FF00F06EFFF7
:10024000022001F03FFA0023FB810BE0FB89094A01
:1002500032F81330184601F045FA00F08FFDFB89A3
:100260000133FB81FB8941F22F129342EED91437FF
:10027000BD4690BD0077012080B483B000AF034637
:10028000FB71044AFB7913600C37BD465DF8047BB3
:10029000704700BF20000E4280B584B000AFF86008
:1002A000084611461A4603467B810B463B8113469E
:1002B000FB8000F0E3F800F0FBF87A893B891046F8
:1002C000194600F031FEFB88184600F0E3FF3B8B37
:1002D000184600F0BFFF00F0D1FD3B7F022B0ED08F
:1002E000032B17D0012B20D100F042FE012000F09B
:1002F00057FE042000F00AFE00F0C0FD1FE000F0F1
:100300003FFE012000F04CFE042000F0FFFD00F055
:10031000B5FD14E000F03CFE012000F041FE042099
:1003200000F0F4FD00F0AAFD09E000F021FE01203C
:1003300000F036FE042000F0E9FD00F09FFD97F884
:100340002030013B032B17D801A252F823F000BF45
:1003500061030008670300086D03000873030008C9
:1003600000F042FE08E000F047FE05E000F04CFE21
:1003700002E000F051FE00BF97F82430032B1FD895
:1003800001A252F823F000BF99030008A30300085C
:10039000AD030008B703000800F098FD00F076FDFB
:1003A00012E000F09BFD00F079FD0DE000F09EFDF5
:1003B00000F07CFD08E000F0A1FD00F07FFD03E00F
:1003C00000F084FD00F062FD00F004FDF86800F02C
:1003D0000BF82120002101F09FF92F20002101F0CE
:1003E0009BF91037BD4680BD80B582B000AF786004
:1003F00000F064FE022001F065F90AE07B681B78DA
:100400009BB2184601F06EF97B6801337B6000F007
:10041000B5FC7B681B78002BF0D10837BD4680BD4A
:1004200080B582B000AF0346FB80FB88184600F021
:1004300031FF002000214FF4487240F2DF1300F03A
:1004400049FF9020B02101F067F900F0A5FC0837C2
:10045000BD4680BD80B500AF0748402101F0DCF803
:10046000012000F077FC0448402101F0C7F80A2081
:1004700000F070FC80BD00BF0008024080B500AFF6
:1004800000F0F4FC00F0EAFC00F09EFD00F0A4FD9A
:1004900000F0A6FC00F0ACFC032000F0D1FC00F062
:1004A000AFFC00F0B5FC00F0BBFC00F0C1FC80BD6F
:1004B00080B500AF00F002FE00F008FE00F00EFE76
:1004C00000F014FE00F01AFE00F020FE80BD00BF18
:1004D00080B582B000AF0F4B7B600F4B3B6007E0F5
:1004E0003B681A1D3A607A68111D796012681A60BB
:1004F0003B680A4A9342F3D309480A494FF0000285
:100500008842B8BF40F8042BFADB00F0E9F908375D
:10051000BD4680BDF87800080000002004A201203C
:1005200004A20120E0A2012080B400AFFEE700BFDA
:1005300080B584B000AF0420012100F03FFB03230D
:10054000BB800023FB804FF47A73BB600023BB8128
:100550000023BB733B1D0548194602F0D7FA034838
:10056000012102F03DFB1037BD4680BD0008004070
:1005700080B586B000AF7023BB800123FB800223CF
:100580003B8244F29E13FB603B1D0A48194602F071
:1005900047FB0848082102F0BDFB3B1D05481946F2
:1005A00002F03EFB0348082102F0B4FB1837BD46B9
:1005B00080BD00BF0008004080B582B000AF1820A9
:1005C000012100F0BFFA0120012100F0D9FA3F48D3
:1005D00000210C2201F02EF83C4801210C2201F0F0
:1005E00029F83A4804210C2201F024F83748052163
:1005F0000C2201F01FF8354807210C2201F01AF8EF
:10060000324808210C2201F015F8304809210C224B
:1006100001F010F82D480A210C2201F00BF82B48AC
:100620000E210C2201F006F828480F210C2201F0BF
:1006300001F84CF2B3733B6002233B7102237B71E0
:100640000023BB710023FB713B462048194600F094
:1006500047FF1F4803210C2200F0ECFF1C48072134
:100660000C2200F0E7FF1A4808210C2200F0E2FFFC
:10067000174809210C2200F0DDFF15480A210C2241
:1006800000F0D8FF12480B210C2200F0D3FF1048D5
:100690000C210C2200F0CEFF0D480D210C2200F0A1
:1006A000C9FF0B480E210C2200F0C4FF08480F219F
:1006B0000C2200F0BFFF4FF688733B603B460448B6
:1006C000194600F00DFF0837BD4680BD000C024002
:1006D0000010024080B582B000AF0820012100F078
:1006E00031FA16480C21022200F0A4FF4FF4805387
:1006F0003B6002233B7100237B710023BB7100230D
:10070000FB713B460D48194600F0EAFE042001212A
:1007100000F018FA40233B6001233B710023BB71BA
:100720000023FB713B460648194600F0D9FE0448F9
:10073000402100F063FF0837BD4680BD000C024039
:100740000008024080B596B000AF0023FB61002393
:100750003B6200237B621023BB620023FB62002309
:100760007B630023BB630023FB634FF480533B6434
:1007700000237B6400233B630023BB640023FB64F2
:100780003B463B6504233B6000237B600123BB6049
:100790000923FB6000233B6100237B610023BB61D5
:1007A0003B467B6507F11C03184600F0D5FD002091
:1007B000012100F06BFE5837BD4680BD80B500AF0B
:1007C000FFF7FAFE322000F0C5FAFFF783FF322070
:1007D00000F0C0FAFFF7B6FF322000F0BBFA80BD90
:1007E00080B582B000AFFFF7E9FFFFF7A1FE00F090
:1007F00065F810200F2100F08FFF0A2000F0AAFA00
:100800000420812100F088FF0A2000F0A3FA01F003
:1008100007F80346FB801420632100F07DFF1520BC
:10082000002100F079FF1620032100F075FF17204A
:10083000032100F071FF18200B2100F06DFF19203B
:10084000DF2100F069FF1A20012100F065FF1B2065
:10085000202100F061FF1C20002100F05DFF1D2021
:10086000162100F059FF1E20002100F055FF1F2027
:10087000012100F051FF3020002100F04DFF312018
:10088000002100F049FF34201F2100F045FF3520F2
:10089000032100F041FF3220002100F03DFF332012
:1008A000002100F039FF3620DF2100F035FF37202E
:1008B000012100F031FF0837BD4680BD80B500AF93
:1008C00088200B2100F028FF142000F043FA892033
:1008D000022100F021FF142000F03CFA80BD00BF8F
:1008E00080B582B000AF00F0A7FF012001F06AF8E8
:1008F0000346002B18D12D4B1422DA712B4B012209
:100900009A712A4B01221A72284B0F225A72274BD6
:1009100000225A71254B00221A71244B00221A70B2
:100920002248002101F0D0F800F0ECF9FFF792FD29
:1009300000F042FAFFF754FF4FF4FA7000F00AFAA1
:10094000FFF716FE00F030FA0A2000F003FA00F07C
:1009500023FA0020FFF764FD4FF4FA6000F0FAF983
:10096000072001F079FA0023FB8013E0FB881A4688
:10097000920013441A4691001A460B461344DB00BA
:100980009BB20020194600227823FFF7FDFBFB886D
:100990000133FB80FB88032BE8D9002040F2A32120
:1009A00000224FF4D273FFF72BFCFEE774A2012064
:1009B00090B585B004AF2648002101F0C7F9244B5B
:1009C000DB791A46224B1B7A1C46214B5B7A03F5D6
:1009D000FA6300931F482049234602F0B7F94FF409
:1009E000077040F21F310022122300F01DFB00238C
:1009F00000930123019302230293184B039315489C
:100A00004FF4077112224FF6FF73FFF745FC104BAE
:100A10005B791A460E4B1B791C460D4B1B780093D5
:100A20000C480F49234602F091F90023009302235A
:100A30000193022302930B4B0393064840F28A2151
:100A40000A2240F21F53FFF727FC0437BD4690BD32
:100A500074A2012084A201203C7700084C77000892
:100A6000547700086477000880B483B000AF034671
:100A7000FB710C4B00221A700A4B00221A70FB7992
:100A8000012B02D0042B04D007E0064B01221A7080
:100A900003E0044B05221A7000BF0C37BD465DF819
:100AA000047B70477038024080B483B000AF0346C7
:100AB000FB71044AFB7913600C37BD465DF8047B7B
:100AC000704700BF800E474280B485B000AF7860A9
:100AD0000023FB607B6803F44073B3F5407F11D1C2
:100AE0000F4B9B68FB60FB6823F4F813FB607B688B
:100AF00023F0704323F44073FA681343FB60084A01
:100B0000FB6893600649064B1A6F7B68C3F30B03BF
:100B100013430B671437BD465DF8047B704700BF75
:100B20000038024080B483B000AF0346FB71044A32
:100B3000FB7913600C37BD465DF8047B704700BF3E
:100B40003C0E474280B483B000AF78600B46FB7028
:100B5000FB78002B06D00949084B1A6B7B681343BE
:100B60000B6306E00549054B1A6B7B68DB431340BA
:100B70000B630C37BD465DF8047B704700380240BC
:100B800080B483B000AF78600B46FB70FB78002B1D
:100B900006D00949084B9A6B7B6813438B6306E0C8
:100BA0000549054B9A6B7B68DB4313408B630C371D
:100BB000BD465DF8047B70470038024080B483B0C6
:100BC00000AF78600B46FB70FB78002B06D009491C
:100BD000084B1A6C7B6813430B6406E00549054B10
:100BE0001A6C7B68DB4313400B640C37BD465DF821
:100BF000047B70470038024080B487B000AF0346E2
:100C0000FB710023FB6000237B610023FB74FB79F5
:100C10005B09DBB2FB60FB68012B03D1124B1B6845
:100C20007B6109E0FB68022B03D10F4B1B6F7B61DB
:100C300002E00D4B5B6F7B61FB7903F01F03FB60F0
:100C4000FB687A6922FA03F303F00103002B02D058
:100C50000123FB7401E00023FB74FB7C18461C3766
:100C6000BD465DF8047B70470038024080B483B015
:100C700000AF03463960FB7197F90730002B0BDAA0
:100C80000D49FB7903F00F03043B3A68D2B212011D
:100C9000D2B20B441A7609E0084997F907303A684E
:100CA000D2B21201D2B20B4483F800230C37BD46F6
:100CB0005DF8047B704700BF00ED00E000E100E05C
:100CC00080B582B000AF78607B68B3F1807F01D3DC
:100CD000012311E00A4A7B6823F07F43013B536004
:100CE0004FF0FF300F21FFF7C1FF054B00229A6044
:100CF000034B07221A60002318460837BD4680BD03
:100D000010E000E080B500AF064B00221A60064BF1
:100D10001B68064AA2FB03239B091846FFF7D0FF76
:100D200080BD00BFB8A2012060990120D34D6210A0
:100D300080B400AF064B1B68002B04D0044B1B682B
:100D4000013B034A1360BD465DF8047B704700BF5A
:100D5000B8A2012080B483B000AF7860064A7B68F7
:100D6000136000BF044B1B68002BFBD10C37BD4642
:100D70005DF8047B704700BFB8A2012080B582B047
:100D800000AF00F04DFD0346FB71FB795BB2002B19
:100D9000F7DB0837BD4680BD80B500AF012080215C
:100DA00000F0BAFC80BD00BF80B500AF012000217B
:100DB00000F0B2FC80BD00BF80B500AF0120012172
:100DC00000F0AAFC002000F08DFC0120FFF7C2FF1C
:100DD00080BD00BF80B500AF022000F073FC80BD75
:100DE00080B500AF05207F2100F0D8FC80BD00BF9A
:100DF00080B500AF0520BF2100F0D0FC80BD00BF52
:100E000080B500AF0520202100F0AAFC80BD00BF06
:100E100080B500AF0520EF21082200F0DDFC80BD89
:100E200080B500AF0520FB2100F0B8FC80BD00BFFD
:100E300080B500AF0520FD2100F0B0FC80BD00BFF3
:100E400080B582B000AF0346FB71FB799BB20620F0
:100E5000194600F061FC0837BD4680BD80B500AF83
:100E600021207F2100F09AFC80BD00BF80B500AF3B
:100E70002120202100F074FC80BD00BF80B500AFB0
:100E80002220802100F06CFC80BD00BF80B500AF47
:100E90002220F32100F082FC80BD00BF80B500AFAE
:100EA0002220F721042200F097FC80BD80B500AF1E
:100EB0002220FB21082200F08FFC80BD80B500AF0E
:100EC00022200C2100F04CFC80BD00BF80B500AF9B
:100ED0002220FC2100F062FC80BD00BF80B500AF85
:100EE0002220FD21012200F077FC80BD80B500AFFB
:100EF0002220FE21022200F06FFC80BD80B500AFF1
:100F00002220032100F02CFC80BD00BF80B582B000
:100F100000AF0346FB71FB799BB22920194600F014
:100F2000FBFB0837BD4680BD80B582B000AF0346ED
:100F30000A46FB801346BB80FB882A20194600F036
:100F4000EBFBFB881B0A9BB22B20194600F0E4FB4D
:100F5000BB882C20194600F0DFFBBB881B0A9BB224
:100F60002D20194600F0D8FB0837BD4680BD00BFD4
:100F700080B500AF2E203F2100F010FC80BD00BFE7
:100F800080B500AF2E207F21402200F025FC80BDDF
:100F900080B500AF2E20802100F0E2FB80BD00BFB5
:100FA00080B584B000AF0346FB71FB7903F03F03CB
:100FB000FB73FB7B9BB22E20C0211A4600F00CFC79
:100FC0001037BD4680BD00BF80B500AF2F201F2168
:100FD000802200F001FC80BD80B500AF2F20E3210E
:100FE000102200F0F9FB80BD80B500AF2F20FC215E
:100FF00000F0D4FB80BD00BF80B500AF2F20FD21E5
:10100000012200F0E9FB80BD80B500AF2F20FE215A
:10101000022200F0E1FB80BD80B500AF2F2003214C
:1010200000F09EFB80BD00BF90B583B000AF0446CA
:10103000084611461A462346FB800346BB800B46F2
:101040007B8013463B80FB883020194600F064FB10
:10105000FB881B0A9BB23120194600F05DFBBB8860
:101060003420194600F058FBBB881B0A9BB2352080
:10107000194600F051FB7B883220194600F04CFBEA
:101080007B881B0A9BB23320194600F045FB3B8846
:101090003620194600F040FB3B881B0A9BB23720E4
:1010A000194600F039FB0C37BD4690BD80B500AF46
:1010B00040207F2100F072FB80BD00BF80B500AFF3
:1010C0004020802100F04CFB80BD00BF80B500AF08
:1010D0004020BF2100F062FB80BD00BF80B500AFA3
:1010E0004020DF2100F05AFB80BD00BF80B500AF7B
:1010F0004020F32100F052FB80BD00BF80B500AF5F
:101100004020FD2100F04AFB80BD00BF80B500AF4C
:101110004020FE2100F042FB80BD00BF80B500AF43
:101120005020802100F01CFB80BD00BF80B582B044
:1011300000AF0346FB71FB799BB25120194600F0CA
:10114000EBFA0837BD4680BD90B585B000AF0446C8
:10115000084611461A462346FB800346BB800B46D1
:101160007B8013463B80FB885420194600F0D4FA5C
:10117000FB881B0A9BB25520194600F0CDFABB88AC
:101180005820194600F0C8FABB881B0A9BB25920A8
:10119000194600F0C1FA7B885620194600F0BCFAC7
:1011A0007B881B0A9BB2FB73572000F0C9FA0346E9
:1011B000BB73BB7B23F07F03BB73FA7BBB7B134307
:1011C000FB73FB7B9BB25720194600F0A5FA3B88C6
:1011D0005A20194600F0A0FA3B881B0A9BB2FB7309
:1011E0005B2000F0ADFA0346BB73BB7B23F07F03AB
:1011F000BB73FA7BBB7B1343FB73FB7B9BB25B2014
:10120000194600F089FA1437BD4690BD80B582B00A
:1012100000AF03460A46FB801346BB80FB885C2078
:10122000194600F079FAFB881B0A9BB25D2019462B
:1012300000F072FABB885E20194600F06DFABB8898
:101240001B0A9BB25F20194600F066FA0837BD46BC
:1012500080BD00BF80B582B000AF0346FB80FB8835
:10126000DB0A9BB26020194600F056FAFB8803F4B3
:10127000FC635B119BB26120194600F04DFAFB88BC
:1012800003F01F039BB26220194600F045FA0837AD
:10129000BD4680BD80B582B000AF0346FB80FB88B1
:1012A000DB0A9BB26320194600F036FAFB8803F490
:1012B000FC635B119BB26420194600F02DFAFB8899
:1012C00003F01F039BB26520194600F025FA08378A
:1012D000BD4680BD90B583B000AF044608461146B8
:1012E0001A462346FB800346BB800B467B80134691
:1012F0003B80FB889120194600F00EFAFB881B0A00
:101300009BB29220194600F007FABB889320194639
:1013100000F002FABB881B0A9BB29420194600F029
:10132000FBF97B889520194600F0F6F97B881B0AAB
:101330009BB29620194600F0EFF93B88972019469A
:1013400000F0EAF93B881B0A9BB29820194600F08E
:10135000E3F90C37BD4690BD80B483B000AF786030
:101360004FF020407B681B687A6851687A68926801
:1013700011437A68D26811437A68126911437A6816
:10138000526911437A68926911437A68D2691143AC
:101390007A68126A11437A68526A11437A68926ACB
:1013A00011437A68D26A11437A68126B0A4340F893
:1013B00023207B689B68082B0DD14FF020417B6870
:1013C0001B684FF020407A68126850F8222042F0E3
:1013D000400241F823204FF020407B681B68013316
:1013E0007A68526B11687A68526B52681201114325
:1013F0007A68526B9268120211437A68526BD26813
:10140000120411437A68526B1269120511437A680B
:10141000526B5269120611437A68526B92690A4301
:1014200040F823207B68DB6AB3F5804F20D1164853
:101430007B681B687A68926B11687A68926B526855
:10144000120111437A68926B9268120211437A6812
:10145000926B1269120511437A68926B52691206F7
:1014600011437A68926B92690A4340F8232006E0A0
:10147000054A7B681B686FF0704142F823100C37F7
:10148000BD465DF8047B7047040100A080B483B0C2
:1014900000AF78600B46FB70FB78002B0CD04FF050
:1014A00020414FF020427B6852F8233043F0010284
:1014B0007B6841F823200BE04FF020414FF02042A1
:1014C0007B6852F82320054B13407A6841F822309C
:1014D0000C37BD465DF8047B704700BFFEFF0F0070
:1014E00080B487B000AF7860396000237B6100234F
:1014F0003B610023FB6000237B6176E07B69012276
:1015000002FA03F33B613B681A683B691340FB60D6
:10151000FA683B699A4265D17B681A687B695B000F
:10152000194603238B40DB431A407B681A607B68B3
:101530001A683B681B7919467B695B0001FA03F363
:101540001A437B681A603B681B79012B03D03B6808
:101550001B79022B2ED17B689A687B695B00194648
:1015600003238B40DB431A407B689A607B689A6850
:101570003B685B7919467B695B0001FA03F31A4308
:101580007B689A607B685A687B699BB21946012325
:101590008B40DB431A407B685A607B685B683A6823
:1015A000927911467A6992B201FA02F292B21A4322
:1015B0007B685A607B68DA687B699BB25B000321B9
:1015C00001FA03F3DB431A407B68DA607B68DA6870
:1015D0003B68DB7919467B695B0001FA03F31A4328
:1015E0007B68DA607B6901337B617B690F2B85D96E
:1015F0001C37BD465DF8047B704700BF80B483B0E4
:1016000000AF78600B467B807B687A881A830C3742
:10161000BD465DF8047B704780B483B000AF78604E
:101620000B467B807B687A885A830C37BD465DF811
:10163000047B704780B485B000AF78600B467B8038
:1016400013467B700023FB600023BB607B787A88A5
:1016500002F0070292009340FB607B88DB089BB29C
:1016600018467B88DB089BB21A467B68083253F821
:1016700022207B8803F007039B0019460F238B4031
:10168000DB4302EA03017B6800F1080243F8221001
:101690007B88DB089BB21A467B68083253F822200D
:1016A000FB681343BB607B88DB089BB21A467B68F0
:1016B0000832B96843F822101437BD465DF8047B40
:1016C000704700BF80B483B000AF0346FB80044A7C
:1016D000FB8813800C37BD465DF8047B704700BF64
:1016E0000000106080B483B000AF0346FB804FF071
:1016F000C042FB8813800C37BD465DF8047B704701
:1017000080B400AF4FF0C0431B889BB21846BD4663
:101710005DF8047B704700BF80B582B000AF034620
:101720000A46FB801346BB80FB881846FFF7CAFFBA
:10173000BB881846FFF7D6FF0837BD4680BD00BFFF
:1017400080B582B000AF0346FB80FB881846FFF7E8
:10175000B9FFFFF7D5FF034618460837BD4680BDE1
:1017600080B584B000AF03460A46FB801346BB80B9
:10177000FB881846FFF7A6FFFFF7C2FF0346FB8171
:10178000FA89BB881343FB81FA88FB891046194606
:10179000FFF7C2FF18461037BD4680BD80B584B044
:1017A00000AF03460A46FB801346BB80FB88184601
:1017B000FFF788FFFFF7A4FF0346FB81FA89BB8888
:1017C0001340FB81FA88FB8910461946FFF7A4FFF6
:1017D00018461037BD4680BD80B584B000AF0346C3
:1017E000FB800B46BB8013467B80FB881846FFF7C7
:1017F00069FFFFF785FF0346FB81FA89BB88134029
:10180000FB81FA897B881343FB81FA88FB891046A8
:101810001946FFF781FF18461037BD4680BD00BF4F
:1018200080B400AF034B1B889BB21846BD465DF8E1
:10183000047B70470000106080B500AF114A114B67
:101840001B6843F0010313600E4B00229A600D4A9F
:101850000C4B1B6823F0847323F480331360094B13
:10186000094A5A60074A074B1B6823F48023136018
:10187000044B0022DA6000F00BF8044B4FF00062DA
:101880009A6080BD003802401030002400ED00E076
:1018900080B483B000AF00237B6000233B60354AF7
:1018A000344B1B6843F480331360324B1B6803F4E2
:1018B00000333B607B6801337B603B68002B03D1C6
:1018C0007B68B3F5A06FF0D12A4B1B6803F400339B
:1018D000002B02D001233B6001E000233B603B680A
:1018E000012B42D1234A234B1B6C43F080531364DA
:1018F000214A214B1B6843F4804313601D4A1D4B52
:101900009B6893601B4A1B4B9B6843F400439360A6
:10191000184A184B9B6843F4A0539360154B174A21
:101920005A60144A134B1B6843F08073136000BF66
:10193000104B1B6803F00073002BF9D0104B40F2E2
:1019400005621A600B4A0B4B9B6823F003039360FC
:10195000084A084B9B6843F00203936000BF054BA5
:101960009B6803F00C03082BF9D10C37BD465DF8DA
:10197000047B704700380240007000401954400753
:10198000003C024080B485B000AF78600B4B1B6810
:10199000002B02D1094B0A4A1A60084B1B68FB60F6
:1019A000064B1A687B681344044A1360FB681846A8
:1019B0001437BD465DF8047B704700BF04A20120C8
:1019C000E0A2012080B588B000AF0346FB7101237F
:1019D000FB774FF080500121FFF7F0F80120FEF770
:1019E0004BFC132000F0B4FFB861BB6944F2213214
:1019F00093421AD1334B44F221321A60FB79002B07
:101A000002D1002000F0F2F900F026FD4FF48040F2
:101A100001F026F84FF4800000F02CFC07F10803D9
:101A20001846002100F092F940E0BB6941F23422EF
:101A300093421AD1234B41F234221A60FB79002BD6
:101A400002D1002000F0D2F900F006FD4FF48040F2
:101A500001F006F84FF4800000F00CFC07F10803D9
:101A60001846002100F072F920E0164B00221A609F
:101A70000023FB77FB79184600F0B8F90123FB73CC
:101A80000123BB7301233B7400237B7400237B730E
:101A900000233B7300233B7207F108031846002123
:101AA00000F012F8074B41F234221A60FB7F002B42
:101AB00001D1002301E0034B1B6818462037BD46C7
:101AC00080BD00BF08A2012090B587B000AF78604C
:101AD0000B46FB70FB78012B77D17B68DB791B0908
:101AE000DBB21A46920013445B00DAB27B68DB7902
:101AF00003F00F03DBB21344DBB2FB737B681B7A8A
:101B00001B09DBB21A46920013445B00DAB27B6811
:101B10001B7A03F00F03DBB21344DBB23B747B6828
:101B20005B7A1B09DBB21A46920013445B00DAB2FF
:101B30007B685B7A03F00F03DBB21344DBB27B7488
:101B40007B685B791B09DBB21A46920013445B0089
:101B5000DAB27B685B7903F00F03DBB21344DBB2CC
:101B60007B737B681B791B09DBB21A469200134416
:101B70005B00DAB27B681B7903F00F03DBB213441E
:101B8000DBB23B737B681B781B09DBB21A46920001
:101B900013445B00DAB27B681B7803F00F03DBB2FF
:101BA0001344DBB23B727B689B791B09DBB21A469C
:101BB000920013445B00DAB27B689B7903F00F0359
:101BC000DBB21344DBB2BB7314E07B68DB79FB73DD
:101BD0007B681B7A3B747B685B7A7B747B685B7980
:101BE0007B737B681B793B737B681B783B727B68DC
:101BF0009B79BB737B7C632B4BD83B7C002B48D001
:101C00003B7C0C2B45D8FB7B002B42D0F97B7B7CAB
:101C100003F00303002B0ED17B7C03F5FA62454BE6
:101C200083FB02035811D317C31A642000FB03F38C
:101C3000D31A002B0FD17B7C03F5FA623D4B83FB5B
:101C40000203D811D317C31A4FF4C87000FB03F373
:101C5000D31A002B01D1012200E000223B7C581E48
:101C6000354C13465B0013449B00034423441B780C
:101C700099420ED87B7B172B0BD83B7B3B2B08D88C
:101C80003B7A3B2B05D8BB7B002B02D0BB7B072BC1
:101C900001D901234AE07B685A79284B1A707B6886
:101CA0001A79264B5A707B681A78244B9A707B6895
:101CB000DA79234B9A707B681A7A214B5A707B68C9
:101CC0005A7A1F4BDA707B689A791D4B1A701D4B3C
:101CD00000221A601B4B1F225A601A4B40F2FF323F
:101CE0009A60184800F034FBFB78012B04D10120E6
:101CF000124900F0EDFB03E00020104900F0E8FB82
:101D0000FB78012B04D101200D4900F0B1FC03E068
:101D100000200B4900F0ACFC0B4B1B68002B04D0DF
:101D2000132044F2213100F0F9FD002318461C373E
:101D3000BD4690BD1F85EB5174990120BCA20120C6
:101D4000CCA20120C0A2012008A2012080B584B04D
:101D500000AF78600B46FB70FB78002B04D10020AD
:101D60001F4900F037FC03E001201D4900F032FC60
:101D70001B4B1A787B685A71194B5A787B681A7119
:101D8000174B9A787B681A70164B9B6A9AB27B68DD
:101D90005A80FB78002B04D10020134900F0EEFCA0
:101DA00003E00120104900F0E9FC0F4BDA787B6872
:101DB0005A720D4B5A787B681A720B4B9A787B6873
:101DC000DA71094B1A787B689A71786800F0E2F84A
:101DD000F8607B68FA68DA601037BD4680BD00BFE6
:101DE000BCA2012000280040CCA2012080B582B016
:101DF00000AF0346FB71FB79002B0ED10120FEF7EB
:101E000053FE00BF6120FEF7F7FE0346002BF9D01A
:101E10004FF40070FEF758FE10E0FB79012B0DD156
:101E20000120FEF721FE00BF4120FEF7E5FE03463C
:101E3000002BF9D04FF48070FEF746FE0120FEF72C
:101E400071FE00F009FB132041F2342100F066FD21
:101E50000837BD4680BD00BF80B584B000AF0346E3
:101E6000FB714FF4800000F005FA002000F00CFD3B
:101E70004FF48040002100F083FD424B03221A7092
:101E8000404B04225A703F4B00229A703D4B002277
:101E9000DA703C4800F0FCF93B4B4FF480021A60CA
:101EA000394B00221A71384B08225A71364B0022E6
:101EB0009A71354800F06CF9FB79002B5FD0314BFB
:101EC0000122DA702F4800F0E3F92F4B01229A71BA
:101ED0002D4800F05DF9002000F0D6FCFB79012BC5
:101EE00002D12A4BFB603CE0FB79022B02D1284B4C
:101EF000FB6036E0FB79032B03D14EF6FF73FB60EA
:101F00002FE0FB79042B03D149F6FF73FB6028E037
:101F1000FB79052B03D144F6FF73FB6021E0FB79CD
:101F2000062B03D141F6FF73FB601AE0FB79072B08
:101F300003D140F6FF73FB6013E0FB79082B03D15C
:101F400040F2FF73FB600CE0FB79092B03D140F2F8
:101F5000FF33FB6005E0FB790A2B02D140F2FF134F
:101F6000FB60012000F058FCF86800F075FC4FF4AD
:101F70008040012100F004FD012000F085FC1037B5
:101F8000BD4680BDD0A20120D4A20120FFBF030026
:101F9000FFDF010080B487B000AF786000237B6171
:101FA0000023FB607B685B7A9BB203F5FA637B815D
:101FB0007B8940F2B172934201D8002396E040F24F
:101FC000B2737B8229E07B8A03F003039BB2002B70
:101FD0000BD17B8A484AA2FB03125209642101FB00
:101FE00002F29B1A9BB2002B0CD17B8A424AA2FBC5
:101FF0000312D2094FF4C87101FB02F29B1A9BB283
:10200000002B02D14FF4B77301E040F26D137A69EF
:1020100013447B617B8A01337B827A8A7B899A4273
:10202000D1D301237B8232E07B8903F003039BB28F
:10203000002B0BD17B89304AA2FB03125209642189
:1020400001FB02F29B1A9BB2002B0CD17B892A4A1E
:10205000A2FB0312D2094FF4C87101FB02F29B1AD2
:102060009BB2002B01D1012200E000227B8A591E85
:10207000224813465B0013449B000B4403441B7827
:102080001A467B6913447B617B8A01337B827B68C0
:102090001B7A9BB27A8A9A42C6D37B68DB791A464E
:1020A0007B691344013B7B617B69154A02FB03F3A7
:1020B000FB607B685B791A464FF4616303FB02F3B4
:1020C0001A46FB681344FB607B681B791A4613466B
:1020D0001B019B1A9B001A46FB681344FB607B683C
:1020E0001B781A46FB681344FB60FB6818461C37D4
:1020F000BD465DF8047B70471F85EB517499012044
:102100008051010080B400AFBD465DF8047B70478C
:1021100080B400AFBD465DF8047B704780B500AF6A
:102120004FF4804000F068FC0346002B05D04FF4CC
:10213000804000F095FCFEF73BFC024B4FF4800220
:102140005A6180BD003C014080B500AF4FF4805023
:1021500000F052FC0346002B05D04FF4805000F0F5
:102160007FFCFFF7CFFF4FF4005000F045FC034623
:10217000002B05D04FF4005000F072FCFFF7C8FFB1
:10218000024B4FF400325A6180BD00BF003C014059
:1021900080B485B000AF78600023FB60344BFB60F7
:1021A0007B689B79002B4FD03149314B1A687B6893
:1021B0001B68DB4313400B602D492D4B5A687B682D
:1021C0001B68DB4313404B607B681B791A46FB6836
:1021D0001344FB60FB68FA6811687A6812680A4366
:1021E0001A602349224B9A687B681B68DB431340C3
:1021F0008B601F491E4BDA687B681B68DB4313400A
:10220000CB607B685B79102B0ED11949184B9A680B
:102210007B681B6813438B601549154BDA687B6834
:102220001B681343CB601DE0114BFB607B685B793F
:102230001A46FB681344FB60FB68FA6811687A6809
:1022400012680A431A600DE07B681B791A46FB6826
:102250001344FB60FB68FA6811687A681268D2431D
:102260000A401A601437BD465DF8047B704700BF12
:10227000003C014080B483B000AF7860034A7B68C3
:1022800053610C37BD465DF8047B7047003C01404C
:1022900080B485B000AF78600023FB730023BB736C
:1022A0000F237B737B68DB78002B38D0264BDB68F1
:1022B000DB4303F4E0631B0AFB73FB7BC3F1040302
:1022C000BB737A7BFB7B42FA03F37B737B685B789F
:1022D0001A46BB7B02FA03F3FB737B689A787B7B1D
:1022E0001340DAB2FB7B1343FB73FB7B1B01FB73D5
:1022F000164A7B681B781344FA7B83F80023134A41
:102300007B681B785B09DBB218467B681B7803F09F
:102310001F03012101FA03F342F820300FE00B49BB
:102320007B681B785B09DBB218467B681B7803F07F
:102330001F0301229A4000F1200341F823201437A3
:10234000BD465DF8047B704700ED00E000E100E071
:1023500080B584B000AF78600023FB73194BCA22AC
:102360005A62184B53225A6200F02EF80346002B93
:1023700002D10023FB731CE0124A124B9B6823F02E
:10238000400393600F490F4B9A687B681B681343A7
:102390008B600C4A7B689B6813610A49094B1A6978
:1023A0007B685B681B0413430B6100F047F8012353
:1023B000FB73044BFF225A62FB7B18461037BD4665
:1023C00080BD00BF0028004080B485B000AF00236E
:1023D0007B600023FB730023BB60174BDB6803F0BB
:1023E0004003002B1ED1144B4FF0FF32DA60124B2A
:1023F000DB6803F04003BB607B6801337B607B6874
:10240000B3F5803F02D0BB68002BF0D00A4BDB68ED
:1024100003F04003002B02D00123FB7304E00023F0
:10242000FB7301E00123FB73FB7B18461437BD46A9
:102430005DF8047B704700BF0028004080B400AF07
:10244000044A044BDB6823F08003D360BD465DF88B
:10245000047B70470028004080B485B000AF0023A3
:102460007B600023FB730023BB60184BCA225A62B7
:10247000164B53225A62154A144BDB6823F0A00313
:10248000D360124BDB6803F02003BB607B68013331
:102490007B607B68B3F5003F02D0BB68002BF0D0B7
:1024A0000A4BDB6803F02003002B02D00123FB73EF
:1024B00001E00023FB73054BFF225A62FB7B1846A9
:1024C0001437BD465DF8047B704700BF002800400C
:1024D00090B585B000AF786039600023FB600023C1
:1024E000FB727B68002B09D1394B9B6803F04003DA
:1024F000002B14D13B680022DA7010E0344B9B684B
:1025000003F04003002B07D03B681B78184600F00F
:10251000E1FA0346FB6002E03B680022DA707B6868
:10252000002B0FD03B681B781A043B685B781B02BA
:1025300013433A6892781A433B68DB781B041343D1
:10254000FB601BE03B681B78184600F0A5FA0346C9
:102550001C043B685B78184600F09EFA03461B0299
:102560001C433B689B78184600F096FA034644EA01
:1025700003023B68DB781B041343FB60144BCA2245
:102580005A62134B53225A62FFF71EFF0346002B79
:1025900002D10023FB7212E00D4AFB6803F07F3387
:1025A00023F0FE431360FFF749FFFFF755FF034693
:1025B000002B02D10023FB7201E00123FB72044BCC
:1025C000FF225A62FB7A18461437BD4690BD00BF01
:1025D0000028004080B584B000AF786039600023E7
:1025E000FB60224B1B6803F07F3323F0FE43FB604C
:1025F000FB6803F47C131B0CDAB23B681A70FB68AF
:1026000003F4FE431B0ADAB23B685A70FB68DBB284
:1026100003F07F03DAB23B689A70FB6803F480032F
:102620001B0CDAB23B68DA707B68002B1AD13B686E
:102630001B78184600F04EFA03461A463B681A709B
:102640003B685B78184600F045FA03461A463B683B
:102650005A703B689B78184600F03CFA03461A46CD
:102660003B689A701037BD4680BD00BF002800400F
:1026700090B585B000AF786039600023FB6000231F
:10268000FB727B68002B0ED13B685B7803F0100374
:10269000002B08D03B685B7823F01003DBB20A33D1
:1026A000DAB23B685A707B68002B0DD03B685B78D0
:1026B000184600F00FFA0346FB603B689B7818460B
:1026C00000F008FA0346FB607B68002B0FD03B68E4
:1026D000DB781A043B685B781B0213433A689278F4
:1026E0001A433B681B785B031343FB601BE03B68AA
:1026F000DB78184600F0D0F903461C043B685B7891
:10270000184600F0C9F903461B021C433B689B783E
:10271000184600F0C1F9034644EA03023B681B78FF
:102720005B031343FB60144BCA225A62124B5322C1
:102730005A62FFF749FE0346002B02D10023FB72C9
:1027400012E00D4AFB6823F07F4323F0C00353607F
:10275000FFF774FEFFF780FE0346002B02D1002333
:10276000FB7201E00123FB72034BFF225A62FB7AEA
:1027700018461437BD4690BD0028004080B584B08F
:1027800000AF786039600023FB60224B5B6823F068
:102790007F4323F0C003FB60FB6803F47F031B0C43
:1027A000DAB23B68DA70FB6803F4F8531B0ADAB25A
:1027B0003B685A70FB68DBB203F03F03DAB23B6858
:1027C0009A70FB6803F460435B0BDAB23B681A70E3
:1027D0007B68002B1AD13B68DB78184600F07AF949
:1027E00003461A463B68DA703B685B78184600F08F
:1027F00071F903461A463B685A703B689B78184645
:1028000000F068F903461A463B689A701037BD46D7
:1028100080BD00BF0028004080B483B000AF786066
:102820000C4BCA225A620B4B53225A62094A094B7B
:102830009B6823F0070393600649064B9A687B6800
:1028400013438B60034BFF225A620C37BD465DF881
:10285000047B70470028004080B483B000AF7860EC
:10286000084BCA225A62074B53225A62054A7B68B8
:102870005361044BFF225A620C37BD465DF8047B5E
:10288000704700BF0028004080B487B000AF034607
:10289000FB710023FB6000233B610023FB751E4B93
:1028A000CA225A621C4B53225A62FB79002B08D071
:1028B000194A194B9B6843F4806393600123FB75AD
:1028C0001FE0154A144B9B6823F480639360124BFE
:1028D000DB6803F004033B61FB680133FB60FB68CA
:1028E000B3F5803F02D03B69002BF0D00A4BDB6888
:1028F00003F00403002B02D10023FB7501E0012348
:10290000FB75054BFF225A62FB7D18461C37BD46FE
:102910005DF8047B704700BF0028004080B485B09C
:1029200000AF786039600023FB60084BFB607B6878
:102930009A00FB681344FB60FB681A463B6813600F
:102940001437BD465DF8047B704700BF5028004037
:1029500080B485B000AF78600023FB60074BFB605C
:102960007B689A00FB681344FB60FB681B68184691
:102970001437BD465DF8047B704700BF5028004007
:1029800080B483B000AF78600B46FB70194BCA224D
:102990005A62184B53225A62FB78002B10D015490B
:1029A000144B9A687B6823F0040313438B6011492E
:1029B000104B1A6C7B6803F0040313430B6411E0A3
:1029C0000C490C4B9A687B6823F00403DB431340EB
:1029D0008B600849074B1A6C7B6803F00403DB43E8
:1029E00013400B64034BFF225A620C37BD465DF85F
:1029F000047B70470028004080B487B000AF786047
:102A00000023FB7500233B610023FB60134B1B6C11
:102A100003F004033B61114B9A687B681A407B68A2
:102A2000D90B3B690B401343FB600C4BDA687B68A6
:102A30001B0913403B61FB68002B06D03B699BB22E
:102A4000002B02D00123FB7501E00023FB75FB7D09
:102A500018461C37BD465DF8047B704700280040CF
:102A600080B485B000AF78600023FB607B681B09F1
:102A7000FB600849FB689BB243F08003DA43054BD7
:102A8000DB6803F080031343CB601437BD465DF869
:102A9000047B70470028004080B485B000AF034637
:102AA000FB710023FB7305E0FB7B0133FB73FB79B8
:102AB0000A3BFB71FB79092BF6D8FB7B1B01DAB2D1
:102AC000FB791343DBB218461437BD465DF8047B2F
:102AD000704700BF80B485B000AF0346FB71002390
:102AE000FB73FB791B09DBB21A46920013445B00AF
:102AF000FB73FB7903F00F03DAB2FB7B1344DBB209
:102B000018461437BD465DF8047B704780B485B025
:102B100000AF786039600023FB817B681B88FB81F4
:102B20007B68284A934213D07B68274A93420FD090
:102B30007B68B3F1804F0BD07B68244A934207D067
:102B40007B68234A934203D07B68224A934208D190
:102B5000FB8923F07003FB813B685A88FB89134390
:102B6000FB817B681C4A93420CD07B681B4A9342D2
:102B700008D0FB8923F44073FB813B681A89FB89E9
:102B80001343FB817B68FA891A803B685A687B682B
:102B9000DA623B681A887B681A857B68094A934227
:102BA00003D07B68084A934204D13B689B7A9AB26F
:102BB0007B681A867B6801229A821437BD465DF8CD
:102BC000047B704700000140000401400004004005
:102BD00000080040000C00400010004000140040BD
:102BE00080B483B000AF78600B46FB70FB78002B9D
:102BF00008D07B681B889BB243F001039AB27B68C4
:102C00001A8007E07B681B889BB223F001039AB20D
:102C10007B681A800C37BD465DF8047B704700BFA7
:102C200080B485B000AF7860396000237B810023D9
:102C3000FB810023BB817B681B8C9BB223F00103CB
:102C40009AB27B681A847B681B8CFB817B689B88AB
:102C5000BB817B681B8B7B817B8923F070037B812D
:102C60007B8923F003037B813B681A887B891343AC
:102C70007B81FB8923F00203FB813B689A89FB89F6
:102C80001343FB813B685A88FB891343FB817B68B4
:102C90001E4A934203D07B681D4A934223D1FB898D
:102CA00023F00803FB813B68DA89FB891343FB812E
:102CB000FB8923F00403FB813B689A88FB8913435B
:102CC000FB81BB8923F48073BB81BB8923F4007330
:102CD000BB813B681A8ABB891343BB813B685A8A14
:102CE000BB891343BB817B68BA899A807B687A89E8
:102CF0001A833B689A687B685A637B68FA891A84EE
:102D00001437BD465DF8047B704700BF00000140EA
:102D10000004014080B485B000AF78600B467B8032
:102D20000023FB817B681B8BFB81FB8923F008035D
:102D3000FB81FA897B881343FB817B68FA891A83BC
:102D40001437BD465DF8047B704700BF0EB4F0B584
:102D50009CB021AB0F4953F8042B019305466FF04B
:102D60000044086802954FF402774FF6FF7602A9F7
:102D70000695ADF8147004940794ADF8166000F051
:102D80000BF8029B00221A701CB0BDE8F04003B0A3
:102D9000704700BFB89D01202DE9F04FC1B08946B2
:102DA0000A920E93089002F023FA036817931846CC
:102DB00003F0CEF8B9F80C3018901A0604D5D9F8FB
:102DC0001030002B01F08C80002330AF139325933B
:102DD0002493169319930B932397149315933C46BE
:102DE0004E460A9D2B78002B00F0A980252B02D19E
:102DF000A5E0252B03D015F8013F002BF9D10A9B44
:102E0000EB1A73B1249A25990A982060013219446B
:102E1000072A63602591249272DC08340B9A1A44C5
:102E20000B922B78002B00F0B5870023691C6D787E
:102E30008DF86F301A460C9307934FF0FF3A4B1CF6
:102E4000A5F12001582900F2D983DFE811F07002C2
:102E5000D703D7037403D703D703D703D703D70305
:102E6000D703F0020D02D703F4011102D7037B034D
:102E7000BA02BA02BA02BA02BA02BA02BA02BA0272
:102E8000BA02D703D703D703D703D703D703D70390
:102E9000D703D703D703C9028B03D7038B03D70309
:102EA000D703D703D7036D03D703D7030503D7038E
:102EB000D703D703D703D7032303D703D7033D0390
:102EC000D703D703D703D703D703D703D703D70332
:102ED000D703D70358032C028B038B038B03FE020B
:102EE0002C02D703D703E602D7037E02FB01C003FF
:102EF0007702D7039202D7037A00D703D7034A0297
:102F000008980793314623AA03F050F850B93C467D
:102F1000079B83E70898314623AA03F047F8002867
:102F200000F08581B146B9F80C3013F0400F0B9BCF
:102F300018BF4FF0FF33184641B0BDE8F08F0A9D2F
:102F40006FE70A93079B980640F1AD820E9B03F151
:102F5000070929F0070303F10802D3E900890E925B
:102F600001234FF0000C8DF86FC0CDF844A0BAF1EA
:102F7000000F03DB079A22F08002079258EA090249
:102F800040F04C83BAF1000F00F05184012B00F0A7
:102F90004F83022B00F0908439464FEAD80242EA70
:102FA00049724FEAD90008F0070381469046303352
:102FB00058EA090201F8013DEFD1079A1091D207B2
:102FC00000F144857B1A0D930D9A92455346B8BF84
:102FD0001346099300231293BCF1000F02D0099B02
:102FE00001330993079B13F002030F9302D0099B4F
:102FF00002330993079B13F0840940F00C830C9B68
:10300000099AC2EB0308B8F1000F40F30483B8F14A
:10301000100F2599249ADFF844A529DD53464FF077
:10302000100BC246A8461D4606E0AAF1100ABAF1E6
:10303000100F04F1080417DD01321031072A259121
:10304000249284E82008F0DD0898314623AA02F093
:10305000ADFF00287FF466AFAAF1100ABAF1100F95
:103060002599249A3C46E7DC2B464546D0469A46AD
:10307000013208EB010B072ACDF894B02492C4F872
:1030800000A0C4F8048000F37B849DF86FC008346E
:10309000BCF1000F0FD0249B01330BF1010B0DF19C
:1030A0006F010122072BCDF894B0249384E8060029
:1030B00000F3DA8308340F9B73B1249B01330BF1C7
:1030C000020B1CA90222072BCDF894B0249384E8AC
:1030D000060000F3D5830834B9F1800F00F01183A6
:1030E000119B0D9AC2EB030ABAF1000F3CDDBAF155
:1030F000100F249ADFF868942BDD49465B46A946F9
:103100004FF01008DDF820B00D4606E0AAF1100AD5
:10311000BAF1100F04F1080417DD01321033072A49
:103120002593249284E82001F0DD5846314623AAF5
:1031300002F03CFF00287FF4F5AEAAF1100ABAF1C4
:10314000100F259B249A3C46E7DC9B462B464D46B8
:1031500099460132D344072ACDF894B0249284E8EA
:10316000000600F375830834079BD90500F16C82D3
:10317000249B0D99109A226001338B44072BCDF8C4
:1031800094B06160249300F346830834079B5A0788
:1031900041D50C9B099A9D1A002D3CDD102D249BD6
:1031A000DFF8B8A323DD4FF010085A46DDF8209071
:1031B00004E0103D102D04F1080417DD0133103236
:1031C000072B25922493C4F800A0C4F80480F0DDF6
:1031D0004846314623AA02F0E9FE00287FF4A2AE59
:1031E000103D102D259A249B3C46E7DC9346013385
:1031F000AB44072BCDF894B02493C4F800A06560CD
:1032000009DD0898314623AA02F0D0FE00287FF499
:1032100089AEDDF894B00B9B099A0C998A42ACBF39
:103220009B185B180B93BBF1000F7FF473AE002368
:1032300024933C46D5E5194607981D7840F00400D4
:103240000790FCE50A93079B13F0200300F00E8122
:103250000E9B03F1070929F0070303F10802D3E9E4
:1032600000890E9200237CE61D7819462B22E6E5A4
:103270001D782A2D03F1010100F0AD87A5F1300082
:1032800009280B464FF0000A3FF6DAAD13F8015B50
:103290000AEB8A0A00EB4A0AA5F130000928F5D9A1
:1032A0004AEAEA7ACCE50A93079B8DF86F209B06E1
:1032B00040F1A1800E9B03F1070929F00709D9E924
:1032C000002309F108010E9190469946002A73F1F6
:1032D0000003C0F20B849DF86FC0CDF844A0012319
:1032E00045E60A939B4B1693079B8DF86F209B0630
:1032F00040F1F3800E9B03F1070929F00703D3E99E
:10330000008903F108020E92079BD90740F1F5806E
:1033100058EA090300F0F180079A8DF871503023C4
:1033200042F002028DF870300792022319E61D78F0
:103330001946002A7FF483AD202280E5079941F0E9
:10334000200107911D78194679E50A93079B8DF8AE
:103350006F209A0640F1A1840B990E9A4FEAE17909
:10336000136808468846043249460E92C3E90001B4
:1033700037E50E9A0A93136810934FF0000B8DF8FF
:103380006FB002F10409002B00F03B86BAF1000F88
:103390001098C0F2E9855946524602F0BFF900285C
:1033A00000F06C86109BCDF844B0C31A0D93CDF895
:1033B000389023EAE3730993CDF848B09DF86FC0C5
:1033C0000AE6A5F13000002113F8015B01EB810151
:1033D00000EB4101A5F130000928F5D90C912FE54A
:1033E0000A93079B8DF86F2043F010030793079B08
:1033F0009B063FF55FAF079BD80600F16883079BEC
:10340000590640F164830E99B1F9008004314FEA06
:10341000E87942464B460E9158E71D7807996C2D86
:1034200000F0CB8441F010010791194607E50E9D8D
:1034300029680C9108460028294601F10401C0F2D0
:10344000B5840E911D781946F9E4079941F04001C1
:1034500007911D781946F2E40A93079B43F0100385
:103460000793079B13F020037FF4F2AE079A12F044
:10347000100240F01983079B13F0400300F01483FF
:103480000E9913460A460432B1F800800E924FF0AE
:10349000000966E50A93079B43F010030793079B17
:1034A00098063FF553AD079BD90600F10683079BAD
:1034B0005A0640F102830E9AB2F8008004324FF0AF
:1034C000000901230E924CE50A93234B1693079BA8
:1034D0008DF86F209B063FF50DAF079BD80640F196
:1034E000CD830E9A13461B689846079B0432D90772
:1034F0000E924FF000093FF50BAF022331E50E9914
:103500000A930A688DF898200023012204319C4612
:1035100009920E918DF86F3026ABCDF844C0CDF8EE
:1035200048C00D9210935DE5079941F0080107919D
:103530001D78194683E4079941F0010107911D7830
:1035400019467CE4079941F0800107911D781946DE
:1035500075E400BFA07700088C770008C0770008EA
:103560006C7700080A930E9B8DF86F2003F1070912
:1035700029F0070303F108020E921A6814925B689F
:1035800015931599149802F0A5FC0128D3461498B8
:10359000159940F059830022002303F0B1FD002863
:1035A00040F064859DF86FC0079BBE4ADFF800E3DA
:1035B00023F080030793134603210020472DD8BF33
:1035C00073460991119010930D91129004E50E9895
:1035D00007990A93302203688DF8702002467825F7
:1035E00041F0020104329846AF4B169307910E92B8
:1035F0004FF000098DF871500223B2E40A938DF860
:103600006F20002D00F0C683002301229C46099202
:103610008DF898507EE7DDF894B039E5012B7FF402
:10362000B8ACB9F1000F08BFB8F10A0F80F01C82E6
:103630000DF5807B08F130080BF8418DCBEB0703CB
:103640000D93CDF840B0BFE4652D40F3A0801498F1
:1036500015990022002303F049FD002800F0458160
:10366000249B924A226001330BF1010B0122072BAC
:10367000CDF894B02493626000F3348308341D9B2A
:10368000139A934203DB079BDA077FF57FAD249BF8
:103690001899179A226001338B44072BCDF894B008
:1036A0006160249300F390830834139B5D1E002D0A
:1036B0007FF76CAD102D249BDFF8F89140F3BA81B1
:1036C0004FF010085A46DDF820A004E00834103D01
:1036D000102D40F3AE8101331032072B2592249335
:1036E000C4F80090C4F80480F0DD5046314623AAA7
:1036F00002F05CFC00287FF415AC259A249B3C4624
:10370000E5E70C9B099AC2EB030ABAF1000F7FF7B9
:10371000E7ACBAF1100F249ADFF898912BDD4946F7
:103720005B46A9464FF01008DDF820B00D4606E0D4
:10373000AAF1100ABAF1100F04F1080417DD0132E2
:103740001033072A2593249284E82001F0DD58469F
:10375000314623AA02F02AFC00287FF4E3ABAAF149
:10376000100ABAF1100F259B249A3C46E7DC9B46D1
:103770002B464D4699460132D344072ACDF894B0E2
:10378000249284E8000600F352820834A8E4139BD4
:10379000249D012B40F32082109B236001350BF107
:1037A00001030122072D25932495626000F32682F0
:1037B000083418996160013503EB010B072D179B45
:1037C000CDF894B02495236000F3248208340023BC
:1037D00014981599002203F089FC139B002840F0EF
:1037E000DE80109A013B013501329B44072D249560
:1037F000CDF894B02260636000F30E810834199A0A
:103800006260013593441FAB072DCDF894B0249529
:1038100023607FF7BAAC0898314623AA02F0C6FBB2
:1038200000287FF47FABDDF894B03C46AEE4002B7B
:1038300032D1079BD8072FD50DF5807B30230BF8AD
:10384000413DCBEB07030D93CDF840B0FFF7BCBB78
:103850000898314623AA02F0A9FB00287FF462AB46
:10386000DDF894B03C467FE40898314623AA02F084
:103870009DFB00287FF456ABDDF894B03C461AE47B
:103880000898314623AA02F091FB00287FF44AAB46
:10389000DDF894B03C461FE4CDF834A01097FFF754
:1038A00093BB00BF80770008A0770008BC770008B2
:1038B0007C7700086C7700081698BB464FEA18130F
:1038C00008F00F0143EA09734FEA1912984691462E
:1038D000435C0BF8013D58EA0903EFD15B46CDF894
:1038E00040B0FB1A0D93FFF76FBB1D9D002D40F3F9
:1038F0000582139A12998A421346A8BF0B461D46A9
:103900001099002D01EB020A0BDD249B216001338D
:10391000AB44072BCDF894B06560249300F34D833E
:103920000834129B002DA8BF5B1B002B1D4640F3E3
:10393000F580102D249BDFF8F49540F3C6815A469C
:103940004FF01008DDF820B004E00834103D102DD1
:1039500040F3BA8101331032072B25922493C4F827
:103960000090C4F80480F0DD5846314623AA02F0E6
:103970001DFB00287FF4D6AA259A249B3C46E5E748
:103980000898314623AA02F011FB00287FF4CAAA46
:103990009DF86FC0DDF894B03C46FFF779BB03F1AA
:1039A000FF38B8F1000F7FF72AAFB8F1100FDFF83A
:1039B0007C9525DD5B464FF0100ADDF820B006E06F
:1039C000A8F11008B8F1100F04F1080417DD013553
:1039D0001033072D2593249584E80006F0DD584622
:1039E000314623AA02F0E2FA00287FF49BAAA8F14C
:1039F0001008B8F1100F259B249D3C46E7DC9B4640
:103A00000135C344072DCDF894B02495C4F8009037
:103A1000C4F804807FF7F2AE0898314623AA02F07A
:103A2000C5FA00287FF47EAADDF894B0249D3C46B8
:103A3000E5E693460133AB44072BCDF894B02493CD
:103A4000C4F8009065607FF7A0ABE4E6302B109BD4
:103A50003FF447AF013B1A461093BA1A30230D9238
:103A600001F8013CFFF7B0BABB46CDF824C0404690
:103A700049460A22002303F093FB30324046494670
:103A80000BF8012D00230A2203F08AFB80468946A9
:103A900058EA0903EBD15B46FB1ADDF824C0CDF8E8
:103AA00040B00D93FFF790BA0E990A6804310E9159
:103AB00090464FF00009FFF754BA0E990A68043196
:103AC00001230E9190464FF00009FFF74ABA0E9A73
:103AD000136898464FEAE3791346043342460E933F
:103AE000002A4B4673F10003BFF6F5AB4FF02D0CE7
:103AF000D8F1000869EB49098DF86FC0CDF844A0F2
:103B00000123FFF734BA0898314623AA02F04EFA8F
:103B100000287FF407AADDF894B03C46109A129969
:103B20001D9B0A449046139A934246DB079AD0079E
:103B300043D4139AC8EB0A05D31A9D42A8BF1D4669
:103B4000002D0CDD249AC4F800800132AB44072A12
:103B5000CDF894B06560249200F367820834002D9C
:103B6000ACBF5D1B1D46002D7FF710AB102D249BB5
:103B7000DFF8B8937FF75EAF4FF010085A46DDF8D4
:103B800020A004E00834103D102D7FF752AF013320
:103B90001032072B25922493C4F80090C4F80480B7
:103BA000F0DD5046314623AA02F000FA00287FF4E7
:103BB000B9A9259A249B3C46E5E7249A18981799B9
:103BC000216001328344072ACDF894B060602492CA
:103BD00000F30A820834ACE7079BD9073FF5DCAD58
:103BE000109B236001350BF1010B0123072DCDF84C
:103BF00094B0249563607FF701AE0DE708983146D5
:103C000023AA02F0D3F900287FF48CA9259B249DD8
:103C10003C46CEE50898314623AA02F0C7F90028B1
:103C20007FF480A9DDF894B0249D3C46CFE5089848
:103C3000314623AA02F0BAF900287FF473A9DDF80F
:103C400094B03C46FFF74CBA02F044F9002840F02B
:103C5000C7808646B24AB34B119007989DF86FC053
:103C6000CDF848E0032120F08000472DD8BF1A4648
:103C70000991079010920D91FFF7AEB9079B0E9A2C
:103C800013F0400F13463FF42EAC0433B2F800801B
:103C90000E934FF00009FFF737BB079BDB060BD4F1
:103CA000079B5D0608D50E9A136804320E92BDF884
:103CB0002C201A80FFF795B80E9A136804320E92E2
:103CC0000B9A1A60FFF78DB893460133AB44072B6C
:103CD000CDF894B02493C4F8009065603FF713AF1B
:103CE00008341BE70898314623AA02F05FF9002840
:103CF0007FF418A9DDF894B03C46C0E4249B8A4ABE
:103D0000226001330BF1010B0122072BCDF894B097
:103D10002493626000F3F48008342DB9139B1BB91F
:103D2000079BDB077FF532AA249B1898179A22601D
:103D300001330BEB0001072B25916060249300F306
:103D4000F38104F108026D42002D40F3FC80102D38
:103D5000DFF8D89140F33D811024DDF8208004E0A5
:103D60000832103D102D40F3348101331031072B00
:103D700025912493C2F800905460F1DD404631460D
:103D800023AA02F013F900287FF4CCA82599249BDC
:103D90003A46E6E7259BB146002B3FF4C4A80898B5
:103DA000314623AA02F002F9FFF7BDB80C980E9134
:103DB00040420C901946FFF73FBA41F020010791AD
:103DC0005D78591CFFF73BB80898314623AA02F0EA
:103DD000EDF800287FF4A6A8DDF894B03C4664E432
:103DE00025F02003BAF1FF3F0D9300F09680472B9A
:103DF00005D1BAF1000F14BFD3464FF0010B079B5A
:103E000043F480731193159BB3F1000A149B09933B
:103E1000BBBF534603F1004A00232D23662D0F93A9
:103E200000F0AC80462D00F0A9800D9B099A452B2F
:103E30000CBF0BF10109D94602201DA98DE8010232
:103E400002911EA821A9039053460491089800F0FE
:103E500083FA672D109002D0472D40F09F80079B7A
:103E6000DB0740F18981109B03EB09080998514653
:103E70000022002303F03AF9002840F0FD80219B46
:103E8000984506D930215A1C21921970219B9845DA
:103E9000F9D8109A9B1A13930D9B472B1D9B00F08A
:103EA000DE80652D40F3F880662D129300F0578177
:103EB000139B129A934200F34481079BD90700F1A8
:103EC000738122EAE2730D920F9A002A40F0BC80BF
:103ED0000993119B079311929DF86FC0FFF77CB86F
:103EE0000898402101F088F9C9F80000C9F81000CD
:103EF000002800F08C814023C9F81430FEF764BF1D
:103F00000898314623AA02F051F800287FF40AA845
:103F10001D9DDDF894B03C46FFE64FF0060B6EE7C2
:103F20008877000884770008BC7700086C77000861
:103F30000898314623AA02F039F800287EF4F2AF3F
:103F40002599249B3A46139C5460013301EB040BE2
:103F5000072B1099CDF894B0249311603FF75BAC18
:103F600002F10804FFF712B9CDF844B001F0F0FFF8
:103F7000CDF838900D900346FFF71BBA03201DA91A
:103F80008DE8010802911EA821A90390099A0491C5
:103F90005346089800F0E0F9D9461090109B03EBC7
:103FA00009080D9B462B7FF461AF109B1B78302BCB
:103FB00000F0E4801D9B984458E70898314623AAF6
:103FC00001F0F4FF00287EF4ADAFDDF894B03C467C
:103FD000A7E401332944072B25912493C2F80090CC
:103FE0005560A5DC0832AEE70898314623AA01F0F7
:103FF000DDFF00287EF496AF1D9BDDF894B03C46B3
:1040000097E55346062B28BF06230D9323EAE37357
:10401000DDF840C00993834BCDF83890CDF844C00B
:10402000CDF848C01093FEF7D7BF0898314623AAB1
:1040300001F0BCFF00287EF475AF1D9B139ADDF8DC
:1040400094B0D31A3C468AE50993119B07934FF02D
:104050002D0C00238DF86FC01193FEF7C0BFDA1C42
:1040600019DB9B4517DB1293672521E74FF02D0CD9
:104070008DF86FC0FFF798BA43460AE72AEAEA7359
:104080001190CDF8389012909DF86FC00993CDF83B
:1040900034A0FEF7A1BF023D013B002B1D93BABF28
:1040A0005B422D222B22092B8DF87C508DF87D2030
:1040B00072DD0DF18B0E70465B4A82FB0321DA172D
:1040C000C2EBA10202EB8201A3EB410303F1300139
:1040D000092A134600F8011DEEDC02463033D9B23E
:1040E00002F8011D964540F299800DF17E020346CB
:1040F00001E013F8011B02F8011B7345F9D123AB52
:104100001B1A0DF17E0213441FAA9B1A139A1993CE
:10411000012A13440D936BDD0D9B002201330D9397
:10412000129223EAE373CFE60898314623AA01F0FE
:104130003DFF00287EF4F6AE1D9D2599249B3A464E
:1041400001E6129B002BD8BFC3F10208139BC8BF26
:104150004FF0010843440D9323EAE373B4E6002BC8
:1041600030DDBBF1000F25D1079BDB0722D4129A6B
:104170000D9222EAE273A7E6219B8AE6099851464E
:104180000022002302F0B2FF00287FF413AFC9F130
:1041900001031D93984469E6303330228DF87F3057
:1041A0008DF87E2020ABAFE7129B01330D9323EAFD
:1041B000E37389E6129B0BF1010843440D9323EA54
:1041C000E37381E6BBF1000F1BD1079BD80718D41E
:1041D00001230D9378E60E9DD5F800A02846043003
:1041E000BAF1000F5D780E90BEF629AEFEF725BE3F
:1041F000079B13F001038FD112930D9B23EAE37306
:1042000062E60BF102030D9323EAE3735CE6089A7E
:104210000C2313604FF0FF30FEF78EBE0DF17E03CE
:1042200072E700BFB47700086766666602690B69CB
:10423000934200F38F802DE9F04F03F1FF3801F135
:10424000140700F1140B57F828205BF828304FEAC8
:10425000880483B00132B3FBF2F90BEB0403009442
:1042600007EB040A0193B9F1000F3BD00026324658
:10427000BC46DE4634465CF8046BDEF80050B3B250
:10428000360C03FB094406FB09F606EB1446A3B201
:10429000D31AB4B213FA85F3C4EB154404EB2344E8
:1042A0009BB243EA0443E2454FEA24424EF8043B02
:1042B0004FEA1644DFD2009B5BF8033093B9019CB0
:1042C000231F9B450CD254F8043C4BB9A4F10803BE
:1042D00002E01A68043B1AB99B4508F1FF38F8D38D
:1042E000C0F81080044601F00BFD00282EDB09F118
:1042F00001095D46002357F8041B28688AB29A1A00
:10430000090C12FA80F2C1EB104303EB224391B285
:1043100041EA0341BA4545F8041B4FEA2343EAD278
:104320005BF828200BEB880382B91A1F93450BD248
:1043300053F8042C42B9083B02E01A68043B1AB94E
:104340009B4508F1FF38F8D3C4F81080484603B005
:10435000BDE8F08F002070472DE9F04F016C97B059
:104360000446239DCDE9022341B1426C4A600123FA
:1043700093408B6001F0E0FA00232364DDE902231F
:10438000002B994636DB00232B60A54B1A4609EA21
:104390000303934217D0DDE9026700223046394615
:1043A000002302F0A3FE804600282BD0229A01238E
:1043B0001360249B002B00F0CB809A4818600138D2
:1043C00017B0BDE8F08F229A42F20F731360029B80
:1043D000002B00F0A6809448249B002BF0D0C378DB
:1043E000002B00F0B78000F10803249A136017B087
:1043F000BDE8F08F039A012322F000492B60CDF82D
:104400000C90C2E715AA14AB8DE80C00204632468A
:104410003B4601F003FD5FEA1955834640F08A8070
:10442000DDF85080159D6FF4826345449D42C0F2D3
:1044300097827E4A521B09FA02F9029A05F2124348
:1044400022FA03F049EA000002F072FB0123013D69
:10445000A1F1F8710D930022754B02F02BFA6AA3BB
:10446000D3E9002302F0DAFB69A3D3E9002302F0C9
:1044700023FA064628460F4602F06AFB66A3D3E9F4
:10448000002302F0CBFB02460B463046394602F0D1
:1044900013FA06460F4602F05BFE394604900022EE
:1044A0003046002302F02CFE002840F0A681049B39
:1044B000162B00F29F81049A5E4B03EBC203D3E9F3
:1044C0000001DDE9022302F039FE002800F04E82EF
:1044D000049B013B049300230B93C5EB0805B5F146
:1044E000010A00F1A18100230593049B002BC0F277
:1044F00092819A440A9300230893209B092B2BD87E
:10450000052B40F37086043B20930025209B023B43
:10451000032B00F24E86DFE813F0CC03BE03B20299
:104520006306414B444AC9F31300002814BF1846E0
:10453000104651E7C7F3130343F07F51CDF83480A1
:104540003046A5F2FF3541F44011DDF8508082E796
:104550003A4835E7C31C48E70021616420462091B2
:1045600001F0C4F94FF0FF330693209A0C93012316
:104570000790219220640993159B002BC0F2D280F2
:10458000049A0E2A00F3CE802A4B03EBC203D3E930
:104590000089219B002BC0F28F83DDE90267424630
:1045A0004B463046394602F063FC02F0D1FD8246AC
:1045B00002F0CEFA42464B4602F030FB0B46024672
:1045C0003946304602F076F9079D0AF130032B7028
:1045D000069B012B06460F4605F1010562D000221D
:1045E000174B02F01BFB0022002306460F4602F089
:1045F0007DFD002840F08380CDF808B00594DDF8FB
:104600001CB0069C29E000BF61436F63A787D23FBF
:10461000B3C8608B288AC63FFB799F501344D33FB1
:104620000000F07FBD770008DC7700080EFCFFFF7C
:104630000000F83F00780008D0770008BC77000839
:104640000000244002F0EAFA0022002306460F464A
:1046500002F04CFD002840F0DE8342464B463046D7
:10466000394602F005FC02F073FD824602F070FA52
:1046700042464B4602F0D2FA02460B4630463946D5
:1046800002F018F90AF1300E05F801EBCBEB050E3C
:10469000744506460F464FF00002B54BD2D1DDF807
:1046A00008B0059C32463B463046394602F004F9D4
:1046B00006460F464046494632463B4602F020FD3C
:1046C00048B94046494632463B4602F00FFDB0B17C
:1046D0001AF0010F13D015F8018C07996B1E04E036
:1046E0008B4200F0408413F8018DB8F1390F03F1CB
:1046F00001051A46F4D008F10103DBB2137020461D
:10470000594601F019F90022049B2A70229A0133BC
:104710001360249B002B00F0458307981D6017B0A1
:10472000BDE8F08F099A002A00F08480209A012ABF
:1047300040F30483069B5F1E089BBB42C0F2A98323
:10474000DF1B069B002BC0F29C84059D069B059AEF
:1047500020461A44012105929A4401F087F9064641
:1047600065B1BAF1000F09DDAA45059A5346A8BF05
:104770002B46D21A0592ED1AC3EB0A0A089B002BAE
:104780001ADD099B002B00F07D83002F10DD3146E0
:104790003A46204601F00EFA06465A463146204671
:1047A00001F06EF959468046204601F0C5F8C3462F
:1047B000089BDA1B40F0A2822046012101F056F945
:1047C0000A9B002B804639DD01461A46204601F03F
:1047D000F1F9209B012B804640F396824FF00009AF
:1047E000D8F8103008EB8303186901F0F1F8C0F134
:1047F00020002DE001230B936FE6049802F0A8F946
:1048000032463B4602F072FC00287FF450AE049B17
:10481000013B04934BE6059A049BD21A5B42089332
:10482000002305920A9368E6CAF1000305934FF04E
:10483000000A5AE6089F059D099E91E7209B012BDF
:1048400040F3B3824FF000090A9B002BC8D101202E
:10485000504410F01F0000F08180C0F12003042BB1
:1048600040F3B884C0F11C00059B03440593054444
:104870008244059B002B05DD59461A46204601F06F
:10488000E9F98346BAF1000F05DD4146524620465C
:1048900001F0E0F980460B9B002B40F06882069BFC
:1048A000002B40F39582099B002B71D1DDF81C9001
:1048B000069F4D4602E001F049F8834641465846BE
:1048C000FFF7B4FC00F1300C05F801CBC9EB050390
:1048D000BB42204659464FF00A024FF00003EADB84
:1048E000079B069A012AACBF9B1801331D464FF067
:1048F000000A594601222046CDF808C001F0AAF965
:104900004146834601F0FCF90028DDF808C040F379
:10491000F68215F8012C07996B1E04E08B4200F01B
:10492000738213F8012D392A03F10105F6D0013203
:104930001A704146204600F0FFFF002E3FF4DFAE24
:10494000BAF1000F05D0B24503D05146204600F021
:10495000F3FF3146204600F0EFFFD0E61C2083E74E
:10496000044B029A5B1B02FA03F06DE50B90B4E571
:1049700000002440EEFBFFFF3146002320460A22C0
:1049800000F0E4FF0C9B002B064640F30C840693DA
:10499000002D05DD31462A46204601F05BF906462A
:1049A000B9F1000F40F0E982B146069B079A013B3E
:1049B000D3180893029B03F001030993174641465D
:1049C0005846FFF733FC31460546584601F098F942
:1049D0004A4682464146204601F0B6F9C26803467F
:1049E00005F1300C002A40F0B88119465846CDF840
:1049F00018C0059301F084F9059B029019462046E2
:104A000000F09AFF029ADDF818C02AB9209B1BB962
:104A1000099B002B00F0A783BAF1000FC0F251826E
:104A200005D1209B1BB9099B002B00F04A82002A6C
:104A300000F3B782089B87F800C007F1010A9F4284
:104A4000554600F0BA8259460A220023204600F05B
:104A50007DFF4E458346314620464FF00A024FF017
:104A6000000300F0748100F071FF494606460A22F7
:104A70002046002300F06AFF574681469FE7012346
:104A80000993219B002B40F313821F461E460C9373
:104A900006930021172F61640AD9012204235B00C9
:104AA00003F114008742114602F10102F7D261645A
:104AB000204600F01BFF0E2E079020643FF65CADF1
:104AC000002D3FF459ADDDE9022304990029CDE919
:104AD0000E2340F32182B74B01F00F020D1103EBBF
:104AE000C203E906D3E9006740F1DB81B24BDDE99F
:104AF0000E01D3E9082302F0BBF9CDE9020105F06C
:104B00000F054FF003088DB1DFF8AC9230463946FF
:104B1000EA0705D5D9E9002308F1010802F07EF87B
:104B20006D1009F10809F3D106460F46DDE90201CF
:104B300032463B4602F09CF9CDE902010B9B43B1A2
:104B4000DDE9020100229D4B02F0DAFA002840F074
:104B5000AC82404601F0FCFFDDE9022302F05EF882
:104B6000974B002201F0A8FE069B0646A1F1507764
:104B7000002B00F06281049BDDF818901293099BD2
:104B8000002B00F021828B4B8E4903EBC90353E9C4
:104B90000223002002F06CF932463B4601F08AFE07
:104BA000DDE90267CDE910013946304602F0D0FA5E
:104BB000054601F0CDFF303502460B4630463946FA
:104BC00001F078FE5FFA85F8079DDDE9102385F88E
:104BD000008006460F46013502F092FA002840F0A8
:104BE000B28232463B460020744901F063FE024621
:104BF0000B46DDE9100102F0A1FA002840F0AC827A
:104C0000B9F1010F40F33881079BCDF84CA0CDF8E6
:104C100008B09944DDE910ABA0460DE000206749DB
:104C200001F048FE52465B4602F06AFA002840F066
:104C30008E824D4500F01B81504659460022624B42
:104C400001F0ECFF0022604B82468B46304639462D
:104C500001F0E4FF0F46064602F07AFA044601F03E
:104C600077FF02460B463046394601F023FE3034CA
:104C7000E4B252465B4605F8014B06460F4602F089
:104C80003FFA32463B460028C8D0129BDDF808B0F8
:104C90000493444633E500230993219B049A13446B
:104CA0000C930133002B069340F30981069E37468F
:104CB000EFE600230993E4E6069B002B3FF76DAC7B
:104CC00040F0628240460022404B494601F0A6FF78
:104CD000DDE9022302F028FADDF8188046460028B4
:104CE00000F08A80219B079DDB43049341462046C8
:104CF00000F022FE002E7FF42CAE00E5594620463F
:104D000000F058FF834657E5029B002B7FF466AD09
:104D1000039BC3F31303002B7FF494AD039B23F099
:104D200000473F0D3F05002F00F01A82059B01331D
:104D300005930AF1010A4FF0010985E50D9A002A51
:104D400000F0A58103F23343089F059DFFE400F0C6
:104D5000FDFD57460646814631E601462046CDF820
:104D600008C000F0E9FD0122DDF808C054E658460D
:104D7000414600F0C5FF0028BFF691AD049F59469B
:104D8000002320460A22013F049700F0DFFD099B23
:104D90008346002B7FF4F0AD0C9B002B40F3F88191
:104DA000069383E50798FFF70BBB029B002B7FF46C
:104DB00049ADADE700780008C87800080000F03F72
:104DC00000001C400000E03F0000244000001440B0
:104DD000209B022B7FF767AD069B002B82D14146BB
:104DE0000522204600F0B2FD80464146584600F0BC
:104DF00087FF00287FF776AF049A079931230132A5
:104E000004920B704D1C71E7049A01320492079AC8
:104E1000312313708DE5DDF808B0059C6FE4404642
:104E200001F096FEDDE9022301F0F8FE0022BC4B02
:104E300001F042FD0646A1F15077DDE902010022B2
:104E4000B84B01F037FD32463B46CDE9020102F096
:104E500075F98046002840F0B380324607F10043E0
:104E6000DDE9020102F04CF930B146463AE7DDF8DF
:104E70004CA0DDF808B04446DDE90E23CDE902235D
:104E8000FFF77ABB5946089A204600F093FE834606
:104E900092E4089B0A9A0897FB1A1A440A92002780
:104EA0004FE4DDE90E234FF00208CDE902232AE6A4
:104EB000012621960C96069600216164F8E51E46AF
:104EC000FAE7002A15DD594601222046CDF808C030
:104ED00000F0C0FE4146834600F012FF0028DDF8D6
:104EE00008C040F34A81BCF1390F00F006810CF193
:104EF000010CB24687F800C07D1C4E4619E504D16E
:104F00001CF0010F01D004E5154615F8013C302BCB
:104F100005F1FF32F8D00CE5049B5D42002D00F056
:104F2000BD80814B05F00F0203EBC203D3E90023E0
:104F3000DDE90E0101F072FE2D11CDE9020100F054
:104F40002C817A4E4FF00208EB0705D5D6E90023F5
:104F500008F1010801F062FE6D1006F10806F3D1B8
:104F6000CDE90201EAE5049A01320492079A30235E
:104F7000137031231370FFF7C2BB7168204600F035
:104F8000B5FC33699A1C0546920006F10C010C3001
:104F900000F00EFC20462946012200F05BFE81460F
:104FA00003E5BCF1390F00F0A8800CF1010CB2460A
:104FB00087F800C07D1C4E46BBE4B2464E4698E4DE
:104FC0004FF00008464617E7574909F1FF3301EB58
:104FD000C30132461393D1E900013B4601F01EFEA6
:104FE000DDE90267CDE910013946304602F0B0F83C
:104FF000054601F0ADFD02460B463046394601F04C
:1050000059FC079A3035B9F1010F157006460F4665
:1050100002F1010523D0079BCDF808A04B445E4662
:105020009A46AB460022424B01F0F8FD8946804685
:1050300002F08EF8074601F08BFD303702460B4632
:105040004046494601F036FC0BF8017BD345E9D1D7
:10505000139BDDF808A0B3460F4606461D44002208
:10506000344BDDE9100101F027FC32463B4602F0EB
:1050700047F8002847D0129B049315F8018CFFF7DE
:105080002CBB059B069A9D1A0023FFF760BB149B5F
:10509000089F059DC3F13603FFF759BBDDE90E23D9
:1050A0004FF00208CDE9022348E5069B002B3FF4B0
:1050B000B6AE0C9D002D7FF7DFAE00221C4BDDE964
:1050C000020101F0ABFD06460F4608F10100CDE9F3
:1050D000026701F03DFD02460B463046394601F0BD
:1050E0009DFD0F4B002201F0E7FB049B013B0646B0
:1050F000A1F150771293A94641E53922B2463A70A0
:105100004E467D1C07E4DDE910230020094901F02B
:10511000D1FB32463B4602F011F870B9ACE600BF55
:1051200000001C400000144000780008C878000807
:10513000000024400000E03F154615F8013C302BEC
:1051400005F1FF32F8D0129B0493FFF7D8BA43461B
:10515000DDF808B0A0461C46129B0493FFF7BDBAC9
:10516000B946FFF771BBBCF1390FC6D0BAF1000FD9
:105170007FF7BFAE05F1310CBBE67FF4BAAE1CF091
:10518000010F3FF4B6AEAEE64FF000084646A9E583
:10519000209B022B04DC0C9B02E64FF00208CDE4BE
:1051A0000C9B069318E6209B022BF9DC0C9BFFF767
:1051B000EEBB002565642946204600F097FB4FF0C2
:1051C000FF3306930C9301230790219520640993E4
:1051D000FFF7D2B93FF44DABC0F13C00FFF744BB41
:1051E0000123099359E50125FFF790B9AFF300803A
:1051F00000487047BC9D01202DE9F04F01F10B05DF
:10520000162D83B0064627D935F0070500F1B68084
:10521000A94200F2B38000F065FBB5F5FC7F22D215
:10522000C24FE80807EBC003DC689C4200F0C8816D
:105230006368E168A56823F00303234430465A6895
:10524000E96042F001028D605A6000F04DFB0834C5
:10525000204603B0BDE8F08F102900F28F8000F0E7
:1052600041FB1025DCE7680A00F08F80042800F27B
:105270005481A80938304100AC4F07EB8101CC685C
:10528000A14206D10CE0002A80F28280E468A142AB
:1052900006D0636823F003035A1B0F2AF3DD01389D
:1052A0000130A2493C6901F1080E744500F07D818E
:1052B000636823F003035A1B0F2A00F36381002A5B
:1052C000C1F814E0C1F810E073DAB3F5007F80F0A4
:1052D0003981DB0801EBC3084FEAA30C4A68D8F810
:1052E0000890C4F80890012303FA0CF31343C4F8A0
:1052F0000C804B60C8F80840C9F80C4082100124AB
:1053000094409C4262D8234206D120F003006400FE
:10531000234200F10400FAD007EBC008C4468146DE
:10532000DCF80C309C4507D141E1002980F2518125
:10533000DB689C4500F03B815A6822F00302511B58
:105340000F29F2DD1C46D3F80CC054F8088F5A1907
:1053500045F0010941F00105C3F804903046C8F852
:105360000CC0CCF808807A613A61C2F80CE0C2F84F
:1053700008E05560515000F0B7FA69E700240C23AB
:105380002046336003B0BDE8F08F7E213F2073E7F5
:105390002344E1685A68A56842F00102E96030469A
:1053A0008D605A6000F0A0FA0834204603B0BDE8D2
:1053B000F08F234430465A6842F001025A6000F0F0
:1053C00093FA0834204603B0BDE8F08FBC686368E8
:1053D00023F00308454504D8C5EB08030F2B00F361
:1053E0008C80534BDFF858A11A68DAF8003001338B
:1053F0002A4404EB080B00F0508102F580520F3272
:1054000022F47F6222F00F0211463046019200F032
:105410008DFDB0F1FF3F8146019A00F04781834541
:1054200000F2EE80434B1968CB451144196000F03F
:105430004281DAF80000DFF808E101301BBFCBEB56
:10544000090B5944CEF80090196019F0070100F0DB
:105450000781C1F10800C1F58051814408314A44F7
:10546000C2F30B02C2EB010A51463046019300F031
:105470005DFD431C019B00F02C81C9EB00025244EE
:1054800042F001021968C7F808905144BC42C9F8BB
:1054900004201960DFF89CA016D0B8F10F0F40F27D
:1054A000EE806268A8F10C0323F00703E01802F015
:1054B00001024FF0050E1A430F2B6260C0F804E0A2
:1054C000C0F808E000F209811B4BBC681A689142E1
:1054D00088BF1960194B1A689142626888BF1960C9
:1054E00022F003029542A2EB050301D80F2B04DC46
:1054F000304600F0F9F90024AAE6621943F00103EE
:1055000045F0010565603046BA60536000F0ECF983
:105510000834204603B0BDE8F08F142868D9542819
:1055200000F29780280B6E304100A5E6F49D012023
:1055300014A2012018A2012010A201200CA2012017
:1055400000A201205A0A042A55D9142A00F2A78081
:105550005B324FEA420C07EB8C0CDFF8BC81DCF8C5
:10556000081061457FD04A6822F00302934202D2BC
:1055700089688C45F7D1CA687B68E260A160946055
:10558000CC60BBE6631942F0010745F00105656098
:1055900030464B610B61C3F80CE0C3F808E05F6074
:1055A0009A50083400F0A0F952E64B68A6E609F1DB
:1055B000010919F0030F0CF1080C7FF4B1AE2CE0D7
:1055C00004F108036469A34208BF02303FF469AEE6
:1055D0002EE61A441C465168DB6854F8085F41F017
:1055E000010151603046EB609D6000F07DF92FE6CF
:1055F0005B30410040E69A0938324FEA420CAAE794
:10560000BC42454B3FF40EAF9C68626822F0030237
:1056100068E7D8F8008098457CD110F0030FA8F116
:10562000080300F1FF30F4D17B6823EA04037B60B8
:1056300064009C423FF6CAAE002C3FF4C7AE234242
:1056400048467FF469AE6400234200F10400FAD0BA
:1056500062E6B0F5AA7F18D8E80B773041000BE678
:105660004FF48051FBE6D8F8043092104FF0010C53
:105670000CFA02F21343C8F804300A467DE701230E
:10568000C9F804304C4600222CE740F254539842AB
:105690001CD8A80C7C304100EEE51032B4E6542A48
:1056A00023D81A0B6E324FEA420C54E7BC6862688A
:1056B00022F0030216E7CBF30B0000287FF4B9AE0B
:1056C0004244BB6842F001025A60FDE6FC217E20A4
:1056D000D2E501224FF0000AD4E604F10801304679
:1056E00000F064FDDAF80010EEE6B2F5AA7F04D807
:1056F000DA0B77324FEA420C2DE740F254518A42DE
:1057000004D89A0C7C324FEA420C24E74FF0FC0C90
:105710007E2220E77B688BE7F49D0120830770B42D
:10572000C9B240D0541E002A3FD003788B4218BF24
:10573000431C06D11DE0F4B102788A4204F1FF3423
:1057400017D013F0030F184603F10103F3D1032C14
:1057500014D884B103788B420BD00519431C02E0A6
:1057600002788A4205D0AB42184603F10103F7D113
:10577000002070BC7047204670BC704741EA01268B
:10578000024646EA06461046043203687340A3F117
:10579000013525EA030313F0803FDAD1043C032CE2
:1057A0001046F0D8D5E71446D1E71046E1E700BF30
:1057B000844641EA000313F003036DD1403A41D31C
:1057C00051F8043B40F8043B51F8043B40F8043BDB
:1057D00051F8043B40F8043B51F8043B40F8043BCB
:1057E00051F8043B40F8043B51F8043B40F8043BBB
:1057F00051F8043B40F8043B51F8043B40F8043BAB
:1058000051F8043B40F8043B51F8043B40F8043B9A
:1058100051F8043B40F8043B51F8043B40F8043B8A
:1058200051F8043B40F8043B51F8043B40F8043B7A
:1058300051F8043B40F8043B51F8043B40F8043B6A
:10584000403ABDD2303211D351F8043B40F8043B0A
:1058500051F8043B40F8043B51F8043B40F8043B4A
:1058600051F8043B40F8043B103AEDD20C3205D31A
:1058700051F8043B40F8043B043AF9D2043208D012
:10588000D2071CBF11F8013B00F8013B01D30B8884
:1058900003806046704700BF082A13D38B078DD062
:1058A00010F003038AD0C3F10403D21ADB071CBF34
:1058B00011F8013B00F8013B80D331F8023B20F89E
:1058C000023B7BE7043AD9D3013A11F8013B00F8D7
:1058D000013BF9D20B7803704B7843708B7883705F
:1058E00060467047704700BF704700BFC36C70B51B
:1058F00005460C464BB153F8240080B1026843F8CA
:10590000242000230361C36070BD0421212200F024
:10591000CFFBE86403460028EDD1002070BD0121D3
:1059200001FA04F6721D2846920000F0C1FB00281F
:10593000F3D044608660E4E731B1C36C4A6853F841
:105940002200086043F82210704700BFF0B50C69D0
:1059500083B00D46064601F1140E0027DEF8001054
:1059600088B2090C02FB003302FB01F101EB134189
:1059700001379BB203EB0143BC424EF8043B4FEAB4
:105980001143EBDC3BB1AA68944207DA05EB8402D1
:10599000013453612C61284603B0F0BD696801935E
:1059A00001313046FFF7A2FF2A69023205F10C01EE
:1059B000074692000C30FFF7FBFEF26C6968019B12
:1059C00052F82100286042F821503D46DEE700BF32
:1059D000030C1B04B3B90004102310F07F4F04BF65
:1059E0000002083310F0704F04BF0001043310F0C0
:1059F000404F04BF80000233002807DB420003D47D
:105A0000202070470023E8E7581C7047184670476D
:105A1000036813F0070207D0D90720D49A0720D4CF
:105A20009B0803600220704799B209B91B0C102231
:105A300013F0FF0F04BF1B0A0832190704BF1B092C
:105A40000432990704BF9B080232D90704D45B08CB
:105A500001D12020704701320360104670470020BA
:105A600070475B0803600120704700BF10B50C460B
:105A70000121FFF73BFF01224461026110BD00BF1D
:105A80002DE9F04F0F691669B74283B00D461446F1
:105A9000C0F28D8033463E461F46AB68696806EB10
:105AA00007089845C8BF0131FFF720FF00F1140C2B
:105AB0000CEB8809CC45009005D26346002143F8E1
:105AC000041B9945FBD804F1140202EB870A05F187
:105AD0001403524503EB860E54D2CDF80490994638
