:020000040800F2
:100000001808002099020008F1020008F102000817
:10001000F1020008F1020008F102000800000000EF
:10002000000000000000000000000000F1020008D5
:10003000F102000800000000F10200089908000821
:10004000F1020008F1020008F1020008F1020008C4
:10005000F1020008F1020008F1020008F1020008B4
:10006000F1020008F1020008F1020008F1020008A4
:10007000F1020008F1020008F1020008F102000894
:10008000F1020008F1020008F1020008F102000884
:10009000F1020008F1020008F1020008F102000874
:1000A000F1020008F1020008F1020008F102000864
:1000B000F1020008F1020008F1020008F102000854
:1000C000F1020008F1020008F1020008F102000844
:1000D000F1020008F1020008F1020008F102000834
:1000E000F1020008F1020008F1020008F102000824
:1000F000F1020008F1020008F1020008F102000814
:10010000F1020008F1020008F1020008F102000803
:10011000F1020008F1020008F1020008F1020008F3
:10012000F1020008F1020008F1020008F1020008E3
:10013000F1020008F1020008F1020008F1020008D3
:10014000F1020008F1020008F1020008F1020008C3
:10015000F1020008F1020008F1020008F1020008B3
:10016000F1020008F1020008F1020008F1020008A3
:10017000F1020008F1020008F1020008F102000893
:10018000F1020008F102000880B500AF07484021E5
:1001900000F070FE012000F091FB0448402100F0C7
:1001A0005BFE0A2000F08AFB80BD00BF0008024011
:1001B00080B582B000AF78604020802100F0DAFE88
:1001C000022000F0ADFE0AE07B681B789BB2184667
:1001D00000F0B6FE7B6801337B6000F083FB7B6838
:1001E0001B78002BF0D10837BD4680BD80B500AF2D
:1001F0004FF6FF7000F0BEFC002000F09BFC0020DA
:1002000040F21F31002240F2DF1300F01DFC00F02D
:10021000A5FB032000F094FB00F0F2FB012000F0AE
:10022000F7FB00F009FC00F07BFB00F081FB00F025
:100230009DFB042000F0B2FB00F0A8FB00F09EFB49
:10024000D0202D2100F0B8FB00F048FC022000F087
:1002500067FE1048FFF7ACFF4FF4C870F02100F0C4
:10026000ABFB00F03BFC0220372100F083FE38207E
:1002700000F066FE392000F063FE3A2000F060FED8
:100280002120002100F076FE2F20002100F072FED8
:1002900080BD00BF0414000880B582B000AF0F4BD2
:1002A0007B600F4B3B6007E03B681A1D3A607A6841
:1002B000111D796012681A603B680A4A9342F3D3B1
:1002C00009480A494FF000028842B8BF40F8042BA1
:1002D000FADB00F0E9F90837BD4680BD14140008C8
:1002E000000000201400002014000020180000204E
:1002F00080B400AFFEE700BF80B584B000AF04203B
:10030000012100F049FA0323BB800023FB804FF456
:100310007A73BB600023BB810023BB733B1D054880
:10032000194600F04FFF0348012100F0B5FF1037D8
:10033000BD4680BD0008004080B586B000AF702388
:10034000BB800123FB8002233B8244F29E13FB60AF
:100350003B1D0A48194600F0BFFF0848082101F07C
:1003600035F83B1D0548194600F0B6FF0348082143
:1003700001F02CF81837BD4680BD00BF00080040D2
:1003800080B582B000AF1820012100F0C9F901202A
:10039000012100F0E3F93F4800210C2200F078FD34
:1003A0003C4801210C2200F073FD3A4804210C2244
:1003B00000F06EFD374805210C2200F069FD35483C
:1003C00007210C2200F064FD324808210C2200F0C5
:1003D0005FFD304809210C2200F05AFD2D480A210A
:1003E0000C2200F055FD2B480E210C2200F050FD90
:1003F00028480F210C2200F04BFD4CF2B3733B60F8
:1004000002233B7102237B710023BB710023FB712C
:100410003B462048194600F091FC1F4803210C225E
:1004200000F036FD1C4807210C2200F031FD1A486F
:1004300008210C2200F02CFD174809210C2200F0A5
:1004400027FD15480A210C2200F022FD12480B213D
:100450000C2200F01DFD10480C210C2200F018FDAC
:100460000D480D210C2200F013FD0B480E210C222B
:1004700000F00EFD08480F210C2200F009FD4FF698
:1004800088733B603B460448194600F057FC083728
:10049000BD4680BD000C02400010024080B582B015
:1004A00000AF0820012100F03BF916480C21022280
:1004B00000F0EEFC4FF480533B6002233B710023BD
:1004C0007B710023BB710023FB713B460D4819462D
:1004D00000F034FC0420012100F022F940233B60AD
:1004E00001233B710023BB710023FB713B4606488F
:1004F000194600F023FC0448402100F0ADFC083709
:10050000BD4680BD000C02400008024080B596B098
:1005100000AF0023FB6100233B6200237B621023BA
:10052000BB620023FB6200237B630023BB630023C9
:10053000FB634FF480533B6400237B6400233B63E5
:100540000023BB640023FB643B463B6504233B6004
:1005500000237B600123BB600923FB6000233B6118
:1005600000237B610023BB613B467B6507F11C03D5
:10057000184600F01FFB0020012100F0B5FB5837A2
:10058000BD4680BD80B500AFFFF7FAFE322000F017
:1005900095F9FFF783FF322000F090F9FFF7B6FFDF
:1005A000322000F08BF980BD80B582B000AFFFF73C
:1005B000E9FFFFF7A1FE00F065F810200F2100F021
:1005C000D9FC0A2000F07AF90420812100F0D2FC45
:1005D0000A2000F073F900F043FD0346FB8014206D
:1005E000632100F0C7FC1520002100F0C3FC162099
:1005F000032100F0BFFC1720032100F0BBFC1820F2
:100600000B2100F0B7FC1920DF2100F0B3FC1A2009
:10061000012100F0AFFC1B20202100F0ABFC1C20CE
:10062000002100F0A7FC1D20162100F0A3FC1E20D5
:10063000002100F09FFC1F20012100F09BFC3020D6
:10064000002100F097FC3120002100F093FC3420C1
:100650001F2100F08FFC3520032100F08BFC32209D
:10066000002100F087FC3320002100F083FC3620BD
:10067000DF2100F07FFC3720012100F07BFC0837F0
:10068000BD4680BD80B500AF88200B2100F072FC14
:10069000142000F013F98920022100F06BFC1420D3
:1006A00000F00CF980BD00BF80B582B000AF00F053
:1006B000E3FC00F0DBF8FFF767FDFFF775FF4FF491
:1006C000FA7000F0FBF8FFF737FE00F021F90A207E
:1006D00000F0F4F800F014F9FFF788FD6420C82159
:1006E000C8224FF4967300F0AFF900F0EFF96420E0
:1006F000C82100F0FBF9022000F012FC00237B600F
:1007000007E01F2000F01CFC00F0ECF87B680133D0
:100710007B607B6842F2D8729342F2D9FEE700BF59
:1007200080B483B000AF78600B46FB70FB78002B81
:1007300006D00949084B1A6B7B6813430B6306E02C
:100740000549054B1A6B7B68DB4313400B630C3781
:10075000BD465DF8047B70470038024080B483B02A
:1007600000AF78600B46FB70FB78002B06D0094980
:10077000084B9A6B7B6813438B6306E00549054B76
:100780009A6B7B68DB4313408B630C37BD465DF887
:10079000047B70470038024080B483B000AF7860BB
:1007A0000B46FB70FB78002B06D00949084B1A6CEE
:1007B0007B6813430B6406E00549054B1A6C7B68A4
:1007C000DB4313400B640C37BD465DF8047B704778
:1007D0000038024080B483B000AF03463960FB713B
:1007E00097F90730002B0BDA0D49FB7903F00F0363
:1007F000043B3A68D2B21201D2B20B441A7609E035
:10080000084997F907303A68D2B21201D2B20B44C4
:1008100083F800230C37BD465DF8047B704700BFAA
:1008200000ED00E000E100E080B582B000AF78604C
:100830007B68B3F1807F01D3012311E00A4A7B6812
:1008400023F07F43013B53604FF0FF300F21FFF750
:10085000C1FF054B00229A60034B07221A60002358
:1008600018460837BD4680BD10E000E080B500AFF7
:10087000064B00221A60064B1B68064AA2FB0323A4
:100880009B091846FFF7D0FF80BD00BF1400002071
:1008900000000020D34D621080B400AF064B1B68EF
:1008A000002B04D0044B1B68013B034A1360BD4678
:1008B0005DF8047B704700BF1400002080B483B053
:1008C00000AF7860064A7B68136000BF044B1B686A
:1008D000002BFBD10C37BD465DF8047B704700BF91
:1008E0001400002080B582B000AF00F0B9FB0346D1
:1008F000FB71FB795BB2002BF7DB0837BD4680BD8F
:1009000080B500AF0120802100F034FB80BD00BF26
:1009100080B500AF0120002100F02CFB80BD00BF9E
:1009200080B500AF0520202100F03AFB80BD00BF5C
:1009300080B500AF0520EF21082200F06DFB80BDDF
:1009400080B582B000AF0346FB71FB799BB20620F5
:10095000194600F00FFB0837BD4680BD80B500AFDB
:100960002120202100F01CFB80BD00BF80B500AF1E
:100970002220802100F014FB80BD00BF80B500AFB5
:1009800022200C2100F00CFB80BD00BF80B500AF21
:100990002220032100F004FB80BD00BF80B582B09F
:1009A00000AF0346FB71FB799BB22920194600F08A
:1009B000E1FA0837BD4680BD80B582B000AF03467E
:1009C0000A46FB801346BB80FB882A20194600F0AC
:1009D000D1FAFB881B0A9BB22B20194600F0CAFAF9
:1009E000BB882C20194600F0C5FABB881B0A9BB2B5
:1009F0002D20194600F0BEFA0837BD4680BD00BF65
:100A000080B500AF2E203F2100F0E8FA80BD00BF86
:100A100080B584B000AF0346FB71FB7903F03F0360
:100A2000FB73FB7B9BB22E20C0211A4600F0F4FA28
:100A30001037BD4680BD00BF80B500AF2F201F21FD
:100A4000802200F0E9FA80BD90B583B000AF044683
:100A5000084611461A462346FB800346BB800B46D8
:100A60007B8013463B80FB883020194600F082FAD9
:100A7000FB881B0A9BB23120194600F07BFABB8829
:100A80003420194600F076FABB881B0A9BB2352049
:100A9000194600F06FFA7B883220194600F06AFA96
:100AA0007B881B0A9BB23320194600F063FA3B880F
:100AB0003620194600F05EFA3B881B0A9BB23720AD
:100AC000194600F057FA0C37BD4690BD80B500AF0F
:100AD00040207F2100F082FA80BD00BF80B500AFCA
:100AE0004020802100F05CFA80BD00BF80B582B05C
:100AF00000AF03460A46FB801346BB80FB884620B6
:100B0000194600F037FAFB881B0A9BB247201946AA
:100B100000F030FABB884820194600F02BFABB8859
:100B20001B0A9BB24920194600F024FA0837BD463B
:100B300080BD00BF80B582B000AF0346FB80FB885C
:100B4000DB0A9BB26020194600F014FAFB8803F41C
:100B5000FC635B119BB26120194600F00BFAFB8825
:100B600003F01F039BB26220194600F003FA083716
:100B7000BD4680BD80B582B000AF0346FB80FB88D8
:100B8000DB0A9BB26320194600F0F4F9FB8803F4FA
:100B9000FC635B119BB26420194600F0EBF9FB8803
:100BA00003F01F039BB26520194600F0E3F90837F4
:100BB000BD4680BD80B483B000AF78604FF0204068
:100BC0007B681B687A6851687A68926811437A6812
:100BD000D26811437A68126911437A6852691143E5
:100BE0007A68926911437A68D26911437A68126A05
:100BF00011437A68526A11437A68926A11437A689B
:100C0000D26A11437A68126B0A4340F823207B684A
:100C10009B68082B0DD14FF020417B681B684FF07B
:100C200020407A68126850F8222042F0400241F8D1
:100C300023204FF020407B681B6801337A68526B99
:100C400011687A68526B5268120111437A68526BCC
:100C50009268120211437A68526BD26812041143EF
:100C60007A68526B1269120511437A68526B5269A5
:100C7000120611437A68526B92690A4340F82320A6
:100C80007B68DB6AB3F5804F20D116487B681B6810
:100C90007A68926B11687A68926B526812011143FC
:100CA0007A68926B9268120211437A68926B1269A9
:100CB000120511437A68926B5269120611437A68E1
:100CC000926B92690A4340F8232006E0054A7B684C
:100CD0001B686FF0704142F823100C37BD465DF879
:100CE000047B7047040100A080B483B000AF78603B
:100CF0000B46FB70FB78002B0CD04FF020414FF0DF
:100D000020427B6852F8233043F001027B6841F8AF
:100D100023200BE04FF020414FF020427B6852F837
:100D20002320054B13407A6841F822300C37BD462A
:100D30005DF8047B704700BFFEFF0F0080B487B0F2
:100D400000AF7860396000237B6100233B610023A2
:100D5000FB6000237B6176E07B69012202FA03F3EA
:100D60003B613B681A683B691340FB60FA683B696A
:100D70009A4265D17B681A687B695B001946032338
:100D80008B40DB431A407B681A607B681A683B68BB
:100D90001B7919467B695B0001FA03F31A437B68F0
:100DA0001A603B681B79012B03D03B681B79022B2F
:100DB0002ED17B689A687B695B00194603238B40C0
:100DC000DB431A407B689A607B689A683B685B7972
:100DD00019467B695B0001FA03F31A437B689A604A
:100DE0007B685A687B699BB2194601238B40DB43C1
:100DF0001A407B685A607B685B683A689279114652
:100E00007A6992B201FA02F292B21A437B685A608E
:100E10007B68DA687B699BB25B00032101FA03F30C
:100E2000DB431A407B68DA607B68DA683B68DB7911
:100E300019467B695B0001FA03F31A437B68DA60A9
:100E40007B6901337B617B690F2B85D91C37BD46DC
:100E50005DF8047B704700BF80B483B000AF78605A
:100E60000B467B807B687A881A830C37BD465DF819
:100E7000047B704780B483B000AF78600B467B8002
:100E80007B687A885A830C37BD465DF8047B7047CF
:100E900080B485B000AF78600B467B8013467B70D2
:100EA0000023FB600023BB607B787A8802F0070296
:100EB00092009340FB607B88DB089BB218467B88DE
:100EC000DB089BB21A467B68083253F822207B88E5
:100ED00003F007039B0019460F238B40DB4302EA14
:100EE00003017B6800F1080243F822107B88DB08CD
:100EF0009BB21A467B68083253F82220FB681343E2
:100F0000BB607B88DB089BB21A467B680832B968F5
:100F100043F822101437BD465DF8047B704700BFCC
:100F200080B483B000AF0346FB80044AFB88138083
:100F30000C37BD465DF8047B704700BF00001060B1
:100F400080B483B000AF0346FB804FF0C042FB8803
:100F500013800C37BD465DF8047B704780B400AF4A
:100F60004FF0C0431B889BB21846BD465DF8047B1A
:100F7000704700BF80B582B000AF03460A46FB80D1
:100F80001346BB80FB881846FFF7CAFF0120FFF716
:100F900095FCBB881846FFF7D3FF0837BD4680BDD8
:100FA00080B584B000AF03460A46FB801346BB8081
:100FB000FB881846FFF7B4FFFFF7D0FF0346FB811D
:100FC000FA89BB881343FB81FA88FB8910461946CE
:100FD000FFF7D0FF18461037BD4680BD80B584B0FE
:100FE00000AF03460A46FB801346BB80FB881846C9
:100FF000FFF796FFFFF7B2FF0346FB81FA89BB8834
:101000001340FB81FA88FB8910461946FFF7B2FFAF
:1010100018461037BD4680BD80B584B000AF03468A
:10102000FB800B46BB8013467B80FB881846FFF78E
:1010300077FFFFF793FF0346FB81FA89BB881340D4
:10104000FB81FA897B881343FB81FA88FB89104670
:101050001946FFF78FFF18461037BD4680BD00BF09
:1010600080B400AF034B1B889BB21846BD465DF8A9
:10107000047B70470000106080B500AF114A114B2F
:101080001B6843F0010313600E4B00229A600D4A67
:101090000C4B1B6823F0847323F480331360094BDB
:1010A000094A5A60074A074B1B6823F480231360E0
:1010B000044B0022DA6000F00BF8044B4FF00062A2
:1010C0009A6080BD003802401030002400ED00E03E
:1010D00080B483B000AF00237B6000233B60354ABF
:1010E000344B1B6843F480331360324B1B6803F4AA
:1010F00000333B607B6801337B603B68002B03D18E
:101100007B68B3F5A06FF0D12A4B1B6803F4003362
:10111000002B02D001233B6001E000233B603B68D1
:10112000012B42D1234A234B1B6C43F080531364A1
:10113000214A214B1B6843F4804313601D4A1D4B19
:101140009B6893601B4A1B4B9B6843F4004393606E
:10115000184A184B9B6843F4A0539360154B174AE9
:101160005A60144A134B1B6843F08073136000BF2E
:10117000104B1B6803F00073002BF9D0104B40F2AA
:1011800005621A600B4A0B4B9B6823F003039360C4
:10119000084A084B9B6843F00203936000BF054B6D
:1011A0009B6803F00C03082BF9D10C37BD465DF8A2
:1011B000047B70470038024000700040195440071B
:1011C000003C024080B485B000AF786039600023F5
:1011D000FB817B681B88FB817B68284A934213D084
:1011E0007B68274A93420FD07B68B3F1804F0BD0C6
:1011F0007B68244A934207D07B68234A934203D0FA
:101200007B68224A934208D1FB8923F07003FB815B
:101210003B685A88FB891343FB817B681C4A9342D5
:101220000CD07B681B4A934208D0FB8923F440739F
:10123000FB813B681A89FB891343FB817B68FA8930
:101240001A803B685A687B68DA623B681A887B6858
:101250001A857B68094A934203D07B68084A934207
:1012600004D13B689B7A9AB27B681A867B6801221C
:101270009A821437BD465DF8047B70470000014038
:10128000000401400004004000080040000C004041
:10129000001000400014004080B483B000AF7860BC
:1012A0000B46FB70FB78002B08D07B681B889BB239
:1012B00043F001039AB27B681A8007E07B681B88C1
:1012C0009BB223F001039AB27B681A800C37BD46AB
:1012D0005DF8047B704700BF80B485B000AF7860D4
:1012E000396000237B810023FB810023BB817B6865
:1012F0001B8C9BB223F001039AB27B681A847B6833
:101300001B8CFB817B689B88BB817B681B8B7B81F3
:101310007B8923F070037B817B8923F003037B812E
:101320003B681A887B8913437B81FB8923F0020386
:10133000FB813B689A89FB891343FB813B685A8890
:10134000FB891343FB817B681E4A934203D07B6871
:101350001D4A934223D1FB8923F00803FB813B689C
:10136000DA89FB891343FB81FB8923F00403FB81AA
:101370003B689A88FB891343FB81BB8923F4807304
:10138000BB81BB8923F40073BB813B681A8ABB898C
:101390001343BB813B685A8ABB891343BB817B687B
:1013A000BA899A807B687A891A833B689A687B68D5
:1013B0005A637B68FA891A841437BD465DF8047B4A
:1013C000704700BF000001400004014080B485B0B8
:1013D00000AF78600B467B800023FB817B681B8B12
:1013E000FB81FB8923F00803FB81FA897B88134387
:1013F000FB817B68FA891A831437BD465DF8047B4C
:10140000704700BF686F6C612070726573696465B6
:041410006E74650091
:10141400007A030A00000000000000000102030437
:0414240006070809A6
:0400000508000000EF
:00000001FF
