:020000040800F2
:10000000200800205D030008B5030008B5030008C0
:10001000B5030008B5030008B503000800000000A0
:10002000000000000000000000000000B503000810
:10003000B503000800000000B503000849090008E6
:10004000B5030008B5030008B5030008B5030008B0
:10005000B5030008B5030008B5030008B5030008A0
:10006000B5030008B5030008B5030008B503000890
:10007000B5030008B5030008B5030008B503000880
:10008000B5030008B5030008B5030008B503000870
:10009000B5030008B5030008B5030008B503000860
:1000A000B5030008B5030008B5030008B503000850
:1000B000B5030008B5030008B5030008B503000840
:1000C000B5030008B5030008B5030008B503000830
:1000D000B5030008B5030008B5030008B503000820
:1000E000B5030008B5030008B5030008B503000810
:1000F000B5030008B5030008B5030008B503000800
:10010000B5030008B5030008B5030008B5030008EF
:10011000B5030008B5030008B5030008B5030008DF
:10012000B5030008B5030008B5030008B5030008CF
:10013000B5030008B5030008B5030008B5030008BF
:10014000B5030008B5030008B5030008B5030008AF
:10015000B5030008B5030008B5030008B50300089F
:10016000B5030008B5030008B5030008B50300088F
:10017000B5030008B5030008B5030008B50300087F
:10018000B5030008B503000880B582B000AF786001
:100190000B467B8013463B8000F04AF8002040F27B
:1001A0001F31002240F2DF1300F07CFC7A883B888C
:1001B0001046194600F052FC002000F0D5FC4FF626
:1001C000FF7000F0B1FC786800F072F80837BD46A7
:1001D00080BD00BF80B582B000AF0346FB80FB88C6
:1001E000184600F0C1FC002000214FF4487240F294
:1001F000DF1300F0D9FC9020B02100F025FF00F0C3
:10020000D9FB0837BD4680BD80B500AF0748402107
:1002100000F09AFE012000F0A9FB0448402100F004
:1002200085FE0A2000F0A2FB80BD00BF000802404E
:1002300080B500AF00F0DCFB00F0E2FB00F0F6FC64
:10024000032000F0FDFB00F0E3FB00F0E9FB00F011
:10025000EFFB184680BD00BF90B585B000AF0346E8
:10026000FB71FB799BB2184600F05AF8034618461A
:1002700000F0E4FC00F08EFB0023FB730BE00B4B63
:100280001A68FB7BD41800F0F5FC0346DBB2237040
:10029000FB7B0133FB73FB7B2F2BF0D9034B1B68DC
:1002A0001B7818461437BD4690BD00BF14000020CF
:1002B00080B584B000AF78600023BB7326E07B6814
:1002C0001B78BB73BB7B1846FFF7C6FF0346FB7367
:1002D000022000F08FFE0DE0FB7B9BB2184600F081
:1002E00099FE0E4B1B6801330C4A13600B4B1B68C5
:1002F0001B78FB73094B1B681B78002BECD1022089
:10030000372100F0A1FE7B6801337B607B681B789E
:10031000002BD4D11037BD4680BD00BF1400002093
:1003200080B485B000AF0346FB80FB881F2B0ED93D
:10033000FB887E2B0BD8FB88A3F1200213465B00C1
:1003400013441B0103F5EF1303F5F853FB60FB683F
:1003500018461437BD465DF8047B704780B582B0FF
:1003600000AF0F4B7B600F4B3B6007E03B681A1DF3
:100370003A607A68111D796012681A603B680A4A0F
:100380009342F3D309480A494FF000028842B8BFAC
:1003900040F8042BFADB00F0E9F90837BD4680BDD0
:1003A00008150008000000201400002014000020A0
:1003B0001C00002080B400AFFEE700BF80B584B011
:1003C00000AF0420012100F03FFA0323BB8000238B
:1003D000FB804FF47A73BB600023BB810023BB73A7
:1003E0003B1D0548194600F067FF0348012100F056
:1003F000CDFF1037BD4680BD0008004080B586B0F7
:1004000000AF7023BB800123FB8002233B8244F2B8
:100410009E13FB603B1D0A48194600F0D7FF0848B1
:10042000082101F04DF83B1D0548194600F0CEFFAC
:100430000348082101F044F81837BD4680BD00BFCD
:100440000008004080B582B000AF1820012100F004
:10045000BFF90120012100F0D9F93F4800210C2209
:1004600000F080FD3C4801210C2200F07BFD3A4861
:1004700004210C2200F076FD374805210C2200F003
:1004800071FD354807210C2200F06CFD324808212F
:100490000C2200F067FD304809210C2200F062FDBB
:1004A0002D480A210C2200F05DFD2B480E210C2264
:1004B00000F058FD28480F210C2200F053FD4CF2AB
:1004C000B3733B6002233B7102237B710023BB713A
:1004D0000023FB713B462048194600F099FC1F4859
:1004E00003210C2200F03EFD1C4807210C2200F0E5
:1004F00039FD1A4808210C2200F034FD1748092163
:100500000C2200F02FFD15480A210C2200F02AFDD4
:1005100012480B210C2200F025FD10480C210C2262
:1005200000F020FD0D480D210C2200F01BFD0B48B2
:100530000E210C2200F016FD08480F210C2200F0BD
:1005400011FD4FF688733B603B460448194600F0A6
:100550005FFC0837BD4680BD000C02400010024021
:1005600080B582B000AF0820012100F031F91648B3
:100570000C21022200F0F6FC4FF480533B60022372
:100580003B7100237B710023BB710023FB713B4651
:100590000D48194600F03CFC0420012100F018F938
:1005A00040233B6001233B710023BB710023FB719F
:1005B0003B460648194600F02BFC0448402100F059
:1005C000B5FC0837BD4680BD000C02400008024063
:1005D00080B596B000AF0023FB6100233B6200238F
:1005E0007B621023BB620023FB6200237B6300233A
:1005F000BB630023FB634FF480533B6400237B64A5
:1006000000233B630023BB640023FB643B463B6544
:1006100004233B6000237B600123BB600923FB6054
:1006200000233B6100237B610023BB613B467B656C
:1006300007F11C03184600F027FB0020012100F001
:10064000BDFB5837BD4680BD80B500AFFFF7FAFE51
:10065000322000F08BF9FFF783FF322000F086F99B
:10066000FFF7B6FF322000F081F980BD80B582B07F
:1006700000AFFFF7E9FFFFF7A1FE00F065F81020DB
:100680000F2100F0E1FC0A2000F070F90420812124
:1006900000F0DAFC0A2000F069F900F05BFD034687
:1006A000FB801420632100F0CFFC1520002100F016
:1006B000CBFC1620032100F0C7FC1720032100F01B
:1006C000C3FC18200B2100F0BFFC1920DF2100F033
:1006D000BBFC1A20012100F0B7FC1B20202100F0F8
:1006E000B3FC1C20002100F0AFFC1D20162100F0FF
:1006F000ABFC1E20002100F0A7FC1F20012100F010
:10070000A3FC3020002100F09FFC3120002100F0EC
:100710009BFC34201F2100F097FC3520032100F0C2
:1007200093FC3220002100F08FFC3320002100F0E8
:100730008BFC3620DF2100F087FC3720012100F000
:1007400083FC0837BD4680BD80B500AF88200B21F3
:1007500000F07AFC142000F009F98920022100F051
:1007600073FC142000F002F980BD00BF80B500AF1B
:1007700000F0FCFC00F0D2F8FFF746FD00F02AF98B
:10078000FFF774FF4FF4FA7000F0F0F8FFF736FE51
:1007900000F018F90A2000F0E9F800F00BF94FF624
:1007A000FF70FFF717FD4FF4FA6000F0DFF807481D
:1007B0004FF4C8716422FFF7E7FC002040F21F31BC
:1007C000002240F2DF1300F06DF9FEE7F814000894
:1007D00080B483B000AF78600B46FB70FB78002BD1
:1007E00006D00949084B1A6B7B6813430B6306E07C
:1007F0000549054B1A6B7B68DB4313400B630C37D1
:10080000BD465DF8047B70470038024080B483B079
:1008100000AF78600B46FB70FB78002B06D00949CF
:10082000084B9A6B7B6813438B6306E00549054BC5
:100830009A6B7B68DB4313408B630C37BD465DF8D6
:10084000047B70470038024080B483B000AF78600A
:100850000B46FB70FB78002B06D00949084B1A6C3D
:100860007B6813430B6406E00549054B1A6C7B68F3
:10087000DB4313400B640C37BD465DF8047B7047C7
:100880000038024080B483B000AF03463960FB718A
:1008900097F90730002B0BDA0D49FB7903F00F03B2
:1008A000043B3A68D2B21201D2B20B441A7609E084
:1008B000084997F907303A68D2B21201D2B20B4414
:1008C00083F800230C37BD465DF8047B704700BFFA
:1008D00000ED00E000E100E080B582B000AF78609C
:1008E0007B68B3F1807F01D3012311E00A4A7B6862
:1008F00023F07F43013B53604FF0FF300F21FFF7A0
:10090000C1FF054B00229A60034B07221A600023A7
:1009100018460837BD4680BD10E000E080B500AF46
:10092000064B00221A60064B1B68064AA2FB0323F3
:100930009B091846FFF7D0FF80BD00BF18000020BC
:1009400000000020D34D621080B400AF064B1B683E
:10095000002B04D0044B1B68013B034A1360BD46C7
:100960005DF8047B704700BF1800002080B483B09E
:1009700000AF7860064A7B68136000BF044B1B68B9
:10098000002BFBD10C37BD465DF8047B704700BFE0
:100990001800002080B582B000AF00F0DBFB0346FA
:1009A000FB71FB7903F00103002BF6D10837BD463C
:1009B00080BD00BF80B500AF0120802100F044FB66
:1009C00080BD00BF80B500AF0120002100F03CFBDE
:1009D00080BD00BF80B500AF0120012100F034FBD5
:1009E000002000F017FB0120FFF7C0FF80BD00BF13
:1009F00080B500AF05207F2100F06AFB80BD00BFFD
:100A000080B500AF0520BF2100F062FB80BD00BFB4
:100A100080B500AF0520202100F03CFB80BD00BF69
:100A200080B500AF0520EF21082200F06FFB80BDEC
:100A300080B500AF0520FD2100F04AFB80BD00BF5E
:100A400080B582B000AF0346FB71FB799BB20620F4
:100A5000194600F0F9FA0837BD4680BD80B582B06E
:100A600000AF03460A46FB801346BB80FB882A2062
:100A7000194600F0E9FAFB881B0A9BB22B201946A5
:100A800000F0E2FABB882C20194600F0DDFABB88A2
:100A90001B0A9BB22D20194600F0D6FA0837BD4636
:100AA00080BD00BF90B583B000AF04460846114634
:100AB0001A462346FB800346BB800B467B801346C9
:100AC0003B80FB883020194600F0BEFAFB881B0AE9
:100AD0009BB23120194600F0B7FABB883420194682
:100AE00000F0B2FABB881B0A9BB23520194600F011
:100AF000ABFA7B883220194600F0A6FA7B881B0AE5
:100B00009BB23320194600F09FFA3B8836201946E5
:100B100000F09AFA3B881B0A9BB23720194600F076
:100B200093FA0C37BD4690BD80B582B000AF034646
:100B3000FB80FB88DB0A9BB26020194600F084FA38
:100B4000FB8803F4FC635B119BB26120194600F043
:100B50007BFAFB8803F01F039BB26220194600F06A
:100B600073FA0837BD4680BD80B582B000AF03463A
:100B7000FB80FB88DB0A9BB26320194600F064FA15
:100B8000FB8803F4FC635B119BB26420194600F000
:100B90005BFAFB8803F01F039BB26520194600F047
:100BA00053FA0837BD4680BD90B583B000AF044608
:100BB000084611461A462346FB800346BB800B4677
:100BC0007B8013463B80FB889120194600F03CFA5D
:100BD000FB881B0A9BB29220194600F035FABB88AD
:100BE0009320194600F030FABB881B0A9BB2942070
:100BF000194600F029FA7B889520194600F024FA5E
:100C00007B881B0A9BB29620194600F01DFA3B8890
:100C10009720194600F018FA3B881B0A9BB29820CF
:100C2000194600F011FA0C37BD4690BD80B500AFF3
:100C3000E020012100F008FA80BD00BF80B582B03D
:100C400000AF78607B681B0C9BB2E120194600F076
:100C5000FBF97B681B0A9BB2E120194600F0F4F90E
:100C60007B689BB2E120194600F0EEF90837BD46DB
:100C700080BD00BF80B500AFE22000F0FBF9034665
:100C8000DBB2184680BD00BF80B483B000AF78608F
:100C90004FF020407B681B687A6851687A689268D8
:100CA00011437A68D26811437A68126911437A68ED
:100CB000526911437A68926911437A68D269114383
:100CC0007A68126A11437A68526A11437A68926AA2
:100CD00011437A68D26A11437A68126B0A4340F86A
:100CE00023207B689B68082B0DD14FF020417B6847
:100CF0001B684FF020407A68126850F8222042F0BA
:100D0000400241F823204FF020407B681B680133EC
:100D10007A68526B11687A68526B526812011143FB
:100D20007A68526B9268120211437A68526BD268E9
:100D3000120411437A68526B1269120511437A68E2
:100D4000526B5269120611437A68526B92690A43D8
:100D500040F823207B68DB6AB3F5804F20D116482A
:100D60007B681B687A68926B11687A68926B52682C
:100D7000120111437A68926B9268120211437A68E9
:100D8000926B1269120511437A68926B52691206CE
:100D900011437A68926B92690A4340F8232006E077
:100DA000054A7B681B686FF0704142F823100C37CE
:100DB000BD465DF8047B7047040100A080B483B099
:100DC00000AF78600B46FB70FB78002B0CD04FF027
:100DD00020414FF020427B6852F8233043F001025B
:100DE0007B6841F823200BE04FF020414FF0204278
:100DF0007B6852F82320054B13407A6841F8223073
:100E00000C37BD465DF8047B704700BFFEFF0F0046
:100E100080B487B000AF7860396000237B61002325
:100E20003B610023FB6000237B6176E07B6901224C
:100E300002FA03F33B613B681A683B691340FB60AD
:100E4000FA683B699A4265D17B681A687B695B00E6
:100E5000194603238B40DB431A407B681A607B688A
:100E60001A683B681B7919467B695B0001FA03F33A
:100E70001A437B681A603B681B79012B03D03B68DF
:100E80001B79022B2ED17B689A687B695B0019461F
:100E900003238B40DB431A407B689A607B689A6827
:100EA0003B685B7919467B695B0001FA03F31A43DF
:100EB0007B689A607B685A687B699BB219460123FC
:100EC0008B40DB431A407B685A607B685B683A68FA
:100ED000927911467A6992B201FA02F292B21A43F9
:100EE0007B685A607B68DA687B699BB25B00032190
:100EF00001FA03F3DB431A407B68DA607B68DA6847
:100F00003B68DB7919467B695B0001FA03F31A43FE
:100F10007B68DA607B6901337B617B690F2B85D944
:100F20001C37BD465DF8047B704700BF80B483B0BA
:100F300000AF78600B467B807B687A881A830C3719
:100F4000BD465DF8047B704780B483B000AF786025
:100F50000B467B807B687A885A830C37BD465DF8E8
:100F6000047B704780B485B000AF78600B467B800F
:100F700013467B700023FB600023BB607B787A887C
:100F800002F0070292009340FB607B88DB089BB273
:100F900018467B88DB089BB21A467B68083253F8F8
:100FA00022207B8803F007039B0019460F238B4008
:100FB000DB4302EA03017B6800F1080243F82210D8
:100FC0007B88DB089BB21A467B68083253F82220E4
:100FD000FB681343BB607B88DB089BB21A467B68C7
:100FE0000832B96843F822101437BD465DF8047B17
:100FF000704700BF80B483B000AF0346FB80044A53
:10100000FB8813800C37BD465DF8047B704700BF3A
:101010000000106080B483B000AF0346FB804FF047
:10102000C042FB8813800C37BD465DF8047B7047D7
:1010300080B400AF4FF0C0431B889BB21846BD463A
:101040005DF8047B704700BF80B582B000AF0346F7
:101050000A46FB801346BB80FB881846FFF7CAFF91
:101060000120FFF783FCBB881846FFF7D3FF083742
:10107000BD4680BD80B582B000AF0346FB80FB88D3
:101080001846FFF7B7FFFFF7D3FF034618460837A8
:10109000BD4680BD80B584B000AF03460A46FB80E4
:1010A0001346BB80FB881846FFF7A4FFFFF7C0FF7D
:1010B0000346FB81FA89BB881343FB81FA88FB89CD
:1010C00010461946FFF7C0FF18461037BD4680BDD1
:1010D00080B584B000AF03460A46FB801346BB8050
:1010E000FB881846FFF786FFFFF7A2FF0346FB8148
:1010F000FA89BB881340FB81FA88FB8910461946A0
:10110000FFF7A2FF18461037BD4680BD80B584B0FA
:1011100000AF0346FB800B46BB8013467B80FB88F9
:101120001846FFF767FFFFF783FF0346FB81FA8945
:10113000BB881340FB81FA897B881343FB81FA88C3
:10114000FB8910461946FFF77FFF18461037BD464A
:1011500080BD00BF80B400AF034B1B889BB2184614
:10116000BD465DF8047B70470000106080B500AF9D
:10117000114A114B1B6843F0010313600E4B002210
:101180009A600D4A0C4B1B6823F0847323F4803360
:101190001360094B094A5A60074A074B1B6823F43E
:1011A00080231360044B0022DA6000F00BF8044B3C
:1011B0004FF000629A6080BD003802401030002479
:1011C00000ED00E080B483B000AF00237B6000231B
:1011D0003B60354A344B1B6843F480331360324B19
:1011E0001B6803F400333B607B6801337B603B6822
:1011F000002B03D17B68B3F5A06FF0D12A4B1B689D
:1012000003F40033002B02D001233B6001E00023F4
:101210003B603B68012B42D1234A234B1B6C43F0BC
:1012200080531364214A214B1B6843F480431360AD
:101230001D4A1D4B9B6893601B4A1B4B9B6843F4E4
:1012400000439360184A184B9B6843F4A053936083
:10125000154B174A5A60144A134B1B6843F08073AE
:10126000136000BF104B1B6803F00073002BF9D014
:10127000104B40F205621A600B4A0B4B9B6823F03F
:1012800003039360084A084B9B6843F00203936092
:1012900000BF054B9B6803F00C03082BF9D10C37FA
:1012A000BD465DF8047B7047003802400070004086
:1012B00019544007003C024080B485B000AF78600C
:1012C00039600023FB817B681B88FB817B68284A8F
:1012D000934213D07B68274A93420FD07B68B3F1C7
:1012E000804F0BD07B68244A934207D07B68234A07
:1012F000934203D07B68224A934208D1FB8923F0B2
:101300007003FB813B685A88FB891343FB817B6830
:101310001C4A93420CD07B681B4A934208D0FB893D
:1013200023F44073FB813B681A89FB891343FB81DB
:101330007B68FA891A803B685A687B68DA623B6886
:101340001A887B681A857B68094A934203D07B68B8
:10135000084A934204D13B689B7A9AB27B681A860A
:101360007B6801229A821437BD465DF8047B704782
:10137000000001400004014000040040000800405B
:10138000000C0040001000400014004080B483B006
:1013900000AF78600B46FB70FB78002B08D07B68B1
:1013A0001B889BB243F001039AB27B681A8007E066
:1013B0007B681B889BB223F001039AB27B681A807A
:1013C0000C37BD465DF8047B704700BF80B485B024
:1013D00000AF7860396000237B810023FB8100230C
:1013E000BB817B681B8C9BB223F001039AB27B68A4
:1013F0001A847B681B8CFB817B689B88BB817B6824
:101400001B8B7B817B8923F070037B817B8923F09D
:1014100003037B813B681A887B8913437B81FB89AB
:1014200023F00203FB813B689A89FB891343FB810C
:101430003B685A88FB891343FB817B681E4A9342B1
:1014400003D07B681D4A934223D1FB8923F0080314
:10145000FB813B68DA89FB891343FB81FB8923F01D
:101460000403FB813B689A88FB891343FB81BB899A
:1014700023F48073BB81BB8923F40073BB813B6879
:101480001A8ABB891343BB813B685A8ABB891343C1
:10149000BB817B68BA899A807B687A891A833B68AA
:1014A0009A687B685A637B68FA891A841437BD4648
:1014B0005DF8047B704700BF00000140000401405C
:1014C00080B485B000AF78600B467B800023FB8141
:1014D0007B681B8BFB81FB8923F00803FB81FA8966
:1014E0007B881343FB817B68FA891A831437BD46D6
:1014F0005DF8047B704700BF416C6F2050726573CC
:08150000696E64650000000043
:10150800007A030A00000000000000000102030442
:0415180006070809B1
:0400000508000000EF
:00000001FF
