:020000040800F2
:10000000E8AA0120D50400082D0500082D050008E8
:100010002D0500082D0500082D0500080000000032
:100020000000000000000000000000002D05000896
:100030002D050008000000002D050008A90F00088C
:100040002D0500082D0500082D050008792300085E
:100050002D0500082D0500082D0500082D050008B8
:100060002D0500082D0500082D0500082D050008A8
:100070002D0500082D0500082D0500082D05000898
:100080002D0500082D0500082D0500082D05000888
:100090002D0500082D0500082D0500083505000870
:1000A0002D050008F90500082D0500086505000864
:1000B0002D0500082D0500082D0500082D05000858
:1000C0002D0500082D0500082D0500082D05000848
:1000D0002D0500082D0500082D0500082D05000838
:1000E0002D050008790B00082D0500082D050008D6
:1000F0002D0500082D0500082D0500082D05000818
:100100002D0500082D0500082D0500082D05000807
:100110002D0500082D0500082D0500082D050008F7
:100120002D0500082D0500082D0500082D050008E7
:100130002D0500082D0500082D0500082D050008D7
:100140002D0500082D0500082D0500082D050008C7
:100150002D0500082D0500082D0500082D050008B7
:100160002D0500082D0500082D0500082D050008A7
:100170002D0500082D0500082D0500082D05000897
:100180002D0500082D05000890B585B000AF044688
:10019000084611461A462346FB800346BB800B46A1
:1001A0007B8013463B8001F0B7F8F888B9887A88DD
:1001B0003B8801F0FFF8C820F02101F05DF9C02074
:1001C00001F0EAF801F0E0F8022001F0B1FB0023B1
:1001D000FB810BE0FB89094A32F81330184601F025
:1001E000B7FB00F007FFFB890133FB81FB894BF66E
:1001F0007F329342EED91437BD4690BD00000020F7
:1002000090B585B000AF0446084611461A4623460D
:10021000FB800346BB800B467B8013463B8001F08E
:100220007BF8F888B9887A883B8801F0C3F86E209B
:10023000282101F021F9C02001F0AEF801F0A4F866
:10024000022001F075FB0023FB810BE0FB89094ACA
:1002500032F81330184601F07BFB00F0CBFEFB892F
:100260000133FB81FB8941F22F129342EED91437FF
:10027000BD4690BD0077012080B483B000AF034637
:10028000FB71044AFB7913600C37BD465DF8047BB3
:10029000704700BF20000E4280B584B000AFF86008
:1002A000084611461A4603467B810B463B8113469E
:1002B000FB8000F0E5F800F0FDF87A893B891046F4
:1002C000194600F067FFFB88184601F019F93B8BCF
:1002D000184601F0F5F800F007FF3B7F022B0ED027
:1002E000032B17D0012B20D100F078FF012000F064
:1002F0008DFF042000F040FF00F0F6FE1FE000F04C
:1003000075FF012000F082FF042000F035FF00F0AF
:10031000EBFE14E000F072FF012000F077FF0420F4
:1003200000F02AFF00F0E0FE09E000F057FF012096
:1003300000F06CFF042000F01FFF00F0D5FE97F8DE
:100340002030013B032B17D801A252F823F000BF45
:1003500061030008670300086D03000873030008C9
:1003600000F078FF08E000F07DFF05E000F082FF7C
:1003700002E000F087FF00BF97F82430032B1FD85E
:1003800001A252F823F000BF99030008A30300085C
:10039000AD030008B703000800F0CEFE00F0ACFE8D
:1003A00012E000F0D1FE00F0AFFE0DE000F0D4FE50
:1003B00000F0B2FE08E000F0D7FE00F0B5FE03E06A
:1003C00000F0BAFE00F098FE022001F0B1FAF868E1
:1003D00000F00CF82120002101F0D4FA2F20002198
:1003E00001F0D0FA1037BD4680BD00BF80B582B0A5
:1003F00000AF786000F098FF022001F099FA0AE05F
:100400007B681B789BB2184601F0A2FA7B68013327
:100410007B6000F0EFFD7B681B78002BF0D1083784
:10042000BD4680BD80B582B000AF0346FB80FB882F
:10043000184601F065F8002000214FF4487240F2A0
:10044000DF1301F07DF89020B02101F09BFA00F05D
:10045000DFFD0837BD4680BD80B500AF07484021AD
:1004600001F010FA0A2000F0B1FD0448402101F02B
:10047000FBF90A2000F0AAFD80BD00BF0008024081
:1004800080B500AF00F028FE00F01EFE00F0D2FEA6
:1004900000F0D8FE00F0DAFD00F0E0FD032000F0EF
:1004A00005FE00F0E3FD00F0E9FD00F0EFFD00F0D7
:1004B000F5FD80BD80B500AF00F036FF00F03CFFD9
:1004C00000F042FF00F048FF00F04EFF00F054FF44
:1004D00080BD00BF80B582B000AF0F4B7B600F4B7B
:1004E0003B6007E03B681A1D3A607A68111D79602D
:1004F00012681A603B680A4A9342F3D309480A49D2
:100500004FF000028842B8BF40F8042BFADB00F03D
:100510006FFA0837BD4680BD207E0008000000202D
:1005200004A2012004A20120E8A2012080B400AFAF
:10053000FEE700BF80B500AF4FF4007001F0B8FFD8
:100540000346002B0BD04FF4007001F0D5FF044898
:10055000012102F097FD0248002102F085FD80BDD7
:100560000000014080B500AF1F48022102F040FEAC
:100570000346012B09D11C48022102F063FE1B4BEC
:100580001B78012B01D101F00DFF1748042102F067
:100590002FFE0346012B07D11348042102F052FE1F
:1005A0001348802101F060F90F48082102F020FE75
:1005B0000346012B07D10C48082102F043FE0D48E9
:1005C000012101F051F90848102102F011FE034603
:1005D000012B07D10448102102F034FE0548022106
:1005E00001F042F980BD00BF0000014008A20120D7
:1005F000000402400010024080B500AF0A4801210B
:1006000002F0F6FD0346002B0DD00748012102F051
:1006100019FE0548002102F027FD0348002102F0E1
:1006200031FD01F0C9FE80BD0000014080B584B0FD
:1006300000AF0420012100F0DFFB5323BB80002327
:10064000FB8044F61F63BB600023BB810023BB73A8
:100650003B1D0548194602F09DFC0348012102F0AC
:1006600011FD1037BD4680BD0008004080B586B042
:1006700000AF7023BB800123FB8002233B8243F643
:100680009723FB603B1D0548194602F01BFD0348FC
:10069000082102F091FD1837BD4680BD00080040DA
:1006A00080B582B000AF1820012100F069FB012065
:1006B000012100F083FB3F4800210C2201F0F0F8FB
:1006C0003C4801210C2201F0EBF83A4804210C22AD
:1006D00001F0E6F8374805210C2201F0E1F8354831
:1006E00007210C2201F0DCF8324808210C2201F02D
:1006F000D7F8304809210C2201F0D2F82D480A2100
:100700000C2201F0CDF82B480E210C2201F0C8F884
:1007100028480F210C2201F0C3F84CF2B3733B6060
:1007200002233B7102237B710023BB710023FB7109
:100730003B462048194601F009F81F4803210C22C6
:1007400001F0AEF81C4807210C2201F0A9F81A4864
:1007500008210C2201F0A4F8174809210C2201F00D
:100760009FF815480A210C2201F09AF812480B2133
:100770000C2201F095F810480C210C2201F090F8A1
:100780000D480D210C2201F08BF80B480E210C2294
:1007900001F086F808480F210C2201F081F84FF68D
:1007A00088733B603B460448194600F0CFFF08378A
:1007B000BD4680BD000C02400010024080B582B0F2
:1007C00000AF0820012100F0DBFA1F480C210222B3
:1007D00001F066F84FF480533B6002233B71002325
:1007E0007B710023BB710023FB713B461648194601
:1007F00000F0ACFF0420012100F0C2FA40233B606E
:1008000001233B710023BB710023FB713B460F4862
:10081000194600F09BFF0D48402101F025F801200A
:10082000012100F0ADFA20233B6001233B7100233E
:10083000BB710023FB713B460548194600F086FF5B
:100840000837BD4680BD00BF000C024000080240D2
:100850000000024080B596B000AF0023FB6100238A
:100860003B6200237B621023BB620023FB620023F8
:100870007B630023BB630023FB634FF480533B6423
:1008800000237B6400233B630023BB640023FB64E1
:100890003B463B6504233B6000237B600123BB6038
:1008A0000923FB6000233B6100237B610023BB61C4
:1008B0003B467B6507F11C03184600F083FE0020D1
:1008C000012100F019FF5837BD4680BD80B500AF4B
:1008D000FFF7E6FE322000F079FBFFF76FFF3220D2
:1008E00000F074FBFFF7B6FF322000F06FFB80BD15
:1008F00080B500AF88200B2101F044F8142000F0EF
:1009000065FB8920022101F03DF8142000F05EFB18
:1009100080BD00BF80B582B000AFFFF7D7FFFFF703
:1009200085FEFFF7E5FF10200F2101F02BF80A20CC
:1009300000F04CFB0420812101F024F80A2000F093
:1009400045FB01F0A1F80346FB801420632101F070
:1009500019F81520002101F015F81620032101F0E7
:1009600011F81720032101F00DF818200B2101F0D8
:1009700009F81920DF2101F005F81A20012101F002
:1009800001F81B20202100F0FDFF1C20002100F0B9
:10099000F9FF1D20162100F0F5FF1E20002100F0B8
:1009A000F1FF1F20012100F0EDFF3020002100F0B9
:1009B000E9FF3120002100F0E5FF34201F2100F085
:1009C000E1FF3520032100F0DDFF3220002100F09F
:1009D000D9FF3320002100F0D5FF3620DF2100F0C1
:1009E000D1FF3720012100F0CDFF0837BD4680BD83
:1009F00080B58AB000AF01F053F8012001F016F97C
:100A00000346002B18D15B4B0122DA71594B0122AE
:100A10009A71584B08221A72564B0F225A72554B34
:100A200002225A71534B01221A71524B24221A701E
:100A30005048002101F07CF900F0A0FAFFF70CFD0E
:100A400000F0F6FAFFF766FF4FF4FA7000F0BEFA16
:100A5000FFF70CFE00F0E4FA0A2000F0B7FA0020DD
:100A6000FFF7E0FC00F0D4FA4FF4FA6000F0AEFAC1
:100A7000072001F025FB0023FB8413E0FB8C1A46C2
:100A8000920013441A4691001A460B461344DB00A9
:100A90009BB20020194600227823FFF775FBFB8CE0
:100AA0000133FB84FB8C032BE8D9002040F2A32107
:100AB00000224FF4D273FFF7A3FB4FF480400121D3
:100AC00000F0B8F94FF48070002102F083F84FF481
:100AD0008050002102F080F94FF4003001F00CFD4D
:100AE0004FF40033FB61002387F82030082387F898
:100AF0002130012387F8223007F11C03184601F04A
:100B000065FC29233B7604237B760123BB760123F6
:100B1000FB7607F11803184601F0FCFC02233B7139
:100B200002237B710223BB710023FB717B68BB60D6
:100B300000233B6101233B754FF08033FB6007F1DD
:100B4000080301204FF480711A4601F0A7FF4FF40B
:100B50008070012102F03EF84FF48050012102F034
:100B60003BF94FF4805002F073F94FF4003001F07C
:100B7000C3FCFEE77CA2012080B584B004AF4FF433
:100B8000805002F07DF90346002B1AD0002040F27D
:100B90001F31002240F2DF1300F07CFB4FF6FF73A1
:100BA000009301230193012302930F4B03930F48FA
:100BB000002100220023FFF76FFB4FF4805002F06A
:100BC00093F94FF4005002F05BF90346002B05D077
:100BD0004FF4005002F088F901F0C8FB4FF40030E8
:100BE00001F08AFCBD4680BD647C0008547C00088E
:100BF00090B585B004AF2648002101F0DBF9244B05
:100C0000DB791A46224B1B7A1C46214B5B7A03F593
:100C1000FA6300931F482049234602F0EDFE4FF48B
:100C2000077040F21F310022122300F033FB002333
:100C300000930123019302230293184B0393154859
:100C40004FF4077112224FF6FF73FFF725FB104B8D
:100C50005B791A460E4B1B791C460D4B1B78009393
:100C60000C480F49234602F0C7FE002300930223DD
:100C7000019302230293094B0393064840F28A2111
:100C80000A2240F21F53FFF707FB0437BD4690BD11
:100C90007CA201208CA201206C7C00087C7C0008D6
:100CA000847C000880B483B000AF0346FB710C4B1A
:100CB00000221A700A4B00221A70FB79012B02D015
:100CC000042B04D007E0064B01221A7003E0044B0A
:100CD00005221A7000BF0C37BD465DF8047B7047D3
:100CE0007038024080B483B000AF0346FB71044A01
:100CF000FB7913600C37BD465DF8047B704700BF7D
:100D0000800E474280B485B000AF78600023FB605E
:100D10007B6803F44073B3F5407F11D10F4B9B68A0
:100D2000FB60FB6823F4F813FB607B6823F07043DF
:100D300023F44073FA681343FB60084AFB6893602E
:100D40000649064B1A6F7B68C3F30B0313430B670B
:100D50001437BD465DF8047B704700BF0038024081
:100D600080B483B000AF0346FB71044AFB79136083
:100D70000C37BD465DF8047B704700BF3C0E474210
:100D800080B483B000AF78600B46FB70FB78002B1B
:100D900006D00949084B1A6B7B6813430B6306E0C6
:100DA0000549054B1A6B7B68DB4313400B630C371B
:100DB000BD465DF8047B70470038024080B483B0C4
:100DC00000AF78600B46FB70FB78002B06D009491A
:100DD000084B9A6B7B6813438B6306E00549054B10
:100DE0009A6B7B68DB4313408B630C37BD465DF821
:100DF000047B70470038024080B483B000AF786055
:100E00000B46FB70FB78002B06D00949084B1A6C87
:100E10007B6813430B6406E00549054B1A6C7B683D
:100E2000DB4313400B640C37BD465DF8047B704711
:100E30000038024080B483B000AF78600B46FB708E
:100E4000FB78002B06D00949084B5A6C7B6813438A
:100E50004B6406E00549054B5A6C7B68DB43134045
:100E60004B640C37BD465DF8047B70470038024088
:100E700080B487B000AF0346FB710023FB60002302
:100E80007B610023FB74FB795B09DBB2FB60FB68D1
:100E9000012B03D1124B1B687B6109E0FB68022B1D
:100EA00003D10F4B1B6F7B6102E00D4B5B6F7B61CE
:100EB000FB7903F01F03FB60FB687A6922FA03F3F6
:100EC00003F00103002B02D00123FB7401E0002397
:100ED000FB74FB7C18461C37BD465DF8047B7047ED
:100EE0000038024080B483B000AF03463960FB7124
:100EF00097F90730002B0BDA0D49FB7903F00F034C
:100F0000043B3A68D2B21201D2B20B441A7609E01D
:100F1000084997F907303A68D2B21201D2B20B44AD
:100F200083F800230C37BD465DF8047B704700BF93
:100F300000ED00E000E100E080B582B000AF786035
:100F40007B68B3F1807F01D3012311E00A4A7B68FB
:100F500023F07F43013B53604FF0FF300F21FFF739
:100F6000C1FF054B00229A60034B07221A60002341
:100F700018460837BD4680BD10E000E080B500AFE0
:100F8000064B00221A60064B1B68064AA2FB03238D
:100F90009B091846FFF7D0FF80BD00BFC0A201200B
:100FA00060990120D34D621080B400AF064B1B68DE
:100FB000002B04D0044B1B68013B034A1360BD4661
:100FC0005DF8047B704700BFC0A2012080B483B0ED
:100FD00000AF7860064A7B68136000BF044B1B6853
:100FE000002BFBD10C37BD465DF8047B704700BF7A
:100FF000C0A2012080B582B000AF00F045FD0346DD
:10100000FB71FB795BB2002BF7DB0837BD4680BD77
:1010100080B500AF0120802100F0B4FC80BD00BF8E
:1010200080B500AF0120002100F0ACFC80BD00BF06
:1010300080B500AF0120012100F0A4FC002000F0E9
:1010400087FC0120FFF7C2FF80BD00BF80B500AF65
:1010500005207F2100F0D8FC80BD00BF80B500AF27
:101060000520BF2100F0D0FC80BD00BF80B500AFDF
:101070000520202100F0AAFC80BD00BF80B500AF94
:101080000520EF21082200F0DDFC80BD80B500AF17
:101090000520FB2100F0B8FC80BD00BF80B500AF8B
:1010A0000520FD2100F0B0FC80BD00BF80B582B0FE
:1010B00000AF0346FB71FB799BB20620194600F096
:1010C00061FC0837BD4680BD80B500AF21207F217F
:1010D00000F09AFC80BD00BF80B500AF2120202128
:1010E00000F074FC80BD00BF80B500AF22208021DD
:1010F00000F06CFC80BD00BF80B500AF2220F32162
:1011000000F082FC80BD00BF80B500AF2220F72137
:10111000042200F097FC80BD80B500AF2220FB21A7
:10112000082200F08FFC80BD80B500AF22200C218A
:1011300000F04CFC80BD00BF80B500AF2220FC2138
:1011400000F062FC80BD00BF80B500AF2220FD2111
:10115000012200F077FC80BD80B500AF2220FE2187
:10116000022200F06FFC80BD80B500AF2220032179
:1011700000F02CFC80BD00BF80B582B000AF0346FC
:10118000FB71FB799BB22920194600F0FBFB083765
:10119000BD4680BD80B582B000AF03460A46FB80E5
:1011A0001346BB80FB882A20194600F0EBFBFB8826
:1011B0001B0A9BB22B20194600F0E4FBBB882C20B5
:1011C000194600F0DFFBBB881B0A9BB22D20194695
:1011D00000F0D8FB0837BD4680BD00BF80B500AF2A
:1011E0002E203F2100F010FC80BD00BF80B500AF75
:1011F0002E207F21402200F025FC80BD80B500AF6D
:101200002E20802100F0E2FB80BD00BF80B584B0BD
:1012100000AF0346FB71FB7903F03F03FB73FB7BDD
:101220009BB22E20C0211A4600F00CFC1037BD46A0
:1012300080BD00BF80B500AF2F201F21802200F0AD
:1012400001FC80BD80B500AF2F20E321102200F00B
:10125000F9FB80BD80B500AF2F20FC2100F0D4FB4E
:1012600080BD00BF80B500AF2F20FD21012200F01E
:10127000E9FB80BD80B500AF2F20FE21022200F0E7
:10128000E1FB80BD80B500AF2F20032100F09EFB65
:1012900080BD00BF90B583B000AF0446084611463C
:1012A0001A462346FB800346BB800B467B801346D1
:1012B0003B80FB883020194600F064FBFB881B0A4A
:1012C0009BB23120194600F05DFBBB8834201946E3
:1012D00000F058FBBB881B0A9BB23520194600F072
:1012E00051FB7B883220194600F04CFB7B881B0A9F
:1012F0009BB23320194600F045FB3B883620194647
:1013000000F040FB3B881B0A9BB23720194600F0D7
:1013100039FB0C37BD4690BD80B500AF40207F2122
:1013200000F072FB80BD00BF80B500AF402080217F
:1013300000F04CFB80BD00BF80B500AF4020BF2156
:1013400000F062FB80BD00BF80B500AF4020DF2110
:1013500000F05AFB80BD00BF80B500AF4020F321F4
:1013600000F052FB80BD00BF80B500AF4020FD21E2
:1013700000F04AFB80BD00BF80B500AF4020FE21D9
:1013800000F042FB80BD00BF80B500AF502080213F
:1013900000F01CFB80BD00BF80B582B000AF0346EB
:1013A000FB71FB799BB25120194600F0EBFA08372C
:1013B000BD4680BD90B585B000AF044608461146D5
:1013C0001A462346FB800346BB800B467B801346B0
:1013D0003B80FB885420194600F0D4FAFB881B0A96
:1013E0009BB25520194600F0CDFABB88582019460B
:1013F00000F0C8FABB881B0A9BB25920194600F0BE
:10140000C1FA7B885620194600F0BCFA7B881B0A7B
:101410009BB2FB73572000F0C9FA0346BB73BB7B3A
:1014200023F07F03BB73FA7BBB7B1343FB73FB7B14
:101430009BB25720194600F0A5FA3B885A2019465E
:1014400000F0A0FA3B881B0A9BB2FB735B2000F004
:10145000ADFA0346BB73BB7B23F07F03BB73FA7B00
:10146000BB7B1343FB73FB7B9BB25B20194600F0F5
:1014700089FA1437BD4690BD80B582B000AF0346EF
:101480000A46FB801346BB80FB885C20194600F0AF
:1014900079FAFB881B0A9BB25D20194600F072FAAC
:1014A000BB885E20194600F06DFABB881B0A9BB210
:1014B0005F20194600F066FA0837BD4680BD00BFC0
:1014C00080B582B000AF0346FB80FB88DB0A9BB28D
:1014D0006020194600F056FAFB8803F4FC635B11A8
:1014E0009BB26120194600F04DFAFB8803F01F0300
:1014F0009BB26220194600F045FA0837BD4680BD10
:1015000080B582B000AF0346FB80FB88DB0A9BB24C
:101510006320194600F036FAFB8803F4FC635B1184
:101520009BB26420194600F02DFAFB8803F01F03DC
:101530009BB26520194600F025FA0837BD4680BDEC
:1015400090B583B000AF0446084611461A462346BC
:10155000FB800346BB800B467B8013463B80FB88A9
:101560009120194600F00EFAFB881B0A9BB29220CC
:10157000194600F007FABB889320194600F002FADA
:10158000BB881B0A9BB29420194600F0FBF97B88AC
:101590009520194600F0F6F97B881B0A9BB296202D
:1015A000194600F0EFF93B889720194600F0EAF958
:1015B0003B881B0A9BB29820194600F0E3F90C37D0
:1015C000BD4690BD80B483B000AF78604FF020403E
:1015D0007B681B687A6851687A68926811437A68F8
:1015E000D26811437A68126911437A6852691143CB
:1015F0007A68926911437A68D26911437A68126AEB
:1016000011437A68526A11437A68926A11437A6880
:10161000D26A11437A68126B0A4340F823207B6830
:101620009B68082B0DD14FF020417B681B684FF061
:1016300020407A68126850F8222042F0400241F8B7
:1016400023204FF020407B681B6801337A68526B7F
:1016500011687A68526B5268120111437A68526BB2
:101660009268120211437A68526BD26812041143D5
:101670007A68526B1269120511437A68526B52698B
:10168000120611437A68526B92690A4340F823208C
:101690007B68DB6AB3F5804F20D116487B681B68F6
:1016A0007A68926B11687A68926B526812011143E2
:1016B0007A68926B9268120211437A68926B12698F
:1016C000120511437A68926B5269120611437A68C7
:1016D000926B92690A4340F8232006E0054A7B6832
:1016E0001B686FF0704142F823100C37BD465DF85F
:1016F000047B7047040100A080B483B000AF786021
:101700000B46FB70FB78002B0CD04FF020414FF0C4
:1017100020427B6852F8233043F001027B6841F895
:1017200023200BE04FF020414FF020427B6852F81D
:101730002320054B13407A6841F822300C37BD4610
:101740005DF8047B704700BFFEFF0F0080B487B0D8
:1017500000AF7860396000237B6100233B61002388
:10176000FB6000237B6176E07B69012202FA03F3D0
:101770003B613B681A683B691340FB60FA683B6950
:101780009A4265D17B681A687B695B00194603231E
:101790008B40DB431A407B681A607B681A683B68A1
:1017A0001B7919467B695B0001FA03F31A437B68D6
:1017B0001A603B681B79012B03D03B681B79022B15
:1017C0002ED17B689A687B695B00194603238B40A6
:1017D000DB431A407B689A607B689A683B685B7958
:1017E00019467B695B0001FA03F31A437B689A6030
:1017F0007B685A687B699BB2194601238B40DB43A7
:101800001A407B685A607B685B683A689279114637
:101810007A6992B201FA02F292B21A437B685A6074
:101820007B68DA687B699BB25B00032101FA03F3F2
:10183000DB431A407B68DA607B68DA683B68DB79F7
:1018400019467B695B0001FA03F31A437B68DA608F
:101850007B6901337B617B690F2B85D91C37BD46C2
:101860005DF8047B704700BF80B483B000AF786040
:101870000B467B807B687A881A830C37BD465DF8FF
:10188000047B704780B483B000AF78600B467B80E8
:101890007B687A885A830C37BD465DF8047B7047B5
:1018A00080B485B000AF78600B467B8013467B70B8
:1018B0000023FB600023BB607B787A8802F007027C
:1018C00092009340FB607B88DB089BB218467B88C4
:1018D000DB089BB21A467B68083253F822207B88CB
:1018E00003F007039B0019460F238B40DB4302EAFA
:1018F00003017B6800F1080243F822107B88DB08B3
:101900009BB21A467B68083253F82220FB681343C7
:10191000BB607B88DB089BB21A467B680832B968DB
:1019200043F822101437BD465DF8047B704700BFB2
:1019300080B483B000AF0346FB80044AFB88138069
:101940000C37BD465DF8047B704700BF0000106097
:1019500080B483B000AF0346FB804FF0C042FB88E9
:1019600013800C37BD465DF8047B704780B400AF30
:101970004FF0C0431B889BB21846BD465DF8047B00
:10198000704700BF80B582B000AF03460A46FB80B7
:101990001346BB80FB881846FFF7CAFFBB88184672
:1019A000FFF7D6FF0837BD4680BD00BF80B582B0C7
:1019B00000AF0346FB80FB881846FFF7B9FFFFF72F
:1019C000D5FF034618460837BD4680BD80B584B0B4
:1019D00000AF03460A46FB801346BB80FB881846CF
:1019E000FFF7A6FFFFF7C2FF0346FB81FA89BB881A
:1019F0001343FB81FA88FB8910461946FFF7C2FFA3
:101A00001037BD4680BD00BF80B584B000AF03462F
:101A10000A46FB801346BB80FB881846FFF788FF09
:101A2000FFF7A4FF0346FB81FA89BB881340FB81C3
:101A3000FA88FB8910461946FFF7A4FF1037BD4608
:101A400080BD00BF80B584B000AF0346FB800B466D
:101A5000BB8013467B80FB881846FFF769FFFFF7C2
:101A600085FF0346FB81FA89BB881340FB81FA8915
:101A70007B881343FB81FA88FB8910461946FFF7E0
:101A800081FF1037BD4680BD80B400AF034B1B887B
:101A90009BB21846BD465DF8047B7047000010609D
:101AA00080B500AF114A114B1B6843F0010313606E
:101AB0000E4B00229A600D4A0C4B1B6823F0847376
:101AC00023F480331360094B094A5A60074A074BD5
:101AD0001B6823F480231360044B0022DA6000F0BB
:101AE0000BF8044B4FF000629A6080BD0038024052
:101AF0001030002400ED00E080B483B000AF00237C
:101B00007B6000233B60354A344B1B6843F48033D1
:101B10001360324B1B6803F400333B607B68013376
:101B20007B603B68002B03D17B68B3F5A06FF0D1DD
:101B30002A4B1B6803F40033002B02D001233B60C7
:101B400001E000233B603B68012B42D1234A234B39
:101B50001B6C43F080531364214A214B1B6843F4F0
:101B6000804313601D4A1D4B9B6893601B4A1B4BAF
:101B70009B6843F400439360184A184B9B6843F4F6
:101B8000A0539360154B174A5A60144A134B1B68B5
:101B900043F08073136000BF104B1B6803F00073A9
:101BA000002BF9D0104B40F205621A600B4A0B4B28
:101BB0009B6823F003039360084A084B9B6843F03B
:101BC0000203936000BF054B9B6803F00C03082BD6
:101BD000F9D10C37BD465DF8047B704700380240F0
:101BE0000070004019544007003C024080B485B0AA
:101BF00000AF78600B4B1B68002B02D1094B0A4ADF
:101C00001A60084B1B68FB60064B1A687B6813441C
:101C1000044A1360FB6818461437BD465DF8047B20
:101C2000704700BF0CA20120E8A2012080B588B057
:101C300000AF0346FB710123FB774FF08050012179
:101C4000FFF7DAF80120FEF717FB132001F0ACF8DC
:101C5000B861BB6944F2213293421AD1334B44F24A
:101C600021321A60FB79002B02D1002000F0F2F93A
:101C700000F034FD4FF4804001F036F94FF480005D
:101C800000F03AFC07F108031846002100F092F931
:101C900040E0BB6941F2342293421AD1234B41F216
:101CA00034221A60FB79002B02D1002000F0D2F917
:101CB00000F014FD4FF4804001F016F94FF480005D
:101CC00000F01AFC07F108031846002100F072F931
:101CD00020E0164B00221A600023FB77FB791846A0
:101CE00000F0B8F90123FB730123BB7301233B749C
:101CF00000237B7400237B7300233B7300233B7220
:101D000007F108031846002100F012F8074B41F2D2
:101D100034221A60FB7F002B01D1002301E0034B2A
:101D20001B6818462037BD4680BD00BF10A20120A9
:101D300090B587B000AF78600B46FB70FB78012B45
:101D400077D17B68DB791B09DBB21A46920013441A
:101D50005B00DAB27B68DB7903F00F03DBB213447C
:101D6000DBB2FB737B681B7A1B09DBB21A4692005D
:101D700013445B00DAB27B681B7A03F00F03DBB21B
:101D80001344DBB23B747B685B7A1B09DBB21A46F7
:101D9000920013445B00DAB27B685B7A03F00F03B6
:101DA000DBB21344DBB27B747B685B791B09DBB26B
:101DB0001A46920013445B00DAB27B685B7903F049
:101DC0000F03DBB21344DBB27B737B681B791B0907
:101DD000DBB21A46920013445B00DAB27B681B79CF
:101DE00003F00F03DBB21344DBB23B737B681B7859
:101DF0001B09DBB21A46920013445B00DAB27B681F
:101E00001B7803F00F03DBB21344DBB23B727B6839
:101E10009B791B09DBB21A46920013445B00DAB2CD
:101E20007B689B7903F00F03DBB21344DBB2BB7317
:101E300014E07B68DB79FB737B681B7A3B747B68FF
:101E40005B7A7B747B685B797B737B681B793B7304
:101E50007B681B783B727B689B79BB737B7C632BB5
:101E60004BD83B7C002B48D03B7C0C2B45D8FB7BD4
:101E7000002B42D0F97B7B7C03F00303002B0ED1B7
:101E80007B7C03F5FA62454B83FB02035811D317A1
:101E9000C31A642000FB03F3D31A002B0FD17B7C01
:101EA00003F5FA623D4B83FB0203D811D317C31A23
:101EB0004FF4C87000FB03F3D31A002B01D10122A9
:101EC00000E000223B7C581E354C13465B00134457
:101ED0009B00034423441B7899420ED87B7B172B2D
:101EE0000BD83B7B3B2B08D83B7A3B2B05D8BB7BE5
:101EF000002B02D0BB7B072B01D901234AE07B6872
:101F00005A79284B1A707B681A79264B5A707B686D
:101F10001A78244B9A707B68DA79234B9A707B6825
:101F20001A7A214B5A707B685A7A1F4BDA707B6899
:101F30009A791D4B1A701D4B00221A601B4B1F22F1
:101F40005A601A4B40F2FF329A60184800F042FB88
:101F5000FB78012B04D10120124900F0FBFB03E0C8
:101F60000020104900F0F6FBFB78012B04D1012082
:101F70000D4900F0BFFC03E000200B4900F0BAFC63
:101F80000B4B1B68002B04D0132044F2213100F0CE
:101F9000F1FE002318461C37BD4690BD1F85EB514E
:101FA00074990120C4A20120D4A20120C8A201205A
:101FB00010A2012080B584B000AF78600B46FB70A2
:101FC000FB78002B04D100201F4900F045FC03E002
:101FD00001201D4900F040FC1B4B1A787B685A71A8
:101FE000194B5A787B681A71174B9A787B681A706C
:101FF000164B9B6A9AB27B685A80FB78002B04D1FF
:102000000020134900F0FCFC03E00120104900F01F
:10201000F7FC0F4BDA787B685A720D4B5A787B6865
:102020001A720B4B9A787B68DA71094B1A787B68C5
:102030009A71786800F0E2F8F8607B68FA68DA6014
:102040001037BD4680BD00BFC4A20120002800405B
:10205000D4A2012080B582B000AF0346FB71FB79AA
:10206000002B0ED10120FEF73DFE00BF6120FEF7E0
:10207000FFFE0346002BF9D04FF40070FEF742FE3E
:1020800010E0FB79012B0DD10120FEF70BFE00BF04
:102090004120FEF7EDFE0346002BF9D04FF480708F
:1020A000FEF730FE0120FEF75BFE00F017FB132069
:1020B00041F2342100F05EFE0837BD4680BD00BF0E
:1020C00080B584B000AF0346FB714FF4800000F090
:1020D00013FA002000F004FE4FF48040002100F0CD
:1020E0007BFE424B03221A70404B04225A703F4B36
:1020F00000229A703D4B0022DA703C4800F00AFA48
:102100003B4B4FF480021A60394B00221A71384B56
:1021100008225A71364B00229A71354800F056F960
:10212000FB79002B5FD0314B0122DA702F4800F091
:10213000F1F92F4B01229A712D4800F047F9002048
:1021400000F0CEFDFB79012B02D12A4BFB603CE075
:10215000FB79022B02D1284BFB6036E0FB79032B85
:1021600003D14EF6FF73FB602FE0FB79042B03D104
:1021700049F6FF73FB6028E0FB79052B03D144F699
:10218000FF73FB6021E0FB79062B03D141F6FF735F
:10219000FB601AE0FB79072B03D140F6FF73FB606D
:1021A00013E0FB79082B03D140F2FF73FB600CE0D6
:1021B000FB79092B03D140F2FF33FB6005E0FB798B
:1021C0000A2B02D140F2FF13FB60012000F050FD0A
:1021D000F86800F06DFD4FF48040012100F0FCFD37
:1021E000012000F07DFD1037BD4680BDD8A2012042
:1021F000DCA20120FFBF0300FFDF010080B487B035
:1022000000AF786000237B610023FB607B685B7A12
:102210009BB203F5FA637B817B8940F2B1729342F2
:1022200001D8002396E040F2B2737B8229E07B8ADA
:1022300003F003039BB2002B0BD17B8A484AA2FB1D
:1022400003125209642101FB02F29B1A9BB2002B7C
:102250000CD17B8A424AA2FB0312D2094FF4C87107
:1022600001FB02F29B1A9BB2002B02D14FF4B77311
:1022700001E040F26D137A6913447B617B8A01337C
:102280007B827A8A7B899A42D1D301237B8232E096
:102290007B8903F003039BB2002B0BD17B89304A6F
:1022A000A2FB03125209642101FB02F29B1A9BB2AA
:1022B000002B0CD17B892A4AA2FB0312D2094FF4CE
:1022C000C87101FB02F29B1A9BB2002B01D10122C3
:1022D00000E000227B8A591E224813465B0013440B
:1022E0009B000B4403441B781A467B6913447B61B3
:1022F0007B8A01337B827B681B7A9BB27A8A9A4203
:10230000C6D37B68DB791A467B691344013B7B614A
:102310007B69154A02FB03F3FB607B685B791A4615
:102320004FF4616303FB02F31A46FB681344FB603E
:102330007B681B791A4613461B019B1A9B001A46A1
:10234000FB681344FB607B681B781A46FB681344E8
:10235000FB60FB6818461C37BD465DF8047B704780
:102360001F85EB51749901208051010080B400AFAA
:10237000BD465DF8047B704780B500AF4FF48040E8
:1023800000F07EFD0346002B05D04FF4804000F0A6
:10239000ABFDFEF72DFC024B4FF480025A6180BD6D
:1023A000003C014080B500AF02480421FFF75CFA11
:1023B00080BD00BF0010024080B500AF024804217C
:1023C000FFF760FA80BD00BF0010024080B485B006
:1023D00000AF78600023FB60344BFB607B689B7927
:1023E000002B4FD03149314B1A687B681B68DB43A7
:1023F00013400B602D492D4B5A687B681B68DB43EB
:1024000013404B607B681B791A46FB681344FB60E2
:10241000FB68FA6811687A6812680A431A602349EF
:10242000224B9A687B681B68DB4313408B601F4913
:102430001E4BDA687B681B68DB431340CB607B680C
:102440005B79102B0ED11949184B9A687B681B6871
:1024500013438B601549154BDA687B681B6813437F
:10246000CB601DE0114BFB607B685B791A46FB6813
:102470001344FB60FB68FA6811687A6812680A43C3
:102480001A600DE07B681B791A46FB681344FB60F9
:10249000FB68FA6811687A681268D2430A401A60C9
:1024A0001437BD465DF8047B704700BF003C014017
:1024B00080B485B000AF78600023FB730023BB605D
:1024C0000C4B1A687B681340BB600A4B5A697B68E7
:1024D0001340002B05D0BB68002B02D00123FB73F7
:1024E00001E00023FB73FB7B18461437BD465DF803
:1024F000047B7047003C014080B483B000AF78603B
:10250000034A7B6853610C37BD465DF8047B704716
:10251000003C014080B485B000AF78600023FB73BD
:102520000023BB730F237B737B68DB78002B38D0D1
:10253000264BDB68DB4303F4E0631B0AFB73FB7B86
:10254000C3F10403BB737A7BFB7B42FA03F37B7317
:102550007B685B781A46BB7B02FA03F3FB737B68EC
:102560009A787B7B1340DAB2FB7B1343FB73FB7BD4
:102570001B01FB73164A7B681B781344FA7B83F8B4
:102580000023134A7B681B785B09DBB218467B6823
:102590001B7803F01F03012101FA03F342F82030F6
:1025A0000FE00B497B681B785B09DBB218467B6840
:1025B0001B7803F01F0301229A4000F1200341F829
:1025C00023201437BD465DF8047B704700ED00E022
:1025D00000E100E080B584B000AF78600023FB73B9
:1025E000194BCA225A62184B53225A6200F02EF835
:1025F0000346002B02D10023FB731CE0124A124B4E
:102600009B6823F0400393600F490F4B9A687B68E7
:102610001B6813438B600C4A7B689B6813610A49F3
:10262000094B1A697B685B681B0413430B6100F05C
:1026300047F80123FB73044BFF225A62FB7B1846C9
:102640001037BD4680BD00BF0028004080B485B073
:1026500000AF00237B600023FB730023BB60174B9C
:10266000DB6803F04003002B1ED1144B4FF0FF3208
:10267000DA60124BDB6803F04003BB607B68013318
:102680007B607B68B3F5803F02D0BB68002BF0D045
:102690000A4BDB6803F04003002B02D00123FB73DD
:1026A00004E00023FB7301E00123FB73FB7B18466E
:1026B0001437BD465DF8047B704700BF002800401A
:1026C00080B400AF044A044BDB6823F08003D3607E
:1026D000BD465DF8047B70470028004080B485B09B
:1026E00000AF00237B600023FB730023BB60184B0B
:1026F000CA225A62164B53225A62154A144BDB689F
:1027000023F0A003D360124BDB6803F02003BB600F
:102710007B6801337B607B68B3F5003F02D0BB6808
:10272000002BF0D00A4BDB6803F02003002B02D013
:102730000123FB7301E00023FB73054BFF225A6268
:10274000FB7B18461437BD465DF8047B704700BF1D
:102750000028004090B585B000AF78603960002354
:10276000FB600023FB727B68002B09D1394B9B680F
:1027700003F04003002B14D13B680022DA7010E014
:10278000344B9B6803F04003002B07D03B681B7859
:10279000184600F0E3FB0346FB6002E03B680022C2
:1027A000DA707B68002B0FD03B681B781A043B68FB
:1027B0005B781B0213433A6892781A433B68DB78D4
:1027C0001B041343FB601BE03B681B78184600F0BA
:1027D000A7FB03461C043B685B78184600F0A0FB8F
:1027E00003461B021C433B689B78184600F098FB8D
:1027F000034644EA03023B68DB781B041343FB6097
:10280000144BCA225A62134B53225A62FFF71EFF1F
:102810000346002B02D10023FB7212E00D4AFB6835
:1028200003F07F3323F0FE431360FFF749FFFFF708
:1028300055FF0346002B02D10023FB7201E0012368
:10284000FB72044BFF225A62FB7A18461437BD46CE
:1028500090BD00BF0028004080B584B000AF786014
:1028600039600023FB60224B1B6803F07F3323F0A9
:10287000FE43FB60FB6803F47C131B0CDAB23B687D
:102880001A70FB6803F4FE431B0ADAB23B685A7005
:10289000FB68DBB203F07F03DAB23B689A70FB6837
:1028A00003F480031B0CDAB23B68DA707B68002B00
:1028B0001AD13B681B78184600F050FB03461A46B5
:1028C0003B681A703B685B78184600F047FB03468C
:1028D0001A463B685A703B689B78184600F03EFBEE
:1028E00003461A463B689A701037BD4680BD00BF4C
:1028F0000028004090B585B000AF786039600023B3
:10290000FB600023FB727B68002B0ED13B685B7879
:1029100003F01003002B08D03B685B7823F0100312
:10292000DBB20A33DAB23B685A707B68002B0DD0F9
:102930003B685B78184600F011FB0346FB603B6880
:102940009B78184600F00AFB0346FB607B68002B6F
:102950000FD03B68DB781A043B685B781B0213439B
:102960003A6892781A433B681B785B031343FB6019
:102970001BE03B68DB78184600F0D2FA03461C04E3
:102980003B685B78184600F0CBFA03461B021C43F9
:102990003B689B78184600F0C3FA034644EA0302FA
:1029A0003B681B785B031343FB60144BCA225A62DB
:1029B000124B53225A62FFF749FE0346002B02D105
:1029C0000023FB7212E00D4AFB6823F07F4323F0E3
:1029D000C0035360FFF774FEFFF780FE0346002B31
:1029E00002D10023FB7201E00123FB72034BFF22A3
:1029F0005A62FB7A18461437BD4690BD0028004045
:102A000080B584B000AF786039600023FB60224B52
:102A10005B6823F07F4323F0C003FB60FB6803F493
:102A20007F031B0CDAB23B68DA70FB6803F4F853DF
:102A30001B0ADAB23B685A70FB68DBB203F03F0353
:102A4000DAB23B689A70FB6803F460435B0BDAB25E
:102A50003B681A707B68002B1AD13B68DB781846FC
:102A600000F07CFA03461A463B68DA703B685B78F4
:102A7000184600F073FA03461A463B685A703B68E2
:102A80009B78184600F06AFA03461A463B689A702B
:102A90001037BD4680BD00BF0028004090B587B00C
:102AA00000AFF860B9607A6000237B61FB68002B9F
:102AB00009D1474B9B6803F04003002B27D17B686B
:102AC0000022DA7023E0424B9B6803F04003002BA6
:102AD00007D07B681B78184600F040FA03467B61FC
:102AE00002E07B680022DA707B689B68002B07D1CC
:102AF0007B681B7B184600F031FA03467B6106E0D9
:102B00007B681B7B184600F029FA03467B61FB6853
:102B1000002B19D07B681B781A047B685B781B023A
:102B200013437A6892781A437B68DB781B041A4354
:102B30007B681B7B1B061A437B689B681A437B6878
:102B40005B6813437B612BE07B681B78184600F0C1
:102B5000E7F903461C047B685B78184600F0E0F94F
:102B600003461B021C437B689B78184600F0D8F98B
:102B7000034644EA03027B68DB781B0442EA030451
:102B80007B681B7B184600F0CBF903461B0644EA22
:102B900003027B689B681A437B685B6813437B6115
:102BA0000B4BCA225A620A4B53225A62BB68B3F5D6
:102BB000807F03D1064A7B69D36102E0044A7B69C6
:102BC0001362034BFF225A621C37BD4690BD00BF03
:102BD0000028004080B487B000AF78600B46FB70DF
:102BE0000023FB6000233B610023FB751F4BCA22BF
:102BF0005A621E4B53225A62FB78002B08D01B49A5
:102C00001A4B9A687B6813438B600123FB7522E0A3
:102C10001649164B9A687B68DB4313408B60134B55
:102C2000DA687B681B0A13403B61FB680133FB6079
:102C3000FB68B3F5803F02D03B69002BEFD00B4B14
:102C4000DA687B681B0A1340002B02D10023FB7556
:102C500001E00123FB75054BFF225A62FB7D1846FC
:102C60001C37BD465DF8047B704700BF002800405C
:102C700080B483B000AF78600C4BCA225A620B4B11
:102C800053225A62094A094B9B6823F00703936059
:102C90000649064B9A687B6813438B60034BFF22FF
:102CA0005A620C37BD465DF8047B7047002800402F
:102CB00080B483B000AF7860084BCA225A62074BD9
:102CC00053225A62054A7B685361044BFF225A62C1
:102CD0000C37BD465DF8047B704700BF00280040FC
:102CE00080B487B000AF0346FB710023FB60002374
:102CF0003B610023FB751E4BCA225A621C4B5322B8
:102D00005A62FB79002B08D0194A194B9B6843F48F
:102D1000806393600123FB751FE0154A144B9B6889
:102D200023F480639360124BDB6803F004033B6180
:102D3000FB680133FB60FB68B3F5803F02D03B6961
:102D4000002BF0D00A4BDB6803F00403002B02D108
:102D50000023FB7501E00123FB75054BFF225A623E
:102D6000FB7D18461C37BD465DF8047B704700BFED
:102D70000028004080B485B000AF7860396000233F
:102D8000FB60084BFB607B689A00FB681344FB60A8
:102D9000FB681A463B6813601437BD465DF8047B38
:102DA000704700BF5028004080B485B000AF786005
:102DB0000023FB60074BFB607B689A00FB681344B1
:102DC000FB60FB681B6818461437BD465DF8047B42
:102DD000704700BF5028004080B483B000AF7860D7
:102DE0000B46FB70194BCA225A62184B53225A6287
:102DF000FB78002B10D01549144B9A687B6823F0A0
:102E0000040313438B601149104B1A6C7B6803F069
:102E1000040313430B6411E00C490C4B9A687B6864
:102E200023F00403DB4313408B600849074B1A6C03
:102E30007B6803F00403DB4313400B64034BFF2266
:102E40005A620C37BD465DF8047B7047002800408D
:102E500080B483B000AF786008497B689BB243F0D0
:102E60008003DA43054BDB6803F080031343CB6038
:102E70000C37BD465DF8047B704700BF002800405A
:102E800080B487B000AF78600023FB7500233B61FE
:102E90000023FB60134B1B6C03F004033B61114BDD
:102EA0009A687B681A407B68D90B3B690B401343D7
:102EB000FB600C4BDA687B681B0913403B61FB68C5
:102EC000002B06D03B699BB2002B02D00123FB757F
:102ED00001E00023FB75FB7D18461C37BD465DF8FD
:102EE000047B70470028004080B485B000AF786054
:102EF0000023FB607B681B09FB600849FB689BB2F1
:102F000043F08003DA43054BDB6803F0800313438F
:102F1000CB601437BD465DF8047B70470028004045
:102F200080B485B000AF0346FB710023FB7305E05E
:102F3000FB7B0133FB73FB790A3BFB71FB79092BAC
:102F4000F6D8FB7B1B01DAB2FB791343DBB21846E0
:102F50001437BD465DF8047B704700BF80B485B070
:102F600000AF0346FB710023FB73FB791B09DBB247
:102F70001A46920013445B00FB73FB7903F00F03C6
:102F8000DAB2FB7B1344DBB218461437BD465DF85A
:102F9000047B704780B485B000AF7860396000234F
:102FA000FB817B681B88FB817B68284A934213D096
:102FB0007B68274A93420FD07B68B3F1804F0BD0D8
:102FC0007B68244A934207D07B68234A934203D00C
:102FD0007B68224A934208D1FB8923F07003FB816E
:102FE0003B685A88FB891343FB817B681C4A9342E8
:102FF0000CD07B681B4A934208D0FB8923F44073B2
:10300000FB813B681A89FB891343FB817B68FA8942
:103010001A803B685A687B68DA623B681A887B686A
:103020001A857B68094A934203D07B68084A934219
:1030300004D13B689B7A9AB27B681A867B6801222E
:103040009A821437BD465DF8047B7047000001404A
:10305000000401400004004000080040000C004053
:10306000001000400014004080B483B000AF7860CE
:1030700039607B683A685A620C37BD465DF8047B5C
:10308000704700BF80B483B000AF78600B46FB7020
:10309000FB78002B08D07B681B889BB243F00103B0
:1030A0009AB27B681A8007E07B681B889BB223F08A
:1030B00001039AB27B681A800C37BD465DF8047B29
:1030C000704700BF80B485B000AF786039600023DE
:1030D0007B810023FB810023BB817B681B8C9BB21F
:1030E00023F001039AB27B681A847B681B8CFB81F6
:1030F0007B689B88BB817B681B8B7B817B8923F0F2
:1031000070037B817B8923F003037B813B681A88F2
:103110007B8913437B81FB8923F00203FB813B689E
:103120009A89FB891343FB813B685A88FB891343C7
:10313000FB817B681E4A934203D07B681D4A934201
:1031400023D1FB8923F00803FB813B68DA89FB89E3
:103150001343FB81FB8923F00403FB813B689A88BE
:10316000FB891343FB81BB8923F48073BB81BB893B
:1031700023F40073BB813B681A8ABB891343BB816C
:103180003B685A8ABB891343BB817B68BA899A80A2
:103190007B687A891A833B689A687B685A637B6884
:1031A000FA891A841437BD465DF8047B704700BF66
:1031B000000001400004014080B485B000AF786099
:1031C0000B467B800023FB817B681B8BFB81FB898B
:1031D00023F00803FB81FA897B881343FB817B681A
:1031E000FA891A831437BD465DF8047B704700BF27
:1031F00080B485B000AF78600B467B800023FB7302
:103200000023BB8100237B817B681B8A9AB27B8869
:103210001340BB817B689B899AB27B8813407B817A
:10322000BB89002B05D07B89002B02D00123FB73C7
:1032300001E00023FB73FB7B18461437BD465DF8A5
:10324000047B704780B483B000AF78600B467B800E
:103250007B88DB439AB27B681A820C37BD465DF8E7
:10326000047B704781F0004102E000BF83F000431F
:1032700030B54FEA41044FEA430594EA050F08BF11
:1032800090EA020F1FBF54EA000C55EA020C7FEAD5
:10329000645C7FEA655C00F0E2804FEA5454D4EB52
:1032A0005555B8BF6D420CDD2C4480EA020281EA1C
:1032B000030382EA000083EA010180EA020281EA54
:1032C0000303362D88BF30BD11F0004F4FEA0131A6
:1032D0004FF4801C4CEA113102D0404261EB4101B5
:1032E00013F0004F4FEA03334CEA133302D052423B
:1032F00063EB430394EA050F00F0A780A4F10104F7
:10330000D5F1200E0DDB02FA0EFC22FA05F2801830
:1033100041F1000103FA0EF2801843FA05F3594116
:103320000EE0A5F120050EF1200E012A03FA0EFC95
:1033300028BF4CF0020C43FA05F3C01851EBE371BF
:1033400001F0004507D54FF0000EDCF1000C7EEBDC
:1033500000006EEB0101B1F5801F1BD3B1F5001F1A
:103360000CD349085FEA30004FEA3C0C04F1010439
:103370004FEA445212F5800F80F09A80BCF1004F62
:1033800008BF5FEA500C50F1000041EB045141EAE4
:10339000050130BD5FEA4C0C404141EB010111F4E5
:1033A000801FA4F10104E9D191F0000F04BF014690
:1033B0000020B1FA81F308BF2033A3F10B03B3F16E
:1033C00020020CDA0C3208DD02F1140CC2F10C02FE
:1033D00001FA0CF021FA02F10CE002F11402D8BF5C
:1033E000C2F1200C01FA02F120FA0CFCDCBF41EA28
:1033F0000C019040E41AA2BF01EB0451294330BDF7
:103400006FEA04041F3C1CDA0C340EDC04F11404D3
:10341000C4F1200220FA04F001FA02F340EA0300AA
:1034200021FA04F345EA030130BDC4F10C04C4F1F0
:10343000200220FA02F001FA04F340EA03002946D0
:1034400030BD21FA04F0294630BD94F0000F83F41A
:10345000801306BF81F480110134013D4EE77FEAFD
:10346000645C18BF7FEA655C29D094EA050F08BF49
:1034700090EA020F05D054EA000C04BF194610462A
:1034800030BD91EA030F1EBF0021002030BD5FEA6E
:10349000545C05D14000494128BF41F0004130BD96
:1034A00014F580043CBF01F5801130BD01F00045EA
:1034B00045F0FE4141F470014FF0000030BD7FEA5D
:1034C000645C1ABF194610467FEA655C1CBF0B4658
:1034D000024650EA013406BF52EA033591EA030F6F
:1034E00041F4002130BD00BF90F0000F04BF002167
:1034F000704730B54FF4806404F132044FF000059A
:103500004FF0000150E700BF90F0000F04BF002112
:10351000704730B54FF4806404F1320410F0004578
:1035200048BF40424FF000013EE700BF42004FEA73
:10353000E2014FEA31014FEA02701FBF12F07F43F0
:1035400093F07F4F81F06051704792F0000F14BFED
:1035500093F07F4F704730B54FF4607401F0004531
:1035600021F0004120E700BF50EA010208BF704788
:1035700030B54FF000050AE050EA010208BF70477D
:1035800030B511F0004502D5404261EB41014FF4E6
:10359000806404F132045FEA915C3FF4DCAE4FF0EA
:1035A00003025FEADC0C18BF03325FEADC0C18BFD1
:1035B000033202EBDC02C2F1200300FA03FC20FA22
:1035C00002F001FA03FE40EA0E0021FA02F114446F
:1035D000C1E600BF70B54FF0FF0C4CF4E06C1CEA84
:1035E00011541DBF1CEA135594EA0C0F95EA0C0FF9
:1035F00000F0DEF82C4481EA030621EA4C5123EA6C
:103600004C5350EA013518BF52EA033541F480119A
:1036100043F4801338D0A0FB02CE4FF00005E1FB4D
:1036200002E506F00042E0FB03E54FF00006E1FB97
:1036300003569CF0000F18BF4EF0010EA4F1FF04DA
:10364000B6F5007F64F5407404D25FEA4E0E6D411A
:1036500046EB060642EAC62141EA55514FEAC5202B
:1036600040EA5E504FEACE2EB4F1FD0C88BFBCF5A7
:10367000E06F1ED8BEF1004F08BF5FEA500E50F158
:10368000000041EB045170BD06F0004646EA01011E
:1036900040EA020081EA0301B4EB5C04C2BFD4EB50
:1036A0000C0541EA045170BD41F480114FF0000E49
:1036B000013C00F3AB8014F1360FDEBF002001F0B7
:1036C000004170BDC4F10004203C35DA0C341BDC31
:1036D00004F11404C4F1200500FA05F320FA04F003
:1036E00001FA05F240EA020001F0004221F0004137
:1036F00010EBD37021FA04F642EB06015EEA430EAA
:1037000008BF20EAD37070BDC4F10C04C4F12005D9
:1037100000FA04F320FA05F001FA04F240EA02008C
:1037200001F0004110EBD37041F100015EEA430E5D
:1037300008BF20EAD37070BDC4F1200500FA05F27D
:103740004EEA020E20FA04F301FA05F243EA0203FC
:1037500021FA04F001F0004121FA04F220EA02000B
:1037600000EBD3705EEA430E08BF20EAD37070BD51
:1037700094F0000F0FD101F00046400041EB010131
:1037800011F4801F08BF013CF7D041EA060195F013
:10379000000F18BF704703F00046520043EB0303CD
:1037A00013F4801F08BF013DF7D043EA06037047BA
:1037B00094EA0C0F0CEA135518BF95EA0C0F0CD0C5
:1037C00050EA410618BF52EA4306D1D181EA03010B
:1037D00001F000414FF0000070BD50EA410606BF05
:1037E0001046194652EA430619D094EA0C0F02D14A
:1037F00050EA013613D195EA0C0F05D152EA03368F
:103800001CBF104619460AD181EA030101F00041AC
:1038100041F0FE4141F470014FF0000070BD41F0F5
:10382000FE4141F4780170BD70B54FF0FF0C4CF4CF
:10383000E06C1CEA11541DBF1CEA135594EA0C0FEE
:1038400095EA0C0F00F0A7F8A4EB050481EA030E3B
:1038500052EA03354FEA013100F088804FEA033322
:103860004FF0805545EA131343EA12634FEA0222F0
:1038700045EA111545EA10654FEA00260EF00041B1
:103880009D4208BF964244F1FD0404F5407402D203
:103890005B084FEA3202B61A65EB03055B084FEA94
:1038A00032024FF480104FF4002CB6EB020E75EB91
:1038B000030E22BFB61A754640EA0C005B084FEAB9
:1038C0003202B6EB020E75EB030E22BFB61A754636
:1038D00040EA5C005B084FEA3202B6EB020E75EB81
:1038E000030E22BFB61A754640EA9C005B084FEAF9
:1038F0003202B6EB020E75EB030E22BFB61A754606
:1039000040EADC0055EA060E18D04FEA051545EAF4
:1039100016754FEA06164FEAC30343EA52734FEA9D
:10392000C2025FEA1C1CC0D111F4801F0BD141EA16
:1039300000014FF000004FF0004CB6E711F4801F7B
:1039400004BF01430020B4F1FD0C88BFBCF5E06F5B
:103950003FF6AFAEB5EB030C04BFB6EB020C5FEA6B
:10396000500C50F1000041EB045170BD0EF0004EC0
:103970004EEA113114EB5C04C2BFD4EB0C0541EAF2
:10398000045170BD41F480114FF0000E013C90E6EF
:1039900045EA060E8DE60CEA135594EA0C0F08BFB3
:1039A00095EA0C0F3FF43BAF94EA0C0F0AD150EAB2
:1039B00001347FF434AF95EA0C0F7FF425AF104645
:1039C00019462CE795EA0C0F06D152EA03353FF46D
:1039D000FDAE1046194622E750EA410618BF52EAEA
:1039E00043067FF4C5AE50EA41047FF40DAF52EABE
:1039F00043057FF4EBAE12E70EB4F0B59CB021ABFB
:103A00000F4953F8042B019305466FF000440868F2
:103A100002954FF402774FF6FF7602A90695ADF8AE
:103A2000147004940794ADF8166000F00BF8029B34
:103A300000221A701CB0BDE8F04003B0704700BF10
:103A4000B89D01202DE9F04FC1B089460A920E932E
:103A5000089002F023FA03681793184603F0CEF893
:103A6000B9F80C3018901A0604D5D9F81030002B8C
:103A700001F08C80002330AF139325932493169389
:103A800019930B932397149315933C464E460A9D26
:103A90002B78002B00F0A980252B02D1A5E0252B47
:103AA00003D015F8013F002BF9D10A9BEB1A73B133
:103AB000249A25990A98206001321944072A6360E4
:103AC0002591249272DC08340B9A1A440B922B78BD
:103AD000002B00F0B5870023691C6D788DF86F30DE
:103AE0001A460C9307934FF0FF3A4B1CA5F12001A7
:103AF000582900F2D983DFE811F07002D703D70309
:103B00007403D703D703D703D703D703D703F00230
:103B10000D02D703F4011102D7037B03BA02BA02E4
:103B2000BA02BA02BA02BA02BA02BA02BA02D70397
:103B3000D703D703D703D703D703D703D703D703B5
:103B4000D703C9028B03D7038B03D703D703D7034C
:103B5000D7036D03D703D7030503D703D703D703D1
:103B6000D703D7032303D703D7033D03D703D703D3
:103B7000D703D703D703D703D703D703D703D70375
:103B800058032C028B038B038B03FE022C02D703FA
:103B9000D703E602D7037E02FB01C0037702D703F7
:103BA0009202D7037A00D703D7034A0208980793F3
:103BB000314623AA03F050F850B93C46079B83E7EF
:103BC0000898314623AA03F047F8002800F08581C1
:103BD000B146B9F80C3013F0400F0B9B18BF4FF0F3
:103BE000FF33184641B0BDE8F08F0A9D6FE70A9396
:103BF000079B980640F1AD820E9B03F1070929F05F
:103C0000070303F10802D3E900890E9201234FF064
:103C1000000C8DF86FC0CDF844A0BAF1000F03DBA3
:103C2000079A22F08002079258EA090240F04C837A
:103C3000BAF1000F00F05184012B00F04F83022BEA
:103C400000F0908439464FEAD80242EA49724FEABE
:103C5000D90008F0070381469046303358EA09023C
:103C600001F8013DEFD1079A1091D20700F1448588
:103C70007B1A0D930D9A92455346B8BF134609938C
:103C800000231293BCF1000F02D0099B013309936A
:103C9000079B13F002030F9302D0099B0233099391
:103CA000079B13F0840940F00C830C9B099AC2EB2C
:103CB0000308B8F1000F40F30483B8F1100F259901
:103CC000249ADFF844A529DD53464FF0100BC24675
:103CD000A8461D4606E0AAF1100ABAF1100F04F139
:103CE000080417DD01321031072A2591249284E857
:103CF0002008F0DD0898314623AA02F0ADFF002825
:103D00007FF466AFAAF1100ABAF1100F2599249A30
:103D10003C46E7DC2B464546D0469A46013208EB46
:103D2000010B072ACDF894B02492C4F800A0C4F87F
:103D3000048000F37B849DF86FC00834BCF1000F51
:103D40000FD0249B01330BF1010B0DF16F01012208
:103D5000072BCDF894B0249384E8060000F3DA83AF
:103D600008340F9B73B1249B01330BF1020B1CA988
:103D70000222072BCDF894B0249384E8060000F3C8
:103D8000D5830834B9F1800F00F01183119B0D9A8F
:103D9000C2EB030ABAF1000F3CDDBAF1100F249A0E
:103DA000DFF868942BDD49465B46A9464FF01008C2
:103DB000DDF820B00D4606E0AAF1100ABAF1100FA6
:103DC00004F1080417DD01321033072A25932492E9
:103DD00084E82001F0DD5846314623AA02F03CFF7A
:103DE00000287FF4F5AEAAF1100ABAF1100F259B56
:103DF000249A3C46E7DC9B462B464D4699460132C9
:103E0000D344072ACDF894B0249284E8000600F346
:103E100075830834079BD90500F16C82249B0D99AA
:103E2000109A226001338B44072BCDF894B0616067
:103E3000249300F346830834079B5A0741D50C9B13
:103E4000099A9D1A002D3CDD102D249BDFF8B8A3A4
:103E500023DD4FF010085A46DDF8209004E0103DB5
:103E6000102D04F1080417DD01331032072B2592C1
:103E70002493C4F800A0C4F80480F0DD484631461D
:103E800023AA02F0E9FE00287FF4A2AE103D102D17
:103E9000259A249B3C46E7DC93460133AB44072B31
:103EA000CDF894B02493C4F800A0656009DD0898AB
:103EB000314623AA02F0D0FE00287FF489AEDDF857
:103EC00094B00B9B099A0C998A42ACBF9B185B1863
:103ED0000B93BBF1000F7FF473AE002324933C4699
:103EE000D5E5194607981D7840F004000790FCE5D9
:103EF0000A93079B13F0200300F00E810E9B03F141
:103F0000070929F0070303F10802D3E900890E929B
:103F100000237CE61D7819462B22E6E51D782A2D24
:103F200003F1010100F0AD87A5F1300009280B462F
:103F30004FF0000A3FF6DAAD13F8015B0AEB8A0A8C
:103F400000EB4A0AA5F130000928F5D94AEAEA7AD5
:103F5000CCE50A93079B8DF86F209B0640F1A1806A
:103F60000E9B03F1070929F00709D9E9002309F19C
:103F700008010E9190469946002A73F10003C0F2A1
:103F80000B849DF86FC0CDF844A0012345E60A9349
:103F90009B4B1693079B8DF86F209B0640F1F38097
:103FA0000E9B03F1070929F00703D3E9008903F108
:103FB00008020E92079BD90740F1F58058EA0903E1
:103FC00000F0F180079A8DF87150302342F0020220
:103FD0008DF870300792022319E61D781946002AE1
:103FE0007FF483AD202280E5079941F020010791FD
:103FF0001D78194679E50A93079B8DF86F209A067C
:1040000040F1A1840B990E9A4FEAE17913680846B2
:104010008846043249460E92C3E9000137E50E9AFC
:104020000A93136810934FF0000B8DF86FB002F1F4
:104030000409002B00F03B86BAF1000F1098C0F283
:10404000E9855946524602F0BFF9002800F06C8617
:10405000109BCDF844B0C31A0D93CDF8389023EAE5
:10406000E3730993CDF848B09DF86FC00AE6A5F157
:104070003000002113F8015B01EB810100EB4101ED
:10408000A5F130000928F5D90C912FE50A93079B7B
:104090008DF86F2043F010030793079B9B063FF5B5
:1040A0005FAF079BD80600F16883079B590640F174
:1040B00064830E99B1F9008004314FEAE8794246F1
:1040C0004B460E9158E71D7807996C2D00F0CB8474
:1040D00041F010010791194607E50E9D29680C91E2
:1040E00008460028294601F10401C0F2B5840E916A
:1040F0001D781946F9E4079941F0400107911D78B0
:104100001946F2E40A93079B43F010030793079BB9
:1041100013F020037FF4F2AE079A12F0100240F081
:104120001983079B13F0400300F014830E99134684
:104130000A460432B1F800800E924FF0000966E59D
:104140000A93079B43F010030793079B98063FF5DC
:1041500053AD079BD90600F10683079B5A0640F131
:1041600002830E9AB2F8008004324FF00009012356
:104170000E924CE50A93234B1693079B8DF86F2004
:104180009B063FF50DAF079BD80640F1CD830E9AF5
:1041900013461B689846079B0432D9070E924FF0CE
:1041A00000093FF50BAF022331E50E990A930A6827
:1041B0008DF898200023012204319C4609920E912B
:1041C0008DF86F3026ABCDF844C0CDF848C00D92C5
:1041D00010935DE5079941F0080107911D78194694
:1041E00083E4079941F0010107911D7819467CE4A9
:1041F000079941F0800107911D78194675E400BFC9
:10420000D87C0008C47C0008A47C0008947C0008CA
:104210000A930E9B8DF86F2003F1070929F007031D
:1042200003F108020E921A6814925B6815931599AF
:10423000149802F0A5FC0128D3461498159940F073
:1042400059830022002303F0E7F9002840F0648539
:104250009DF86FC0079BBE4ADFF800E323F08003A0
:104260000793134603210020472DD8BF73460991B9
:10427000119010930D91129004E50E9807990A93EE
:10428000302203688DF870200246782541F0020143
:1042900004329846AF4B169307910E924FF00009E7
:1042A0008DF871500223B2E40A938DF86F20002D2F
:1042B00000F0C683002301229C4609928DF8985095
:1042C0007EE7DDF894B039E5012B7FF4B8ACB9F1A5
:1042D000000F08BFB8F10A0F80F01C820DF5807B3B
:1042E00008F130080BF8418DCBEB07030D93CDF8A7
:1042F00040B0BFE4652D40F3A080149815990022CA
:10430000002303F07FF9002800F04581249B924AA6
:10431000226001330BF1010B0122072BCDF894B081
:104320002493626000F3348308341D9B139A9342F4
:1043300003DB079BDA077FF57FAD249B1899179A5B
:10434000226001338B44072BCDF894B06160249335
:1043500000F390830834139B5D1E002D7FF76CAD36
:10436000102D249BDFF8F89140F3BA814FF010082C
:104370005A46DDF820A004E00834103D102D40F32B
:10438000AE8101331032072B25922493C4F800909C
:10439000C4F80480F0DD5046314623AA02F05CFCEC
:1043A00000287FF415AC259A249B3C46E5E70C9B3E
:1043B000099AC2EB030ABAF1000F7FF7E7ACBAF132
:1043C000100F249ADFF898912BDD49465B46A946E9
:1043D0004FF01008DDF820B00D4606E0AAF1100AF3
:1043E000BAF1100F04F1080417DD01321033072A67
:1043F0002593249284E82001F0DD5846314623AA13
:1044000002F02AFC00287FF4E3ABAAF1100ABAF10B
:10441000100F259B249A3C46E7DC9B462B464D46D5
:1044200099460132D344072ACDF894B0249284E807
:10443000000600F352820834A8E4139B249D012B4C
:1044400040F32082109B236001350BF10103012210
:10445000072D25932495626000F32682083418996D
:104460006160013503EB010B072D179BCDF894B06C
:104470002495236000F324820834002314981599AE
:10448000002203F0BFF8139B002840F0DE80109A52
:10449000013B013501329B44072D2495CDF894B0A2
:1044A0002260636000F30E810834199A626001355E
:1044B00093441FAB072DCDF894B0249523607FF76C
:1044C000BAAC0898314623AA02F0C6FB00287FF454
:1044D0007FABDDF894B03C46AEE4002B32D1079BB5
:1044E000D8072FD50DF5807B30230BF8413DCBEB62
:1044F00007030D93CDF840B0FFF7BCBB08983146D9
:1045000023AA02F0A9FB00287FF462ABDDF894B087
:104510003C467FE40898314623AA02F09DFB002820
:104520007FF456ABDDF894B03C461AE40898314667
:1045300023AA02F091FB00287FF44AABDDF894B087
:104540003C461FE4CDF834A01097FFF793BB00BFA3
:10455000B87C0008D87C0008F47C0008B47C000813
:10456000947C00081698BB464FEA181308F00F0118
:1045700043EA09734FEA191298469146435C0BF8D7
:10458000013D58EA0903EFD15B46CDF840B0FB1A74
:104590000D93FFF76FBB1D9D002D40F30582139A0D
:1045A00012998A421346A8BF0B461D461099002D4A
:1045B00001EB020A0BDD249B21600133AB44072B86
:1045C000CDF894B06560249300F34D830834129BBA
:1045D000002DA8BF5B1B002B1D4640F3F580102D5E
:1045E000249BDFF8F49540F3C6815A464FF010083B
:1045F000DDF820B004E00834103D102D40F3BA81FE
:1046000001331032072B25922493C4F80090C4F88C
:104610000480F0DD5846314623AA02F01DFB002835
:104620007FF4D6AA259A249B3C46E5E708983146B4
:1046300023AA02F011FB00287FF4CAAA9DF86FC0DC
:10464000DDF894B03C46FFF779BB03F1FF38B8F1D1
:10465000000F7FF72AAFB8F1100FDFF87C9525DD4A
:104660005B464FF0100ADDF820B006E0A8F1100814
:10467000B8F1100F04F1080417DD01351033072DD0
:104680002593249584E80006F0DD5846314623AA98
:1046900002F0E2FA00287FF49BAAA8F11008B8F112
:1046A000100F259B249D3C46E7DC9B460135C34407
:1046B000072DCDF894B02495C4F80090C4F8048078
:1046C0007FF7F2AE0898314623AA02F0C5FA002817
:1046D0007FF47EAADDF894B0249D3C46E5E693463F
:1046E0000133AB44072BCDF894B02493C4F8009069
:1046F00065607FF7A0ABE4E6302B109B3FF447AF3B
:10470000013B1A461093BA1A30230D9201F8013C6E
:10471000FFF7B0BABB46CDF824C0404649460A224E
:10472000002302F0C9FF3032404649460BF8012D04
:1047300000230A2202F0C0FF8046894658EA090396
:10474000EBD15B46FB1ADDF824C0CDF840B00D93E9
:10475000FFF790BA0E990A6804310E9190464FF017
:104760000009FFF754BA0E990A68043101230E912B
:1047700090464FF00009FFF74ABA0E9A1368984620
:104780004FEAE3791346043342460E93002A4B4620
:1047900073F10003BFF6F5AB4FF02D0CD8F1000814
:1047A00069EB49098DF86FC0CDF844A00123FFF7EC
:1047B00034BA0898314623AA02F04EFA00287FF452
:1047C00007AADDF894B03C46109A12991D9B0A4442
:1047D0009046139A934246DB079AD00743D4139A24
:1047E000C8EB0A05D31A9D42A8BF1D46002D0CDD5B
:1047F000249AC4F800800132AB44072ACDF894B063
:104800006560249200F367820834002DACBF5D1B05
:104810001D46002D7FF710AB102D249BDFF8B893B9
:104820007FF75EAF4FF010085A46DDF820A004E095
:104830000834103D102D7FF752AF01331032072B93
:1048400025922493C4F80090C4F80480F0DD50460B
:10485000314623AA02F000FA00287FF4B9A9259A6C
:10486000249B3C46E5E7249A189817992160013269
:104870008344072ACDF894B06060249200F30A8242
:104880000834ACE7079BD9073FF5DCAD109B2360EC
:1048900001350BF1010B0123072DCDF894B02495C0
:1048A00063607FF701AE0DE70898314623AA02F056
:1048B000D3F900287FF48CA9259B249D3C46CEE5A6
:1048C0000898314623AA02F0C7F900287FF480A98E
:1048D000DDF894B0249D3C46CFE50898314623AAE4
:1048E00002F0BAF900287FF473A9DDF894B03C46D1
:1048F000FFF74CBA02F044F9002840F0C780864622
:10490000B24AB34B119007989DF86FC0CDF848E0BC
:10491000032120F08000472DD8BF1A460991079047
:1049200010920D91FFF7AEB9079B0E9A13F0400F4E
:1049300013463FF42EAC0433B2F800800E934FF0D0
:104940000009FFF737BB079BDB060BD4079B5D060F
:1049500008D50E9A136804320E92BDF82C201A80E6
:10496000FFF795B80E9A136804320E920B9A1A60EC
:10497000FFF78DB893460133AB44072BCDF894B0C5
:104980002493C4F8009065603FF713AF08341BE729
:104990000898314623AA02F05FF900287FF418A98D
:1049A000DDF894B03C46C0E4249B8A4A226001337F
:1049B0000BF1010B0122072BCDF894B02493626018
:1049C00000F3F48008342DB9139B1BB9079BDB0758
:1049D0007FF532AA249B1898179A226001330BEBBB
:1049E0000001072B25916060249300F3F38104F10B
:1049F00008026D42002D40F3FC80102DDFF8D891A5
:104A000040F33D811024DDF8208004E00832103DA1
:104A1000102D40F3348101331031072B259124935D
:104A2000C2F800905460F1DD4046314623AA02F0FE
:104A300013F900287FF4CCA82599249B3A46E6E791
:104A4000259BB146002B3FF4C4A80898314623AA01
:104A500002F002F9FFF7BDB80C980E9140420C909D
:104A60001946FFF73FBA41F0200107915D78591CC4
:104A7000FFF73BB80898314623AA02F0EDF800286A
:104A80007FF4A6A8DDF894B03C4664E425F020034A
:104A9000BAF1FF3F0D9300F09680472B05D1BAF194
:104AA000000F14BFD3464FF0010B079B43F48073F4
:104AB0001193159BB3F1000A149B0993BBBF534696
:104AC00003F1004A00232D23662D0F9300F0AC80E4
:104AD000462D00F0A9800D9B099A452B0CBF0BF1C8
:104AE0000109D94602201DA98DE8010202911EA8E4
:104AF00021A9039053460491089800F085FA672D88
:104B0000109002D0472D40F09F80079BDB0740F1BB
:104B10008981109B03EB0908099851460022002364
:104B200002F070FD002840F0FD80219B984506D9D9
:104B300030215A1C21921970219B9845F9D8109A5E
:104B40009B1A13930D9B472B1D9B00F0DE80652D58
:104B500040F3F880662D129300F05781139B129A50
:104B6000934200F34481079BD90700F1738122EA45
:104B7000E2730D920F9A002A40F0BC800993119BBA
:104B8000079311929DF86FC0FFF77CB808984021F9
:104B900001F088F9C9F80000C9F81000002800F0F9
:104BA0008C814023C9F81430FEF764BF0898314661
:104BB00023AA02F051F800287FF40AA81D9DDDF811
:104BC00094B03C46FFE64FF0060B6EE7C07C000851
:104BD000BC7C0008F47C0008947C000808983146EE
:104BE00023AA02F039F800287EF4F2AF2599249B1D
:104BF0003A46139C5460013301EB040B072B1099C8
:104C0000CDF894B0249311603FF75BAC02F1080437
:104C1000FFF712B9CDF844B001F0F0FFCDF83890AD
:104C20000D900346FFF71BBA03201DA98DE801086C
:104C300002911EA821A90390099A0491534608984D
:104C400000F0E2F9D9461090109B03EB09080D9B88
:104C5000462B7FF461AF109B1B78302B00F0E48073
:104C60001D9B984458E70898314623AA01F0F4FFA9
:104C700000287EF4ADAFDDF894B03C46A7E40133E4
:104C80002944072B25912493C2F800905560A5DC98
:104C90000832AEE70898314623AA01F0DDFF00286C
:104CA0007EF496AF1D9BDDF894B03C4697E55346E5
:104CB000062B28BF06230D9323EAE373DDF840C0DB
:104CC0000993834BCDF83890CDF844C0CDF848C057
:104CD0001093FEF7D7BF0898314623AA01F0BCFF16
:104CE00000287EF475AF1D9B139ADDF894B0D31A9B
:104CF0003C468AE50993119B07934FF02D0C002346
:104D00008DF86FC01193FEF7C0BFDA1C19DB9B450D
:104D100017DB1293672521E74FF02D0C8DF86FC03C
:104D2000FFF798BA43460AE72AEAEA731190CDF8EA
:104D3000389012909DF86FC00993CDF834A0FEF71B
:104D4000A1BF023D013B002B1D93BABF5B422D2248
:104D50002B22092B8DF87C508DF87D2072DD0DF112
:104D60008B0E70465B4A82FB0321DA17C2EBA1026D
:104D700002EB8201A3EB410303F13001092A134640
:104D800000F8011DEEDC02463033D9B202F8011DF5
:104D9000964540F299800DF17E02034601E013F83A
:104DA000011B02F8011B7345F9D123AB1B1A0DF14E
:104DB0007E0213441FAA9B1A139A1993012A1344C3
:104DC0000D936BDD0D9B002201330D93129223EAAC
:104DD000E373CFE60898314623AA01F03DFF00288F
:104DE0007EF4F6AE1D9D2599249B3A4601E6129B62
:104DF000002BD8BFC3F10208139BC8BF4FF00108B6
:104E000043440D9323EAE373B4E6002B30DDBBF19A
:104E1000000F25D1079BDB0722D4129A0D9222EABC
:104E2000E273A7E6219B8AE60998514600220023F7
:104E300002F0E8FB00287FF413AFC9F101031D93D2
:104E4000984469E6303330228DF87F308DF87E202B
:104E500020ABAFE7129B01330D9323EAE37389E69E
:104E6000129B0BF1010843440D9323EAE37381E69F
:104E7000BBF1000F1BD1079BD80718D401230D935A
:104E800078E60E9DD5F800A028460430BAF1000F50
:104E90005D780E90BEF629AEFEF725BE079B13F097
:104EA00001038FD112930D9B23EAE37362E60BF1AA
:104EB00002030D9323EAE3735CE6089A0C23136064
:104EC0004FF0FF30FEF78EBE0DF17E0372E700BF9C
:104ED000EC7C00086766666602690B69934200F322
:104EE0008F802DE9F04F03F1FF3801F1140700F135
:104EF000140B57F828205BF828304FEA880483B059
:104F00000132B3FBF2F90BEB0403009407EB040A44
:104F10000193B9F1000F3BD000263246BC46DE4675
:104F200034465CF8046BDEF80050B3B2360C03FB79
:104F3000094406FB09F606EB1446A3B2D31AB4B231
:104F400013FA85F3C4EB154404EB23449BB243EA04
:104F50000443E2454FEA24424EF8043B4FEA16442C
:104F6000DFD2009B5BF8033093B9019C231F9B4564
:104F70000CD254F8043C4BB9A4F1080302E01A68BF
:104F8000043B1AB99B4508F1FF38F8D3C0F81080EC
:104F9000044601F00BFD00282EDB09F101095D46F6
:104FA000002357F8041B28688AB29A1A090C12FACF
:104FB00080F2C1EB104303EB224391B241EA03417B
:104FC000BA4545F8041B4FEA2343EAD25BF8282090
:104FD0000BEB880382B91A1F93450BD253F8042CAC
:104FE00042B9083B02E01A68043B1AB99B4508F134
:104FF000FF38F8D3C4F81080484603B0BDE8F08FFE
:1050000000207047000000002DE9F04F016C97B0C0
:105010000446239DCDE9022341B1426C4A6001233D
:1050200093408B6001F0DEFA00232364DDE9022364
:10503000002B994636DB00232B60A54B1A4609EA64
:105040000303934217D0DDE9026700223046394658
:10505000002302F0D7FA804600282BD0229A0123A1
:105060001360249B002B00F0CB809A481860013815
:1050700017B0BDE8F08F229A42F20F731360029BC3
:10508000002B00F0A6809448249B002BF0D0C3781E
:10509000002B00F0B78000F10803249A136017B0CA
:1050A000BDE8F08F039A012322F000492B60CDF870
:1050B0000C90C2E715AA14AB8DE80C0020463246CE
:1050C0003B4601F001FD5FEA1955834640F08A80B6
:1050D000DDF85080159D6FF4826345449D42C0F217
:1050E00097827E4A521B09FA02F9029A05F212438C
:1050F00022FA03F049EA0000FEF7F6F90123013D28
:10510000A1F1F8710D930022754BFEF7AFF86AA379
:10511000D3E90023FEF75EFA69A3D3E90023FEF783
:10512000A7F8064628460F46FEF7EEF966A3D3E930
:105130000023FEF74FFA02460B4630463946FEF78B
:1051400097F806460F4602F08FFA3946049000227F
:105150003046002302F060FA002840F0A681049B4C
:10516000162B00F29F81049A5E4B03EBC203D3E936
:105170000001DDE9022302F06DFA002800F04E8202
:10518000049B013B049300230B93C5EB0805B5F189
:10519000010A00F1A18100230593049B002BC0F2BA
:1051A00092819A440A9300230893209B092B2BD8C1
:1051B000052B40F37086043B20930025209B023B87
:1051C000032B00F24E86DFE813F0CC03BE03B202DD
:1051D0006306414B444AC9F31300002814BF184624
:1051E000104651E7C7F3130343F07F51CDF83480E5
:1051F0003046A5F2FF3541F44011DDF8508082E7DA
:105200003A4835E7C31C48E70021616420462091F5
:1052100001F0C2F94FF0FF330693209A0C9301235B
:105220000790219220640993159B002BC0F2D28035
:10523000049A0E2A00F3CE802A4B03EBC203D3E973
:105240000089219B002BC0F28F83DDE90267424673
:105250004B4630463946FEF7E7FA02F005FA824639
:10526000FEF752F942464B46FEF7B4F90B460246AA
:1052700039463046FDF7FAFF079D0AF130032B70DF
:10528000069B012B06460F4605F1010562D0002260
:10529000174BFEF79FF90022002306460F4602F047
:1052A000B1F9002840F08380CDF808B00594DDF80E
:1052B0001CB0069C29E000BF61436F63A787D23F03
:1052C000B3C8608B288AC63FFB799F501344D33FF5
:1052D0000000F07FF57C0008047D00080EFCFFFF55
:1052E0000000F83F187D0008F87C0008F47C0008F6
:1052F00000002440FEF76EF90022002306460F4608
:1053000002F080F9002840F0DE8342464B463046EA
:105310003946FEF789FA02F0A7F98246FEF7F4F85B
:1053200042464B46FEF756F902460B463046394692
:10533000FDF79CFF0AF1300E05F801EBCBEB050EF3
:10534000744506460F464FF00002B54BD2D1DDF84A
:1053500008B0059C32463B4630463946FDF788FF8B
:1053600006460F464046494632463B4602F054F94F
:1053700048B94046494632463B4602F043F9B0B18F
:105380001AF0010F13D015F8018C07996B1E04E079
:105390008B4200F0408413F8018DB8F1390F03F10E
:1053A00001051A46F4D008F10103DBB21370204660
:1053B000594601F017F90022049B2A70229A013302
:1053C0001360249B002B00F0458307981D6017B0E5
:1053D000BDE8F08F099A002A00F08480209A012A03
:1053E00040F30483069B5F1E089BBB42C0F2A98367
:1053F000DF1B069B002BC0F29C84059D069B059A33
:1054000020461A44012105929A4401F085F9064686
:1054100065B1BAF1000F09DDAA45059A5346A8BF48
:105420002B46D21A0592ED1AC3EB0A0A089B002BF1
:105430001ADD099B002B00F07D83002F10DD314623
:105440003A46204601F00CFA06465A4631462046B6
:1054500001F06CF959468046204601F0C3F8C34676
:10546000089BDA1B40F0A2822046012101F054F98A
:105470000A9B002B804639DD01461A46204601F082
:10548000EFF9209B012B804640F396824FF00009F4
:10549000D8F8103008EB8303186901F0EFF8C0F179
:1054A00020002DE001230B936FE60498FEF72CF803
:1054B00032463B4602F0A6F800287FF450AE049B2B
:1054C000013B04934BE6059A049BD21A5B42089376
:1054D000002305920A9368E6CAF1000305934FF092
:1054E000000A5AE6089F059D099E91E7209B012B23
:1054F00040F3B3824FF000090A9B002BC8D1012072
:10550000504410F01F0000F08180C0F12003042BF4
:1055100040F3B884C0F11C00059B03440593054487
:105520008244059B002B05DD59461A46204601F0B2
:10553000E7F98346BAF1000F05DD414652462046A1
:1055400001F0DEF980460B9B002B40F06882069B41
:10555000002B40F39582099B002B71D1DDF81C9044
:10556000069F4D4602E001F047F883464146584603
:10557000FFF7B2FC00F1300C05F801CBC9EB0503D5
:10558000BB42204659464FF00A024FF00003EADBC7
:10559000079B069A012AACBF9B1801331D464FF0AA
:1055A000000A594601222046CDF808C001F0A8F9AA
:1055B0004146834601F0FAF90028DDF808C040F3BF
:1055C000F68215F8012C07996B1E04E08B4200F05F
:1055D000738213F8012D392A03F10105F6D0013247
:1055E0001A704146204600F0FDFF002E3FF4DFAE6A
:1055F000BAF1000F05D0B24503D05146204600F065
:10560000F1FF3146204600F0EDFFD0E61C2083E795
:10561000044B029A5B1B02FA03F06DE50B90B4E5B4
:1056200000002440EEFBFFFF3146002320460A2203
:1056300000F0E2FF0C9B002B064640F30C8406931F
:10564000002D05DD31462A46204601F059F906466F
:10565000B9F1000F40F0E982B146069B079A013B81
:10566000D3180893029B03F00103099317464146A0
:105670005846FFF731FC31460546584601F096F989
:105680004A4682464146204601F0B4F9C2680346C4
:1056900005F1300C002A40F0B88119465846CDF883
:1056A00018C0059301F082F9059B02901946204627
:1056B00000F098FF029ADDF818C02AB9209B1BB9A8
:1056C000099B002B00F0A783BAF1000FC0F25182B2
:1056D00005D1209B1BB9099B002B00F04A82002AB0
:1056E00000F3B782089B87F800C007F1010A9F42C8
:1056F000554600F0BA8259460A220023204600F09F
:105700007BFF4E458346314620464FF00A024FF05C
:10571000000300F0748100F06FFF494606460A223C
:105720002046002300F068FF574681469FE701238B
:105730000993219B002B40F313821F461E460C93B6
:1057400006930021172F61640AD9012204235B000C
:1057500003F114008742114602F10102F7D261649D
:10576000204600F019FF0E2E079020643FF65CAD36
:10577000002D3FF459ADDDE9022304990029CDE95C
:105780000E2340F32182B74B01F00F020D1103EB02
:10579000C203E906D3E9006740F1DB81B24BDDE9E2
:1057A0000E01D3E90823FEF73FF8CDE9020105F029
:1057B0000F054FF003088DB1DFF8AC923046394643
:1057C000EA0705D5D9E9002308F10108FDF702FF32
:1057D0006D1009F10809F3D106460F46DDE9020113
:1057E00032463B46FEF720F8CDE902010B9B43B160
:1057F000DDE9020100229D4B01F00EFF002840F080
:10580000AC824046FDF780FEDDE90223FDF7E2FEB3
:10581000974B0022FDF72CFD069B0646A1F1507721
:10582000002B00F06281049BDDF818901293099B15
:10583000002B00F021828B4B8E4903EBC90353E907
:1058400002230020FDF7F0FF32463B46FDF70EFD38
:10585000DDE90267CDE910013946304601F004FF69
:105860000546FDF751FE303502460B4630463946B7
:10587000FDF7FCFC5FFA85F8079DDDE9102385F84C
:10588000008006460F46013501F0C6FE002840F0B4
:10589000B28232463B4600207449FDF7E7FC0246DF
:1058A0000B46DDE9100101F0D5FE002840F0AC8286
:1058B000B9F1010F40F33881079BCDF84CA0CDF82A
:1058C00008B09944DDE910ABA0460DE0002067491F
:1058D000FDF7CCFC52465B4601F09EFE002840F0EE
:1058E0008E824D4500F01B81504659460022624B86
:1058F000FDF770FE0022604B82468B4630463946EB
:10590000FDF768FE0F46064601F0AEFE0446FDF7C1
:10591000FBFD02460B4630463946FDF7A7FC303406
:10592000E4B252465B4605F8014B06460F4601F0CD
:1059300073FE32463B460028C8D0129BDDF808B003
:105940000493444633E500230993219B049A1344AE
:105950000C930133002B069340F30981069E3746D2
:10596000EFE600230993E4E6069B002B3FF76DACBE
:1059700040F0628240460022404B4946FDF72AFE35
:10598000DDE9022301F05CFEDDF8188046460028C0
:1059900000F08A80219B079DDB430493414620460B
:1059A00000F020FE002E7FF42CAE00E55946204684
:1059B00000F056FF834657E5029B002B7FF466AD4F
:1059C000039BC3F31303002B7FF494AD039B23F0DD
:1059D00000473F0D3F05002F00F01A82059B013361
:1059E00005930AF1010A4FF0010985E50D9A002A95
:1059F00000F0A58103F23343089F059DFFE400F00A
:105A0000FBFD57460646814631E601462046CDF865
:105A100008C000F0E7FD0122DDF808C054E6584652
:105A2000414600F0C3FF0028BFF691AD049F5946E0
:105A3000002320460A22013F049700F0DDFD099B68
:105A40008346002B7FF4F0AD0C9B002B40F3F881D4
:105A5000069383E50798FFF70BBB029B002B7FF4AF
:105A600049ADADE7187D0008F07D00080000F03F6B
:105A700000001C400000E03F0000244000001440F3
:105A8000209B022B7FF767AD069B002B82D14146FE
:105A90000522204600F0B0FD80464146584600F001
:105AA00085FF00287FF776AF049A079931230132EA
:105AB00004920B704D1C71E7049A01320492079A0C
:105AC000312313708DE5DDF808B0059C6FE4404686
:105AD000FDF71AFDDDE90223FDF77CFD0022BC4B3A
