:020000040800F2
:1000000098AB01202904000881040008810400083D
:100010008104000881040008810400080000000039
:100020000000000000000000000000008104000843
:100030008104000800000000810400088104000819
:10004000810400088104000881040008092D0008CB
:10005000810400088104000881040008810400086C
:1000600015100008810400088104000881040008BC
:10007000810400088104000881040008810400084C
:10008000810400088104000881040008810400083C
:100090008104000881040008810400088904000824
:1000A0008104000871060008810400085D0500084D
:1000B000810400088104000881040008253D00082F
:1000C000853D0008810400088104000881040008BF
:1000D00081040008810400088104000881040008EC
:1000E00081040008291B000881040008810400081D
:1000F00081040008810400088104000881040008CC
:100100008104000881040008050C0008810400082F
:1001100081040008810400088104000881040008AB
:10012000810400088104000881040008810400089B
:10013000810400088104000881040008810400088B
:10014000810400088104000881040008810400087B
:10015000810400088104000881040008810400086B
:10016000810400088104000881040008810400085B
:10017000810400088104000881040008810400084B
:10018000810400088104000890B484B000AF0346E5
:100190000A46FB711346BB710023FB60BB7903F079
:1001A00003039B000F2202FA03F3FB601649BB799D
:1001B0009B08DBB21846144ABB799B08DBB20233BA
:1001C00052F82320FB68DB431A40831C41F82320AC
:1001D0000D48BB799B08DBB21C460B4ABB799B08D8
:1001E000DBB2023352F82320F979BB7903F0030321
:1001F0009B0001FA03F31A43A31C40F82320103795
:10020000BD4690BC704700BF0038014080B500AFCC
:1002100000F026F800F038F800F074F800F064F808
:1002200000F032F800F026F8322000F0C7FC00F0B1
:1002300017F81E2000F0C2FC00F01CF8052000F0AA
:10024000BDFC00F00DF8142000F0B8FC00F01CF824
:1002500000F04AF8014B01221A7080BD6CA3012006
:1002600080B500AF0248082101F0DEFF80BD00BF6D
:100270000008024080B500AF0248082101F0E2FF0B
:1002800080BD00BF0008024080B500AF154B88223A
:100290001A70E0201349012201F0BAF80A2000F098
:1002A0008DFC104B04221A70E4200E49012201F04B
:1002B000AFF80A2000F082FC0A4B00221A70094BAA
:1002C00000225A70074B00229A70064B0022DA7007
:1002D000BC200449042201F09BF80A2000F06EFCC7
:1002E00080BD00BF60A2012080B582B000AF0023B6
:1002F0003B713B1DE0201946012201F089F80837C7
:10030000BD4680BD80B584B000AF0023FB7341F2D1
:100310006653BB810023FB7331E0FB7B1C4A12F860
:100320003330FB72FB7B1A4ADB0013445B68DBB2A1
:100330003B71FB7B164ADB0013445B6803F47F438D
:100340001B0ADBB27B71FB7B114ADB0013445B6849
:1003500003F47F031B0CDBB2BB71FB7B0C4ADB009D
:1003600013445B681B0EDBB2FB71FA7A3B1D10462F
:100370001946042201F04CF8FB7B0133FB73FB7B35
:100380009BB2BA899A42C8D81037BD4680BD00BF1B
:100390009887000880B483B000AF0346FB71044A1D
:1003A000FB7913600C37BD465DF8047B704700BFD6
:1003B00020000E4280B584B000AF0420012100F07F
:1003C00051FB5323BB800023FB8044F61F63BB60BB
:1003D0000023BB810023BB733B1D0548194603F076
:1003E00025FA0348012103F0A5FA1037BD4680BD68
:1003F0000008004080B586B000AF7023BB800123A9
:10040000FB8002233B8243F69723FB603B1D05489C
:10041000194603F0AFFA0348082103F05DFB1837D3
:10042000BD4680BD0008004080B582B000AF0F4BD4
:100430007B600F4B3B6007E03B681A1D3A607A68AF
:10044000111D796012681A603B680A4A9342F3D31F
:1004500009480A494FF000028842B8BF40F8042B0F
:10046000FADB00F087F90837BD4680BDC8360108C1
:1004700000000020FCA10120FCA1012094A3012088
:1004800080B400AFFEE700BF80B584B004AF4FF486
:10049000007002F019FE0346002B4CD0274B1B685E
:1004A000F92B26D9264803F039FA03469AB2254B90
:1004B0001A8001204FF482715022642301F09CF9CC
:1004C000204B1B88204821491A4604F035F80023A8
:1004D00000930223019302230293042303931A48F7
:1004E0000121502240F21F5300F018FC134B002250
:1004F0001A604FF4007002F00BFE11481F21012218
:1005000003F006FB0E48002103F0FAF9104B1B899B
:100510000B48194603F0A8FA0E4B1B6801330D4A2D
:1005200013600D4B1B6801330B4A1360034B1B68B0
:100530000133024A1360BD4680BD00BF08A20120FE
:100540000000014010A2012030A30120C8320108A0
:10055000F0A2012000A2012004A2012080B584B0F5
:1005600004AF3A48022103F0F7FA0346012B6BD19E
:10057000364803F0D3F903469AB2354B1A80334814
:10058000022103F013FB334B9B79012B2FD1324B0C
:100590001B68F92B2BD901204FF4E671002212239E
:1005A00001F02AF9002001F05DFA294B1B881A4658
:1005B000294B1B6829482A4903F0BEFF00230093FA
:1005C000022301930223029304230393234801216E
:1005D000052240F21F5300F0A1FB1F4B00221A60BE
:1005E0001A4803F09BF903469AB21E4B1A8017482B
:1005F000042103F0B1FA0346012B07D1134804216B
:1006000003F0D4FA1848802101F00EFE0F480821AB
:1006100003F0A2FA0346012B07D10C48082103F08E
:10062000C5FA1248012101F0FFFD0848102103F02E
:1006300093FA0346012B07D10448102103F0B6FAC0
:100640000A48022101F0F0FDBD4680BD00000140D6
:100650000CA20120F0A2012000A2012030A3012061
:10066000D43201080EA20120000402400010024012
:1006700080B584B004AF3348012103F06DFA03461E
:10068000002B5CD02F4803F049F903469AB22E4B59
:100690001A802E4B1B892B48194603F0E5F92C4B89
:1006A0001B892848194603F0EDF92A4B1B89254878
:1006B000194603F0F5F9284B1B892248194603F027
:1006C000FDF92048012103F071FA1E481F21002284
:1006D00003F01EFA2148802101F0B4FD20480121D9
:1006E00001F0B0FD1E48022101F0ACFD1D4B1B685E
:1006F000F92B24D901204FF4E67128223C2301F084
:100700007BF8002001F0AEF9174B1B881A46154BF9
:100710001B681648164903F00FFF002300930223BD
:1007200001930223029304230393104801212822FA
:1007300040F21F5300F0F2FA0A4B00221A60BD4645
:1007400080BD00BF000001400EA20120F0A20120E8
:10075000E0A2012010A3012000A301200004024018
:100760000010024004A201200CA2012030A30120AD
:10077000EC32010880B500AF01F0BAFD02F0DAFA00
:1007800000F0E6F900F05CFAFFF734FE4FF4FA707F
:1007900000F014FA00F004FF0A2000F00FFA002025
:1007A000012100F081FB00F0F3FE4FF4FA6000F04D
:1007B00005FA00F015FC00F01FFCFEE780B483B0E2
:1007C00000AF0346FB710C4B00221A700A4B00224B
:1007D0001A70FB79012B02D0042B04D007E0064BE2
:1007E00001221A7003E0044B05221A7000BF0C3777
:1007F000BD465DF8047B70477038024080B483B01A
:1008000000AF0346FB71044AFB7913600C37BD4609
:100810005DF8047B704700BF800E474280B489B00A
:1008200000AF78600023BB6100237B610023FB6184
:1008300002233B610023FB600223BB60484B9B68A3
:1008400003F00C03BB61BB69042B07D0082B09D054
:10085000002B3FD17B68434A1A603FE07B68424AE5
:100860001A603BE03E4B5B6803F480039B0DFB602A
:100870003B4B5B6803F03F03BB60FB68002B0DD074
:10088000394ABB68B2FBF3F2354B596847F6C0737F
:100890000B409B0903FB02F3FB610CE0314ABB6890
:1008A000B2FBF3F22E4B596847F6C0730B409B091D
:1008B00003FB02F3FB612A4B5B6803F440331B0C20
:1008C00001335B003B61FA693B69B2FBF3F27B6881
:1008D0001A6003E07B68234A1A6000BF204B9B68C4
:1008E00003F0F003BB61BB691B09BB611F4ABB6915
:1008F00013441B78DBB27B617B681A687B69DA4042
:100900007B685A60164B9B6803F4E053BB61BB697C
:100910009B0ABB61154ABB6913441B78DBB27B6140
:100920007B685A687B69DA407B689A600C4B9B68ED
:1009300003F46043BB61BB695B0BBB610B4ABB69E2
:1009400013441B78DBB27B617B685A687B69DA40B1
:100950007B68DA602437BD465DF8047B704700BFD2
:10096000003802400024F40040787D01000000209F
:1009700080B485B000AF78600023FB607B6803F42F
:100980004073B3F5407F11D10F4B9B68FB60FB6850
:1009900023F4F813FB607B6823F0704323F4407367
:1009A000FA681343FB60084AFB6893600649064BEC
:1009B0001A6F7B68C3F30B0313430B671437BD46F1
:1009C0005DF8047B704700BF0038024080B483B0FC
:1009D00000AF0346FB71044AFB7913600C37BD4638
:1009E0005DF8047B704700BF3C0E474280B483B083
:1009F00000AF78600B46FB70FB78002B06D00949EE
:100A0000084B1A6B7B6813430B6306E00549054BE3
:100A10001A6B7B68DB4313400B630C37BD465DF8F4
:100A2000047B70470038024080B483B000AF786028
:100A30000B46FB70FB78002B06D00949084B9A6BDC
:100A40007B6813438B6306E00549054B9A6B7B6813
:100A5000DB4313408B630C37BD465DF8047B704766
:100A60000038024080B483B000AF78600B46FB7062
:100A7000FB78002B06D00949084B1A6C7B6813439E
:100A80000B6406E00549054B1A6C7B68DB43134099
:100A90000B640C37BD465DF8047B7047003802409C
:100AA00080B483B000AF78600B46FB70FB78002BFE
:100AB00006D00949084B5A6C7B6813434B6406E027
:100AC0000549054B5A6C7B68DB4313404B640C377C
:100AD000BD465DF8047B70470038024080B487B0A3
:100AE00000AF0346FB710023FB6000237B61002302
:100AF000FB74FB795B09DBB2FB60FB68012B03D164
:100B0000124B1B687B6109E0FB68022B03D10F4B82
:100B10001B6F7B6102E00D4B5B6F7B61FB7903F028
:100B20001F03FB60FB687A6922FA03F303F00103F9
:100B3000002B02D00123FB7401E00023FB74FB7C3B
:100B400018461C37BD465DF8047B704700380240EC
:100B500080B500AF00F006F8014B01221A7080BD8D
:100B600014A2012080B584B000AF08200121FFF756
:100B700079FF5323BB800023FB8040F2E733BB6047
:100B80000023BB810023BB733B1D0B48194602F0B9
:100B90004DFE32233B700123FB7000237B7000234A
:100BA000BB703B46184602F0C1FA0348012102F02F
:100BB000C1FE1037BD4680BD000C004080B584B03A
:100BC00000AF78600E4802F0A9FE0346BB607B6868
:100BD0004FF47A7202FB03F3FB6000BF084B5A6AC2
:100BE000BB689A42FAD0064B5B6ABB60FB68013B6C
:100BF000FB60FB68002BF0D11037BD4680BD00BF05
:100C0000000C004080B500AF0A48012102F0CEFF81
:100C1000094B1B680133084A1360084B1B68002B03
:100C200004D0064B1B68013B044A1360AFF30080FD
:100C300080BD00BF000C004018A201201CA20120B2
:100C400080B582B000AF01F097F9FFF7B3FB00F079
:100C50007FFC10200F2101F0CBF90A20FFF7AEFF37
:100C60000420812101F0C4F90A20FFF7A7FF01F059
:100C700041FA0346FB801420632101F0B9F91520E5
:100C8000002101F0B5F91620032101F0B1F9172078
:100C9000032101F0ADF918200B2101F0A9F9192069
:100CA000DF2101F0A5F91A20012101F0A1F91B2093
:100CB000202101F09DF91C20002101F099F91D204F
:100CC000162101F095F91E20002101F091F91F2055
:100CD000012101F08DF93020002101F089F9312046
:100CE000002101F085F934201F2101F081F9352020
:100CF000032101F07DF93220002101F079F9332040
:100D0000002101F075F93620DF2101F071F937205B
:100D1000012101F06DF90837BD4680BD80B584B072
:100D200000AFF860084611461A4603467B810B4621
:100D30003B811346FB8000F02FFF00F047FF7A89CC
:100D40003B891046194600F0D7FCFB88184600F096
:100D500089FE3B8B184600F065FE00F077FC3B7F78
:100D6000022B0ED0032B17D0012B20D100F0E8FC72
:100D7000012000F0FDFC042000F0B0FC00F066FC57
:100D80001FE000F0E5FC012000F0F2FC042000F080
:100D9000A5FC00F05BFC14E000F0E2FC012000F098
:100DA000E7FC042000F09AFC00F050FC09E000F0A1
:100DB000C7FC012000F0DCFC042000F08FFC00F0F8
:100DC00045FC97F82030013B032B17D801A252F8BD
:100DD00023F000BFE50D0008EB0D0008F10D000841
:100DE000F70D000800F0E8FC08E000F0EDFC05E07D
:100DF00000F0F2FC02E000F0F7FC00BF97F82430AE
:100E0000032B1FD801A252F823F000BF1D0E0008CB
:100E1000270E0008310E00083B0E000800F03EFCD3
:100E200000F01CFC12E000F041FC00F01FFC0DE0A3
:100E300000F044FC00F022FC08E000F047FC00F069
:100E400025FC03E000F02AFC00F008FC022001F081
:100E5000A5F8F86800F00CF82120002101F0C8F88E
:100E60002F20002101F0C4F81037BD4680BD00BF1F
:100E700080B582B000AF786000F008FD022001F07C
:100E80008DF80AE07B681B789BB2184601F096F853
:100E90007B6801337B6000F06DFB7B681B78002B67
:100EA000F0D10837BD4680BD80B582B000AF0346A3
:100EB0000A46FB8013467B717B79002B07D100200B
:100EC00040F21F3146224FF4C87300F095FC7B7945
:100ED000012B07D1002040F21F31002240F2DF1326
:100EE00000F08AFCFB88184600F0BCFD00200021C1
:100EF0004FF4487240F2DF1300F0D4FD9020B0218F
:100F000001F076F80837BD4680BD00BF90B585B0CA
:100F100000AF0446084611461A462346FB800346A6
:100F2000BB800B467B8013463B8000F0A7FCF88813
:100F3000B9887A883B8800F0EFFC6E20282100F009
:100F40004DFDC02000F0DAFC00F0D0FC022001F0E2
:100F500025F80023FB810BE0FB89094A32F81330A6
:100F6000184601F02BF800F005FBFB890133FB81EB
:100F7000FB8941F22F129342EED91437BD4690BD42
:100F80001077012080B586B004AF7860002040F271
:100F90001F31002240F2DF1300F02EFC002000F091
:100FA00061FD0E4B1B789BB20A339AB2002300936B
:100FB00002230193012302930023039378680A21FB
:100FC00040F21F53FFF7AAFE044B1B781433DAB22A
:100FD000024B1A700837BD4680BD00BF20A2012019
:100FE00080B500AF002040F2A32100224FF4D2735D
:100FF000FFF78CFF80BD00BF80B500AF02F0E6FDBB
:101000003220FFF7DBFDFFF701F93220FFF7D6FDB5
:1010100080BD00BF80B584B004AF042002F054F856
:101020000346002B6CD1374B1B78012B62D100F0AB
:1010300079F840F28A204FF4C8713C22C82300F0AE
:10104000DBFB314B1B78314831491A4603F074FA07
:1010500000230093012301930123029300230393B0
:101060002A480A213C224FF6FF73FFF757FE264B12
:101070005B78264827491A4603F05EFA002300935E
:101080000123019301230293002303931F480A21A4
:1010900050224FF6FF73FFF741FE1B4B9B781B4816
:1010A0001D491A4603F048FA0023009301230193D7
:1010B000012302930023039314480A2164224FF66C
:1010C000FF73FFF72BFE104BDB78104813491A46CD
:1010D00003F032FA002300930123019301230293CA
:1010E0000023039309480A2178224FF6FF73FFF784
:1010F00015FE02E00A48FFF745FF022002F008F85B
:10110000BD4680BD6CA3012068A3012060A2012020
:101110000033010814330108283301083C33010867
:101120005433010880B582B000AF00233B60002338
:101130007B603B4680201946082200F099F93A78F6
:10114000074B9A703A79064B1A70BA79044B5A7069
:10115000FB791B09DAB2024BDA700837BD4680BD55
:1011600068A3012080B582B000AF0346FB710B4637
:10117000BB7113467B71414A404B1B889BB243F4C1
:1011800080739BB213803E4B44F620621A8010E0BD
:101190003B4B1B88013B9AB2394B1A80384B1B885A
:1011A000002B03D13748FFF7EDFE64E03648FFF728
:1011B000E9FE324B9B8A9BB203F00103002BE7D080
:1011C0007B79002B07D02D4A2C4B1B889BB243F414
:1011D00080639BB21380BB79002B23D1274AFB7914
:1011E0009BB223F001039BB21382254B44F620628D
:1011F0001A8010E0224B1B88013B9AB2204B1A80C8
:101200001F4B1B88002B03D12048FFF7BBFE32E0A9
:101210001F48FFF7B7FE194B9B8A9BB203F00203EE
:10122000002BE7D0BB79012B23D1144AFB7943F083
:101230000103DBB29BB21382114B44F620621A8089
:1012400010E00F4B1B88013B9AB20D4B1A800C4BE0
:101250001B88002B03D10F48FFF794FE0BE00E48CC
:10126000FFF790FE05480D4901F06AFE0346002B8A
:10127000E7D0024B1B8B0837BD4680BD00540040B1
:1012800064A3012068330108743301088033010826
:10129000903301089C330108AC33010802000300BD
:1012A00080B500AF164B44F620621A8010E0144B54
:1012B0001B88013B9AB2124B1A80114B1B88002BE2
:1012C00003D11048FFF75EFE18E00F48FFF75AFE03
:1012D0000E4B9B8A9BB203F08003002BE7D00B4B95
:1012E0009B8A9BB203F00403002BE0D0074A074B14
:1012F0001B889BB243F400739BB2138080BD00BF78
:1013000064A30120B8330108C4330108005400402D
:1013100080B582B000AF174A164B1B889BB243F4CE
:1013200080639BB21380144B44F620621A8011E054
:10133000114B1B88013B9AB20F4B1A800E4B1B8836
:10134000002B04D10D48FFF71DFE01230EE00C48D1
:10135000FFF718FE07480B4901F0F2FD0346002B8A
:10136000E6D0044B1B8A9BB2FB71FB791846083709
:10137000BD4680BD0054004064A30120CC33010869
:10138000DC3301084000030080B582B000AF1B4A87
:101390001A4B1B889BB223F480639BB21380174ABD
:1013A000164B1B889BB243F400739BB21380144B03
:1013B00044F620621A8011E0114B1B88013B9AB25F
:1013C0000F4B1A800E4B1B88002B04D10D48FFF7E2
:1013D000D9FD01230EE00C48FFF7D4FD07480B4967
:1013E00001F0AEFD0346002BE6D0044B1B8A9BB2F6
:1013F000FB71FB7918460837BD4680BD005400409C
:1014000064A30120E8330108F83301084000030019
:1014100080B586B000AF0346B9607A60FB734020A8
:1014200000210022FFF79EFEFB7B184600F05EF8CD
:101430000023FB7509E0FB7DBA6813441B7818464E
:1014400000F054F8FB7D0133FB75FA7D7B689A420E
:10145000F1DB0548FFF796FD0448FFF721FF18462A
:101460001837BD4680BD00BF083401080054004055
:1014700090B587B000AF0346B9607A60FB73402037
:1014800000210022FFF76EFEFB7B184600F02EF8CD
:10149000FFF706FF402001210022FFF763FE002333
:1014A000FB7516E0FA7D7B68013B9A4207D1FB7D14
:1014B000BA68D418FFF768FF0346237006E0FB7D87
:1014C000BA68D418FFF724FF03462370FB7D01336D
:1014D000FB75FA7D7B689A42E4DB0348FFF752FD17
:1014E00018461C37BD4690BD1834010880B582B03F
:1014F00000AF0346FB71134B44F620621A8012E0E2
:10150000104B1B88013B9AB20E4B1A800D4B1B8867
:10151000002B04D10C48FFF735FD01230EE00B4BE7
:10152000FA7992B21A82094B9B8A9BB203F080032C
:10153000002B03D1034B1B88002BE1D11846083741
:10154000BD4680BD64A3012024340108005400403E
:1015500080B500AF88200B2100F04AFD1420FFF772
:101560002DFB8920022100F043FD1420FFF726FB0C
:1015700080BD00BF80B582B000AF00F0BBFD034668
:10158000FB71FB795BB2002BF7DB0837BD4680BDF2
:1015900080B500AF0120802100F02AFD80BD00BF92
:1015A00080B500AF0120002100F022FD80BD00BF0A
:1015B00080B500AF05207F2100F05CFD80BD00BF3D
:1015C00080B500AF0520BF2100F054FD80BD00BFF5
:1015D00080B500AF0520202100F02EFD80BD00BFAA
:1015E00080B500AF0520EF21082200F061FD80BD2D
:1015F00080B500AF0520FB2100F03CFD80BD00BFA1
:1016000080B500AF0520FD2100F034FD80BD00BF96
:1016100080B582B000AF0346FB71FB799BB2062018
:10162000194600F0E5FC0837BD4680BD80B500AF27
:1016300021207F2100F01EFD80BD00BF80B500AFDE
:101640002120202100F0F8FC80BD00BF80B500AF54
:101650002220802100F0F0FC80BD00BF80B500AFEB
:101660002220F32100F006FD80BD00BF80B500AF51
:101670002220F721042200F01BFD80BD80B500AFC1
:101680002220FB21082200F013FD80BD80B500AFB1
:1016900022200C2100F0D0FC80BD00BF80B500AF3F
:1016A0002220FC2100F0E6FC80BD00BF80B500AF29
:1016B0002220FD21012200F0FBFC80BD80B500AF9F
:1016C0002220FE21022200F0F3FC80BD80B500AF95
:1016D0002220032100F0B0FC80BD00BF80B582B0A5
:1016E00000AF0346FB71FB799BB22920194600F03D
:1016F0007FFC0837BD4680BD80B582B000AF034691
:101700000A46FB801346BB80FB882A20194600F05E
:101710006FFCFB881B0A9BB22B20194600F068FC6B
:10172000BB882C20194600F063FCBB881B0A9BB2C7
:101730002D20194600F05CFC0837BD4680BD00BF77
:1017400080B500AF2E203F2100F094FC80BD00BF8B
:1017500080B500AF2E207F21402200F0A9FC80BD83
:1017600080B500AF2E20802100F066FC80BD00BF58
:1017700080B584B000AF0346FB71FB7903F03F03F3
:10178000FB73FB7B9BB22E20C0211A4600F090FC1D
:101790001037BD4680BD00BF80B500AF2F201F2190
:1017A000802200F085FC80BD80B500AF2F20E321B2
:1017B000102200F07DFC80BD80B500AF2F20FC2101
:1017C00000F058FC80BD00BF80B500AF2F20FD2188
:1017D000012200F06DFC80BD80B500AF2F20FE21FE
:1017E000022200F065FC80BD80B500AF2F200321F0
:1017F00000F022FC80BD00BF90B583B000AF04466E
:10180000084611461A462346FB800346BB800B461A
:101810007B8013463B80FB883020194600F0E8FBB4
:10182000FB881B0A9BB23120194600F0E1FBBB8804
:101830003420194600F0DCFBBB881B0A9BB2352024
:10184000194600F0D5FB7B883220194600F0D0FB0A
:101850007B881B0A9BB23320194600F0C9FB3B88EA
:101860003620194600F0C4FB3B881B0A9BB2372088
:10187000194600F0BDFB0C37BD4690BD80B500AFEA
:1018800040207F2100F0F6FB80BD00BF80B500AF97
:101890004020802100F0D0FB80BD00BF80B500AFAC
:1018A0004020BF2100F0E6FB80BD00BF80B500AF47
:1018B0004020DF2100F0DEFB80BD00BF80B500AF1F
:1018C0004020F32100F0D6FB80BD00BF80B500AF03
:1018D0004020FD2100F0CEFB80BD00BF80B500AFF1
:1018E0004020FE2100F0C6FB80BD00BF80B500AFE8
:1018F0005020802100F0A0FB80BD00BF80B582B0E9
:1019000000AF0346FB71FB799BB25120194600F0F2
:101910006FFB0837BD4680BD90B585B000AF04466B
:10192000084611461A462346FB800346BB800B46F9
:101930007B8013463B80FB885420194600F058FBFF
:10194000FB881B0A9BB25520194600F051FBBB884F
:101950005820194600F04CFBBB881B0A9BB259204B
:10196000194600F045FB7B885620194600F040FBE5
:101970007B881B0A9BB2FB73572000F04DFB03468C
:10198000BB73BB7B23F07F03BB73FA7BBB7B13432F
:10199000FB73FB7B9BB25720194600F029FB3B8869
:1019A0005A20194600F024FB3B881B0A9BB2FB73AC
:1019B0005B2000F031FB0346BB73BB7B23F07F034E
:1019C000BB73FA7BBB7B1343FB73FB7B9BB25B203C
:1019D000194600F00DFB1437BD4690BD80B582B0AE
:1019E00000AF03460A46FB801346BB80FB885C20A1
:1019F000194600F0FDFAFB881B0A9BB25D201946D0
:101A000000F0F6FABB885E20194600F0F1FABB88B8
:101A10001B0A9BB25F20194600F0EAFA0837BD4660
:101A200080BD00BF80B582B000AF0346FB80FB885D
:101A3000DB0A9BB26020194600F0DAFAFB8803F457
:101A4000FC635B119BB26120194600F0D1FAFB8860
:101A500003F01F039BB26220194600F0C9FA083751
:101A6000BD4680BD80B582B000AF0346FB80FB88D9
:101A7000DB0A9BB26320194600F0BAFAFB8803F434
:101A8000FC635B119BB26420194600F0B1FAFB883D
:101A900003F01F039BB26520194600F0A9FA08372E
:101AA000BD4680BD90B583B000AF044608461146E0
:101AB0001A462346FB800346BB800B467B801346B9
:101AC0003B80FB889120194600F092FAFB881B0AA4
:101AD0009BB29220194600F08BFABB8893201946DE
:101AE00000F086FABB881B0A9BB29420194600F0CE
:101AF0007FFA7B889520194600F07AFA7B881B0ACA
:101B00009BB29620194600F073FA3B88972019463D
:101B100000F06EFA3B881B0A9BB29820194600F031
:101B200067FA0C37BD4690BD80B584B004AF4FF462
:101B3000805001F0F1FD0346002B1BD04FF4805084
:101B400001F01EFE002040F21F31002240F2DF13A0
:101B5000FFF752FE4FF478430093022301930223D0
:101B600002930B4B03930B48C82164224FF6E0739A
:101B7000FFF7D4F84FF4005001F0CEFD0346002BE0
:101B800003D04FF4005001F0FBFDBD4680BD00BF07
:101B9000483401083834010880B500AFFFF74EFD26
:101BA000FFF744FDFFF7F8FDFFF7FEFDFFF700FD2F
:101BB000FFF706FD0320FFF72BFDFFF709FDFFF7F9
:101BC0000FFDFFF715FDFFF71BFD80BD80B500AFD2
:101BD000FFF75CFEFFF762FEFFF768FEFFF76EFEA1
:101BE000FFF774FEFFF77AFE80BD00BF80B483B0BC
:101BF00000AF78604FF020407B681B687A685168BE
:101C00007A68926811437A68D26811437A681269D7
:101C100011437A68526911437A68926911437A686C
:101C2000D26911437A68126A11437A68526A114381
:101C30007A68926A11437A68D26A11437A68126BA1
:101C40000A4340F823207B689B68082B0DD14FF096
:101C500020417B681B684FF020407A68126850F87A
:101C6000222042F0400241F823204FF020407B68C0
:101C70001B6801337A68526B11687A68526B52683C
:101C8000120111437A68526B9268120211437A680A
:101C9000526BD268120411437A68526B12691205B2
:101CA00011437A68526B5269120611437A68526B7B
:101CB00092690A4340F823207B68DB6AB3F5804FC2
:101CC00020D116487B681B687A68926B11687A6825
:101CD000926B5268120111437A68926B92681202F9
:101CE00011437A68926B1269120511437A68926BFC
:101CF0005269120611437A68926B92690A4340F85E
:101D0000232006E0054A7B681B686FF0704142F8AB
:101D100023100C37BD465DF8047B7047040100A01A
:101D200080B483B000AF78600B46FB70FB78002B6B
:101D30000CD04FF020414FF020427B6852F8233006
:101D400043F001027B6841F823200BE04FF0204173
:101D50004FF020427B6852F82320054B13407A68ED
:101D600041F822300C37BD465DF8047B704700BF58
:101D7000FEFF0F0080B582B000AF18200121FEF7F2
:101D800035FE01200121FEF74FFE3F4800210C22C5
:101D900000F066FA3C4801210C2200F061FA3A4852
:101DA00004210C2200F05CFA374805210C2200F0D7
:101DB00057FA354807210C2200F052FA3248082120
:101DC0000C2200F04DFA304809210C2200F048FAAC
:101DD0002D480A210C2200F043FA2B480E210C2238
:101DE00000F03EFA28480F210C2200F039FA4CF29C
:101DF000B3733B6002233B7102237B710023BB71F1
:101E00000023FB713B462048194600F07FF91F482C
:101E100003210C2200F024FA1C4807210C2200F0B8
:101E20001FFA1A4808210C2200F01AFA1748092153
:101E30000C2200F015FA15480A210C2200F010FAC5
:101E400012480B210C2200F00BFA10480C210C2236
:101E500000F006FA0D480D210C2200F001FA0B48A3
:101E60000E210C2200F0FCF908480F210C2200F092
:101E7000F7F94FF688733B603B460448194600F07B
:101E800045F90837BD4680BD000C024000100240F5
:101E900080B582B000AF0C200121FEF7A7FD1648E7
:101EA0000C21022200F0DCF94FF480533B60022346
:101EB0003B7100237B710023BB710023FB713B4608
:101EC0000D48194600F022F904200121FEF78EFD8D
:101ED00040233B6001233B710023BB710023FB7156
:101EE0003B460648194600F011F90448402100F02D
:101EF0009BF90837BD4680BD000C02400008024037
:101F000080B596B000AF0023FB6100233B62002345
:101F10007B621023BB620023FB6200237B630023F0
:101F2000BB630023FB634FF480533B6400237B645B
:101F300000233B630023BB640023FB643B463B65FB
:101F400004233B6000237B600123BB600923FB600B
:101F500000233B6100237B610023BB613B467B6523
:101F600007F11C031846FFF741FE00200121FFF78F
:101F7000D7FE5837BD4680BD80B500AFFFF7FAFEEB
:101F80003220FEF71BFEFFF783FF3220FEF716FE1E
:101F9000FFF7B6FF3220FEF711FE80BD80B483B09C
:101FA00000AF0346FB80044AFB8813800C37BD4614
:101FB0005DF8047B704700BF0000106080B483B000
:101FC00000AF0346FB804FF0C042FB8813800C3704
:101FD000BD465DF8047B704780B400AF4FF0C0434E
:101FE0001B889BB21846BD465DF8047B704700BF56
:101FF00080B582B000AF03460A46FB801346BB8023
:10200000FB881846FFF7CAFFBB881846FFF7D6FFC4
:102010000837BD4680BD00BF80B582B000AF034623
:10202000FB80FB881846FFF7B9FFFFF7D5FF034693
:1020300018460837BD4680BD80B584B000AF034662
:102040000A46FB801346BB80FB881846FFF7A6FFB5
:10205000FFF7C2FF0346FB81FA89BB881343FB816C
:10206000FA88FB8910461946FFF7C2FF1037BD46B4
:1020700080BD00BF80B584B000AF03460A46FB8038
:102080001346BB80FB881846FFF788FFFFF7A4FFC5
:102090000346FB81FA89BB881340FB81FA88FB89E0
:1020A00010461946FFF7A4FF1037BD4680BD00BF9C
:1020B00080B584B000AF0346FB800B46BB8013465F
:1020C0007B80FB881846FFF769FFFFF785FF034613
:1020D000FB81FA89BB881340FB81FA897B88134313
:1020E000FB81FA88FB8910461946FFF781FF1037FC
:1020F000BD4680BD80B400AF034B1B889BB2184621
:10210000BD465DF8047B70470000106080B487B066
:1021100000AF7860396000237B6100233B610023BE
:10212000FB6000237B6176E07B69012202FA03F306
:102130003B613B681A683B691340FB60FA683B6986
:102140009A4265D17B681A687B695B001946032354
:102150008B40DB431A407B681A607B681A683B68D7
:102160001B7919467B695B0001FA03F31A437B680C
:102170001A603B681B79012B03D03B681B79022B4B
:102180002ED17B689A687B695B00194603238B40DC
:10219000DB431A407B689A607B689A683B685B798E
:1021A00019467B695B0001FA03F31A437B689A6066
:1021B0007B685A687B699BB2194601238B40DB43DD
:1021C0001A407B685A607B685B683A68927911466E
:1021D0007A6992B201FA02F292B21A437B685A60AB
:1021E0007B68DA687B699BB25B00032101FA03F329
:1021F000DB431A407B68DA607B68DA683B68DB792E
:1022000019467B695B0001FA03F31A437B68DA60C5
:102210007B6901337B617B690F2B85D91C37BD46F8
:102220005DF8047B704700BF80B483B000AF786076
:102230000B467B807B687A881A830C37BD465DF835
:10224000047B704780B483B000AF78600B467B801E
:102250007B687A885A830C37BD465DF8047B7047EB
:1022600080B485B000AF78600B467B8013467B70EE
:102270000023FB600023BB607B787A8802F00702B2
:1022800092009340FB607B88DB089BB218467B88FA
:10229000DB089BB21A467B68083253F822207B8801
:1022A00003F007039B0019460F238B40DB4302EA30
:1022B00003017B6800F1080243F822107B88DB08E9
:1022C0009BB21A467B68083253F82220FB681343FE
:1022D000BB607B88DB089BB21A467B680832B96812
:1022E00043F822101437BD465DF8047B704700BFE9
:1022F00080B500AF114A114B1B6843F00103136016
:102300000E4B00229A600D4A0C4B1B6823F084731D
:1023100023F480331360094B094A5A60074A074B7C
:102320001B6823F480231360044B0022DA6000F062
:102330000BF8044B4FF000629A6080BD00380240F9
:102340001030002400ED00E080B483B000AF002323
:102350007B6000233B60354A344B1B6843F4803379
:102360001360324B1B6803F400333B607B6801331E
:102370007B603B68002B03D17B68B3F5A06FF0D185
:102380002A4B1B6803F40033002B02D001233B606F
:1023900001E000233B603B68012B42D1234A234BE1
:1023A0001B6C43F080531364214A214B1B6843F498
:1023B000804313601D4A1D4B9B6893601B4A1B4B57
:1023C0009B6843F400439360184A184B9B6843F49E
:1023D000A0539360154B174A5A60144A134B1B685D
:1023E00043F08073136000BF104B1B6803F0007351
:1023F000002BF9D0104B40F205621A600B4A0B4BD0
:102400009B6823F003039360084A084B9B6843F0E2
:102410000203936000BF054B9B6803F00C03082B7D
:10242000F9D10C37BD465DF8047B70470038024097
:102430000070004019544007003C024080B485B051
:1024400000AF78600B4B1B68002B02D1094B0A4A86
:102450001A60084B1B68FB60064B1A687B681344C4
:10246000044A1360FB6818461437BD465DF8047BC8
:10247000704700BF24A2012094A3012080B588B03A
:1024800000AF0346FB710123FB774FF08050012121
:10249000FEF7E8FA0120FDF77DFF132001F024F993
:1024A000B861BB6944F2213293421AD1334B44F2F2
:1024B00021321A60FB79002B02D1002000F0F2F9E2
:1024C00000F018FF4FF4804001F05AF94FF48000FB
:1024D00000F01EFE07F108031846002100F092F9F3
:1024E00040E0BB6941F2342293421AD1234B41F2BE
:1024F00034221A60FB79002B02D1002000F0D2F9BF
:1025000000F0F8FE4FF4804001F03AF94FF48000FB
:1025100000F0FEFD07F108031846002100F072F9F3
:1025200020E0164B00221A600023FB77FB79184647
:1025300000F0B8F90123FB730123BB7301233B7443
:1025400000237B7400237B7300233B7300233B72C7
:1025500007F108031846002100F012F8074B41F27A
:1025600034221A60FB7F002B01D1002301E0034BD2
:102570001B6818462037BD4680BD00BF28A2012039
:1025800090B587B000AF78600B46FB70FB78012BED
:1025900077D17B68DB791B09DBB21A4692001344C2
:1025A0005B00DAB27B68DB7903F00F03DBB2134424
:1025B000DBB2FB737B681B7A1B09DBB21A46920005
:1025C00013445B00DAB27B681B7A03F00F03DBB2C3
:1025D0001344DBB23B747B685B7A1B09DBB21A469F
:1025E000920013445B00DAB27B685B7A03F00F035E
:1025F000DBB21344DBB27B747B685B791B09DBB213
:102600001A46920013445B00DAB27B685B7903F0F0
:102610000F03DBB21344DBB27B737B681B791B09AE
:10262000DBB21A46920013445B00DAB27B681B7976
:1026300003F00F03DBB21344DBB23B737B681B7800
:102640001B09DBB21A46920013445B00DAB27B68C6
:102650001B7803F00F03DBB21344DBB23B727B68E1
:102660009B791B09DBB21A46920013445B00DAB275
:102670007B689B7903F00F03DBB21344DBB2BB73BF
:1026800014E07B68DB79FB737B681B7A3B747B68A7
:102690005B7A7B747B685B797B737B681B793B73AC
:1026A0007B681B783B727B689B79BB737B7C632B5D
:1026B0004BD83B7C002B48D03B7C0C2B45D8FB7B7C
:1026C000002B42D0F97B7B7C03F00303002B0ED15F
:1026D0007B7C03F5FA62454B83FB02035811D31749
:1026E000C31A642000FB03F3D31A002B0FD17B7CA9
:1026F00003F5FA623D4B83FB0203D811D317C31ACB
:102700004FF4C87000FB03F3D31A002B01D1012250
:1027100000E000223B7C581E354C13465B001344FE
:102720009B00034423441B7899420ED87B7B172BD4
:102730000BD83B7B3B2B08D83B7A3B2B05D8BB7B8C
:10274000002B02D0BB7B072B01D901234AE07B6819
:102750005A79284B1A707B681A79264B5A707B6815
:102760001A78244B9A707B68DA79234B9A707B68CD
:102770001A7A214B5A707B685A7A1F4BDA707B6841
:102780009A791D4B1A701D4B00221A601B4B1F2299
:102790005A601A4B40F2FF329A60184800F026FD4A
:1027A000FB78012B04D10120124900F0DFFD03E08A
:1027B0000020104900F0DAFDFB78012B04D1012044
:1027C0000D4900F0A3FE03E000200B4900F09EFE3F
:1027D0000B4B1B68002B04D0132044F2213100F076
:1027E00069FF002318461C37BD4690BD1F85EB517D
:1027F0007099012070A3012080A3012074A30120FF
:1028000028A2012080B584B000AF78600B46FB7031
:10281000FB78002B04D100201F4900F029FE03E0C3
:1028200001201D4900F024FE1B4B1A787B685A7169
:10283000194B5A787B681A71174B9A787B681A7013
:10284000164B9B6A9AB27B685A80FB78002B04D1A6
:102850000020134900F0E0FE03E00120104900F0E1
:10286000DBFE0F4BDA787B685A720D4B5A787B6827
:102870001A720B4B9A787B68DA71094B1A787B686D
:102880009A71786800F044F8F8607B68FA68DA605A
:102890001037BD4680BD00BF70A301200028004056
:1028A00080A3012080B582B000AF0346FB71FB79A5
:1028B000002B0ED10120FDF7A1FF00BF6120FEF724
:1028C0000DF90346002BF9D04FF40070FEF750F8D5
:1028D00010E0FB79012B0DD10120FDF76FFF00BF48
:1028E0004120FEF7FBF80346002BF9D04FF480702F
:1028F000FEF73EF80120FEF769F800F0FBFC13201C
:1029000041F2342100F0D6FE0837BD4680BD00BF3D
:1029100080B487B000AF786000237B610023FB6048
:102920007B685B7A9BB203F5FA637B817B8940F21B
:10293000B172934201D8002396E040F2B2737B82D9
:1029400029E07B8A03F003039BB2002B0BD17B8A27
:10295000484AA2FB03125209642101FB02F29B1AAE
:102960009BB2002B0CD17B8A424AA2FB0312D209F4
:102970004FF4C87101FB02F29B1A9BB2002B02D1EB
:102980004FF4B77301E040F26D137A6913447B6131
:102990007B8A01337B827A8A7B899A42D1D3012355
:1029A0007B8232E07B8903F003039BB2002B0BD1C7
:1029B0007B89304AA2FB03125209642101FB02F217
:1029C0009B1A9BB2002B0CD17B892A4AA2FB0312D3
:1029D000D2094FF4C87101FB02F29B1A9BB2002B83
:1029E00001D1012200E000227B8A591E22481346B1
:1029F0005B0013449B000B4403441B781A467B691D
:102A000013447B617B8A01337B827B681B7A9BB298
:102A10007A8A9A42C6D37B68DB791A467B6913446B
:102A2000013B7B617B69154A02FB03F3FB607B681A
:102A30005B791A464FF4616303FB02F31A46FB68A5
:102A40001344FB607B681B791A4613461B019B1AD3
:102A50009B001A46FB681344FB607B681B781A4690
:102A6000FB681344FB60FB6818461C37BD465DF8E5
:102A7000047B70471F85EB51709901208051010044
:102A800090B585B004AF95480021FFF7BBFE4FF429
:102A9000077040F21F3100221223FEF7ADFE8F4B6C
:102AA0009B79013B062B00F2F88001A252F823F03B
:102AB000CD2A00080F2B0008512B0008932B00088B
:102AC000D52B0008172C0008592C0008834BDB7904
:102AD0001A46824B1B7A1C46804B5B7A03F5FA63DD
:102AE00000937F487F49234601F026FD0023009391
:102AF00001230193022302937B4B039378484FF405
:102B0000167128224FF6FF73FEF708F9C5E0734BE4
:102B1000DB791A46714B1B7A1C46704B5B7A03F5C6
:102B2000FA6300936E487149234601F005FD0023C6
:102B3000009301230193022302936B4B0393684894
:102B40004FF4167128224FF6FF73FEF7E7F8A4E062
:102B5000624BDB791A46614B1B7A1C465F4B5B7AF2
:102B600003F5FA6300935E486149234601F0E4FCF3
:102B70000023009301230193022302935A4B0393F2
:102B800057484FF4167128224FF6FF73FEF7C6F828
:102B900083E0524BDB791A46504B1B7A1C464F4B55
:102BA0005B7A03F5FA6300934D485249234601F0DE
:102BB000C3FC0023009301230193022302934A4B99
:102BC000039347484FF4167128224FF6FF73FEF720
:102BD000A5F862E0414BDB791A46404B1B7A1C4654
:102BE0003E4B5B7A03F5FA6300933D484249234626
:102BF00001F0A2FC0023009301230193022302931E
:102C0000394B039336484FF4167128224FF6FF7361
:102C1000FEF784F841E0314BDB791A462F4B1B7AE3
:102C20001C462E4B5B7A03F5FA6300932C4833491C
:102C3000234601F081FC002300930123019302232A
:102C40000293294B039326484FF4167128224FF61E
:102C5000FF73FEF763F820E0204BDB791A461F4B29
:102C60001B7A1C461D4B5B7A03F5FA6300931C48E4
:102C70002349234601F060FC0023009301230193C4
:102C800002230293184B039315484FF41671282220
:102C90004FF6FF73FEF742F800BF104B5B791A4600
:102CA0000E4B1B791C460D4B1B7800930C481549A5
:102CB000234601F041FC00230093022301930223E9
:102CC0000293094B0393064840F28A210A2240F2FC
:102CD0001F53FEF723F80437BD4690BD20A3012003
:102CE00060A20120503401086C34010874340108DA
:102CF00090340108AC340108C8340108E4340108F8
:102D0000003501081C35010880B500AF4FF4804044
:102D100000F002FD0346002B05D04FF4804000F088
:102D20002FFDFFF7ADFE024B4FF480025A6180BDCC
:102D3000003C014080B500AF0120FFF79FFB034638
:102D4000002B18D10C4B1422DA710B4B01229A7113
:102D5000094B01221A72084B0F225A72064B0022AD
:102D60005A71054B00221A71034B00221A70024857
:102D70000021FFF705FC80BD20A3012080B58AB0AB
:102D800000AF786039600023FB8400237B84042338
:102D9000BB84574BFB617B689B88FB84FB8C23F0D7
:102DA0003F03FB8407F10C031846FDF737FD7B69F1
:102DB000FB61FB694F4AA2FB03239B0C7B84FA8CCB
:102DC0007B8C1343FB847B68FA8C9A807B681B881E
:102DD0009BB223F001039AB27B681A800023FB8424
:102DE0003B681B68444A934215D83B681B685B00EC
:102DF000FA69B2FBF3F3BB84BB8C032B01D8042329
:102E0000BB84FA8CBB8C1343FB847B8C01339AB25A
:102E10007B681A8440E03B68DB884BF6FF72934284
:102E200009D13B681A6813465B001344FA69B2FB88
:102E3000F3F3BB840EE03B681A6813469B0013440F
:102E40009A001344FA69B2FBF3F3BB84BB8C43F4DE
:102E50008043BB84BB8CC3F30B03002B03D1BB8C1F
:102E600043F00103BB84BA8CFB8C13439BB26FEA23
:102E700043436FEA5343FB847B8C4FF4967202FB0F
:102E800003F31E4A82FB03129211DB17D31A9BB283
:102E900001339AB27B681A847B68FA8C9A837B68C8
:102EA0001B889BB243F001039AB27B681A807B684F
:102EB0001B88FB84FB8C23F4816323F00203FB84D7
:102EC0003B689A883B685B8913439AB2FB8C134337
:102ED000FB847B68FA8C1A803B689A893B681B8963
:102EE00013439AB27B681A812837BD4680BD00BF64
:102EF00000127A0083DE1B43A0860100D34D6210CE
:102F000080B483B000AF78600B46FB70FB78002B79
:102F100008D07B681B889BB243F001039AB27B68A0
:102F20001A8007E07B681B889BB223F001039AB2EA
:102F30007B681A800C37BD465DF8047B704700BF84
:102F400080B487B000AF7860396000233B61002314
:102F5000FB600023BB600023FB757B689B8A9BB2F0
:102F6000FB607B681B8B9BB2BB60BB681B04BB60B8
:102F7000FA68BB68134323F07F433B613A693B68BF
:102F80001A403B689A4202D10123FB7501E00023FD
:102F9000FB75FB7D18461C37BD465DF8047B70470A
:102FA00080B487B000AF786000237B6100233B6171
:102FB0000023FB607B689B8A9BB23B617B681B8B19
:102FC0009BB2FB60FB681B04FB603A69FB68134320
:102FD00023F07F437B617B6918461C37BD465DF853
:102FE000047B704780B485B000AF78600023FB603D
:102FF000344BFB607B689B79002B4FD03149314BC0
:103000001A687B681B68DB4313400B602D492D4B0E
:103010005A687B681B68DB4313404B607B681B79F5
:103020001A46FB681344FB60FB68FA6811687A680B
:1030300012680A431A602349224B9A687B681B680E
:10304000DB4313408B601F491E4BDA687B681B68AB
:10305000DB431340CB607B685B79102B0ED11949A1
:10306000184B9A687B681B6813438B601549154B96
:10307000DA687B681B681343CB601DE0114BFB6073
:103080007B685B791A46FB681344FB60FB68FA684F
:1030900011687A6812680A431A600DE07B681B7930
:1030A0001A46FB681344FB60FB68FA6811687A688B
:1030B0001268D2430A401A601437BD465DF8047B9B
:1030C000704700BF003C014080B485B000AF78601D
:1030D0000023FB730023BB600C4B1A687B68134012
:1030E000BB600A4B5A697B681340002B05D0BB6854
:1030F000002B02D00123FB7301E00023FB73FB7B59
:1031000018461437BD465DF8047B7047003C01400B
:1031100080B483B000AF7860034A7B6853610C379A
:10312000BD465DF8047B7047003C014080B485B02B
:1031300000AF78600023FB730023BB730F237B7306
:103140007B68DB78002B38D0264BDB68DB4303F44D
:10315000E0631B0AFB73FB7BC3F10403BB737A7B45
:10316000FB7B42FA03F37B737B685B781A46BB7B7D
:1031700002FA03F3FB737B689A787B7B1340DAB225
:10318000FB7B1343FB73FB7B1B01FB73164A7B68C2
:103190001B781344FA7B83F80023134A7B681B785F
:1031A0005B09DBB218467B681B7803F01F03012123
:1031B00001FA03F342F820300FE00B497B681B78DB
:1031C0005B09DBB218467B681B7803F01F03012202
:1031D0009A4000F1200341F823201437BD465DF8E2
:1031E000047B704700ED00E000E100E080B584B0B2
:1031F00000AF78600023FB73194BCA225A62184B48
:1032000053225A6200F02EF80346002B02D100230D
:10321000FB731CE0124A124B9B6823F0400393603F
:103220000F490F4B9A687B681B6813438B600C4AED
:103230007B689B6813610A49094B1A697B685B6864
:103240001B0413430B6100F047F80123FB73044B8D
:10325000FF225A62FB7B18461037BD4680BD00BF77
:103260000028004080B485B000AF00237B600023BD
:10327000FB730023BB60174BDB6803F04003002B9C
:103280001ED1144B4FF0FF32DA60124BDB6803F0B3
:103290004003BB607B6801337B607B68B3F5803F94
:1032A00002D0BB68002BF0D00A4BDB6803F0400370
:1032B000002B02D00123FB7304E00023FB7301E029
:1032C0000123FB73FB7B18461437BD465DF8047B76
:1032D000704700BF0028004080B400AF044A044B90
:1032E000DB6823F08003D360BD465DF8047B704744
:1032F0000028004080B485B000AF00237B6000232D
:10330000FB730023BB60184BCA225A62164B532230
:103310005A62154A144BDB6823F0A003D360124BAA
:10332000DB6803F02003BB607B6801337B607B6854
:10333000B3F5003F02D0BB68002BF0D00A4BDB682E
:1033400003F02003002B02D00123FB7301E00023D4
:10335000FB73054BFF225A62FB7B18461437BD46B0
:103360005DF8047B704700BF0028004090B585B031
:1033700000AF786039600023FB600023FB727B683C
:10338000002B09D1394B9B6803F04003002B14D16B
:103390003B680022DA7010E0344B9B6803F0400376
:1033A000002B07D03B681B78184600F023FA034631
:1033B000FB6002E03B680022DA707B68002B0FD0D4
:1033C0003B681B781A043B685B781B0213433A681E
:1033D00092781A433B68DB781B041343FB601BE0C5
:1033E0003B681B78184600F0E7F903461C043B686D
:1033F0005B78184600F0E0F903461B021C433B686B
:103400009B78184600F0D8F9034644EA03023B686B
:10341000DB781B041343FB60144BCA225A62134B24
:1034200053225A62FFF71EFF0346002B02D10023EE
:10343000FB7212E00D4AFB6803F07F3323F0FE437A
:103440001360FFF749FFFFF755FF0346002B02D13A
:103450000023FB7201E00123FB72044BFF225A623E
:10346000FB7A18461437BD4690BD00BF00280040C7
:1034700080B584B000AF786039600023FB60224BD8
:103480001B6803F07F3323F0FE43FB60FB6803F40B
:103490007C131B0CDAB23B681A70FB6803F4FE4322
:1034A0001B0ADAB23B685A70FB68DBB203F07F0399
:1034B000DAB23B689A70FB6803F480031B0CDAB243
:1034C0003B68DA707B68002B1AD13B681B78184682
:1034D00000F090F903461A463B681A703B685B7827
:1034E000184600F087F903461A463B685A703B6855
:1034F0009B78184600F07EF903461A463B689A709E
:103500001037BD4680BD00BF0028004090B585B093
:1035100000AF786039600023FB600023FB727B689A
:10352000002B0ED13B685B7803F01003002B08D012
:103530003B685B7823F01003DBB20A33DAB23B68F6
:103540005A707B68002B0DD03B685B78184600F002
:1035500051F90346FB603B689B78184600F04AF936
:103560000346FB607B68002B0FD03B68DB781A04B6
:103570003B685B781B0213433A6892781A433B68B6
:103580001B785B031343FB601BE03B68DB7818464A
:1035900000F012F903461C043B685B78184600F003
:1035A0000BF903461B021C433B689B78184600F04E
:1035B00003F9034644EA03023B681B785B031343A9
:1035C000FB60144BCA225A62124B53225A62FFF715
:1035D00049FE0346002B02D10023FB7212E00D4A84
:1035E000FB6823F07F4323F0C0035360FFF774FEB2
:1035F000FFF780FE0346002B02D10023FB7201E09F
:103600000123FB72034BFF225A62FB7A18461437E0
:10361000BD4690BD0028004080B584B000AF786002
:1036200039600023FB60224B5B6823F07F4323F06B
:10363000C003FB60FB6803F47F031B0CDAB23B683A
:10364000DA70FB6803F4F8531B0ADAB23B685A706D
:10365000FB68DBB203F03F03DAB23B689A70FB68A9
:1036600003F460435B0BDAB23B681A707B68002B93
:103670001AD13B68DB78184600F0BCF803461A46BE
:103680003B68DA703B685B78184600F0B3F8034695
:103690001A463B685A703B689B78184600F0AAF8B7
:1036A00003461A463B689A701037BD4680BD00BF7E
:1036B0000028004080B485B000AF786039600023F6
:1036C000FB60084BFB607B689A00FB681344FB605F
:1036D000FB681A463B6813601437BD465DF8047BEF
:1036E000704700BF5028004080B485B000AF7860BC
:1036F0000023FB60074BFB607B689A00FB68134468
:10370000FB60FB681B6818461437BD465DF8047BF8
:10371000704700BF5028004080B487B000AF786089
:103720000023FB7500233B610023FB60134B1B6CE4
:1037300003F004033B61114B9A687B681A407B6875
:10374000D90B3B690B401343FB600C4BDA687B6879
:103750001B0913403B61FB68002B06D03B699BB201
:10376000002B02D00123FB7501E00023FB75FB7DDC
:1037700018461C37BD465DF8047B704700280040A2
:1037800080B485B000AF78600023FB607B681B09C4
:10379000FB600849FB689BB243F08003DA43054BAA
:1037A000DB6803F080031343CB601437BD465DF83C
:1037B000047B70470028004080B485B000AF03460A
:1037C000FB710023FB7305E0FB7B0133FB73FB798B
:1037D0000A3BFB71FB79092BF6D8FB7B1B01DAB2A4
:1037E000FB791343DBB218461437BD465DF8047B02
:1037F000704700BF80B485B000AF0346FB71002363
:10380000FB73FB791B09DBB21A46920013445B0081
:10381000FB73FB7903F00F03DAB2FB7B1344DBB2DB
:1038200018461437BD465DF8047B704780B485B0F8
:1038300000AF786039600023FB817B681B88FB81C7
:103840007B68284A934213D07B68274A93420FD063
:103850007B68B3F1804F0BD07B68244A934207D03A
:103860007B68234A934203D07B68224A934208D163
:10387000FB8923F07003FB813B685A88FB89134363
:10388000FB817B681C4A93420CD07B681B4A9342A5
:1038900008D0FB8923F44073FB813B681A89FB89BC
:1038A0001343FB817B68FA891A803B685A687B68FE
:1038B000DA623B681A887B681A857B68094A9342FA
:1038C00003D07B68084A934204D13B689B7A9AB242
:1038D0007B681A867B6801229A821437BD465DF8A0
:1038E000047B7047000001400004014000040040D8
:1038F00000080040000C0040001000400014004090
:1039000080B483B000AF786039607B683A685A62EF
:103910000C37BD465DF8047B704700BF80B483B0B0
:1039200000AF78607B685B6A18460C37BD465DF86F
:10393000047B704780B483B000AF78600B46FB70A7
:10394000FB78002B08D07B681B889BB243F00103F7
:103950009AB27B681A8007E07B681B889BB223F0D1
:1039600001039AB27B681A800C37BD465DF8047B70
:10397000704700BF80B485B000AF78603960002325
:103980007B810023FB810023BB817B681B8C9BB266
:1039900023F001039AB27B681A847B681B8CFB813D
:1039A0007B689B88BB817B681B8B7B817B8923F039
:1039B00070037B817B8923F003037B813B681A883A
:1039C0007B8913437B81FB8923F00203FB813B68E6
:1039D0009A89FB891343FB813B685A88FB8913430F
:1039E000FB817B681E4A934203D07B681D4A934249
:1039F00023D1FB8923F00803FB813B68DA89FB892B
:103A00001343FB81FB8923F00403FB813B689A8805
:103A1000FB891343FB81BB8923F48073BB81BB8982
:103A200023F40073BB813B681A8ABB891343BB81B3
:103A30003B685A8ABB891343BB817B68BA899A80E9
:103A40007B687A891A833B689A687B685A637B68CB
:103A5000FA891A841437BD465DF8047B704700BFAD
:103A6000000001400004014080B483B000AF7860E2
:103A700039607B683A685A630C37BD465DF8047B51
:103A8000704700BF80B483B000AF786039607B6856
:103A90003A689A630C37BD465DF8047B704700BFF7
:103AA00080B483B000AF786039607B683A68DA63CD
:103AB0000C37BD465DF8047B704700BF80B483B00F
:103AC00000AF786039607B683A681A640C37BD468D
:103AD0005DF8047B704700BF80B485B000AF7860AC
:103AE0000B467B800023FB817B681B8BFB81FB8962
:103AF00023F00803FB81FA897B881343FB817B68F1
:103B0000FA891A831437BD465DF8047B704700BFFD
:103B100080B483B000AF78600B467B8013467B7027
:103B20007B78002B08D07B689B899AB27B881343F3
:103B30009AB27B689A8109E07B689B899AB27B88FC
:103B4000DB439BB213409AB27B689A810C37BD4627
:103B50005DF8047B704700BF80B485B000AF78602B
:103B60000B467B800023FB730023BB8100237B81FA
:103B70007B681B8A9AB27B881340BB817B689B89D8
:103B80009AB27B8813407B81BB89002B05D07B894F
:103B9000002B02D00123FB7301E00023FB73FB7BAE
:103BA00018461437BD465DF8047B704780B483B077
:103BB00000AF78600B467B807B88DB439AB27B68E2
:103BC0001A820C37BD465DF8047B704780B500AFA4
:103BD00000F006F800F03EF800F064F880BD00BF89
:103BE00080B582B000AF02200121FCF7FFFEC023A8
:103BF0003B6002233B7103237B710123BB710023D4
:103C0000FB713B4611481946FEF780FA0F48062122
:103C10000422FEF725FB0D4807210422FEF720FBB6
:103C200004200121FCF7E2FE0C233B6000233B71E2
:103C300003237B710023BB710023FB713B460448C7
:103C40001946FEF763FA0837BD4680BD00040240FE
:103C50000008024080B584B000AF4FF4001001218D
:103C6000FCF700FF0023BB8000237B810B4B3B60F4
:103C70004BF6FF73FB8040233B8109480021FFF78F
:103C80003FF93B4606481946FFF778F804480121FA
:103C9000FFF736F91037BD4680BD00BFA086010092
:103CA0000054004080B584B000AF4FF48040012143
:103CB000FCF7F6FE02200221FCF766FA0423BB6043
:103CC00000233B7310237B730123BB7307F10803AD
:103CD0001846FFF787F908233B7100237B71002307
:103CE000BB710123FB713B1D1846FFF71FFA202310
:103CF0003B7100237B710023BB710123FB713B1DD2
:103D00001846FFF713FA1F233B7100237B71002332
:103D1000BB710123FB713B1D1846FFF707FA1037F3
:103D2000BD4680BD80B500AF1248FFF739F90346A4
:103D3000B3F1021F12D0B3F1021F05D8102B0FD020
:103D4000B3F5806F0ED014E00B4A93420CD00B4AAF
:103D500093420BD00A4A93420AD00AE000BF08E01F
:103D600000BF06E000BF04E000BF02E000BF00E0CB
:103D700000BF80BD005400408200060084000600A1
:103D80004000020080B582B002AFFA2300930448DD
:103D90000021C8224FF4C873FDF7F4F8BD4680BD7A
:103DA0002C35010881F0004102E000BF83F00043A0
:103DB00030B54FEA41044FEA430594EA050F08BFC6
:103DC00090EA020F1FBF54EA000C55EA020C7FEA8A
:103DD000645C7FEA655C00F0E2804FEA5454D4EB07
:103DE0005555B8BF6D420CDD2C4480EA020281EAD1
:103DF000030382EA000083EA010180EA020281EA09
:103E00000303362D88BF30BD11F0004F4FEA01315A
:103E10004FF4801C4CEA113102D0404261EB410169
:103E200013F0004F4FEA03334CEA133302D05242EF
:103E300063EB430394EA050F00F0A780A4F10104AB
:103E4000D5F1200E0DDB02FA0EFC22FA05F28018E5
:103E500041F1000103FA0EF2801843FA05F35941CB
:103E60000EE0A5F120050EF1200E012A03FA0EFC4A
:103E700028BF4CF0020C43FA05F3C01851EBE37174
:103E800001F0004507D54FF0000EDCF1000C7EEB91
:103E900000006EEB0101B1F5801F1BD3B1F5001FCF
:103EA0000CD349085FEA30004FEA3C0C04F10104EE
:103EB0004FEA445212F5800F80F09A80BCF1004F17
:103EC00008BF5FEA500C50F1000041EB045141EA99
:103ED000050130BD5FEA4C0C404141EB010111F49A
:103EE000801FA4F10104E9D191F0000F04BF014645
:103EF0000020B1FA81F308BF2033A3F10B03B3F123
:103F000020020CDA0C3208DD02F1140CC2F10C02B2
:103F100001FA0CF021FA02F10CE002F11402D8BF10
:103F2000C2F1200C01FA02F120FA0CFCDCBF41EADC
:103F30000C019040E41AA2BF01EB0451294330BDAB
:103F40006FEA04041F3C1CDA0C340EDC04F1140488
:103F5000C4F1200220FA04F001FA02F340EA03005F
:103F600021FA04F345EA030130BDC4F10C04C4F1A5
:103F7000200220FA02F001FA04F340EA0300294685
:103F800030BD21FA04F0294630BD94F0000F83F4CF
:103F9000801306BF81F480110134013D4EE77FEAB2
:103FA000645C18BF7FEA655C29D094EA050F08BFFE
:103FB00090EA020F05D054EA000C04BF19461046DF
:103FC00030BD91EA030F1EBF0021002030BD5FEA23
:103FD000545C05D14000494128BF41F0004130BD4B
:103FE00014F580043CBF01F5801130BD01F000459F
:103FF00045F0FE4141F470014FF0000030BD7FEA12
:10400000645C1ABF194610467FEA655C1CBF0B460C
:10401000024650EA013406BF52EA033591EA030F23
:1040200041F4002130BD00BF90F0000F04BF00211B
:10403000704730B54FF4806404F132044FF000054E
:104040004FF0000150E700BF90F0000F04BF0021C7
:10405000704730B54FF4806404F1320410F000452D
:1040600048BF40424FF000013EE700BF42004FEA28
:10407000E2014FEA31014FEA02701FBF12F07F43A5
:1040800093F07F4F81F06051704792F0000F14BFA2
:1040900093F07F4F704730B54FF4607401F00045E6
:1040A00021F0004120E700BF50EA010208BF70473D
:1040B00030B54FF000050AE050EA010208BF704732
:1040C00030B511F0004502D5404261EB41014FF49B
:1040D000806404F132045FEA915C3FF4DCAE4FF09F
:1040E00003025FEADC0C18BF03325FEADC0C18BF86
:1040F000033202EBDC02C2F1200300FA03FC20FAD7
:1041000002F001FA03FE40EA0E0021FA02F1144423
:10411000C1E600BF70B54FF0FF0C4CF4E06C1CEA38
:1041200011541DBF1CEA135594EA0C0F95EA0C0FAD
:1041300000F0DEF82C4481EA030621EA4C5123EA20
:104140004C5350EA013518BF52EA033541F480114F
:1041500043F4801338D0A0FB02CE4FF00005E1FB02
:1041600002E506F00042E0FB03E54FF00006E1FB4C
:1041700003569CF0000F18BF4EF0010EA4F1FF048F
:10418000B6F5007F64F5407404D25FEA4E0E6D41CF
:1041900046EB060642EAC62141EA55514FEAC520E0
:1041A00040EA5E504FEACE2EB4F1FD0C88BFBCF55C
:1041B000E06F1ED8BEF1004F08BF5FEA500E50F10D
:1041C000000041EB045170BD06F0004646EA0101D3
:1041D00040EA020081EA0301B4EB5C04C2BFD4EB05
:1041E0000C0541EA045170BD41F480114FF0000EFE
:1041F000013C00F3AB8014F1360FDEBF002001F06C
:10420000004170BDC4F10004203C35DA0C341BDCE5
:1042100004F11404C4F1200500FA05F320FA04F0B7
:1042200001FA05F240EA020001F0004221F00041EB
:1042300010EBD37021FA04F642EB06015EEA430E5E
:1042400008BF20EAD37070BDC4F10C04C4F120058E
:1042500000FA04F320FA05F001FA04F240EA020041
:1042600001F0004110EBD37041F100015EEA430E12
:1042700008BF20EAD37070BDC4F1200500FA05F232
:104280004EEA020E20FA04F301FA05F243EA0203B1
:1042900021FA04F001F0004121FA04F220EA0200C0
:1042A00000EBD3705EEA430E08BF20EAD37070BD06
:1042B00094F0000F0FD101F00046400041EB0101E6
:1042C00011F4801F08BF013CF7D041EA060195F0C8
:1042D000000F18BF704703F00046520043EB030382
:1042E00013F4801F08BF013DF7D043EA060370476F
:1042F00094EA0C0F0CEA135518BF95EA0C0F0CD07A
:1043000050EA410618BF52EA4306D1D181EA0301BF
:1043100001F000414FF0000070BD50EA410606BFB9
:104320001046194652EA430619D094EA0C0F02D1FE
:1043300050EA013613D195EA0C0F05D152EA033643
:104340001CBF104619460AD181EA030101F0004161
:1043500041F0FE4141F470014FF0000070BD41F0AA
:10436000FE4141F4780170BD70B54FF0FF0C4CF484
:10437000E06C1CEA11541DBF1CEA135594EA0C0FA3
:1043800095EA0C0F00F0A7F8A4EB050481EA030EF0
:1043900052EA03354FEA013100F088804FEA0333D7
:1043A0004FF0805545EA131343EA12634FEA0222A5
:1043B00045EA111545EA10654FEA00260EF0004166
:1043C0009D4208BF964244F1FD0404F5407402D2B8
:1043D0005B084FEA3202B61A65EB03055B084FEA49
:1043E00032024FF480104FF4002CB6EB020E75EB46
:1043F000030E22BFB61A754640EA0C005B084FEA6E
:104400003202B6EB020E75EB030E22BFB61A7546EA
:1044100040EA5C005B084FEA3202B6EB020E75EB35
:10442000030E22BFB61A754640EA9C005B084FEAAD
:104430003202B6EB020E75EB030E22BFB61A7546BA
:1044400040EADC0055EA060E18D04FEA051545EAA9
:1044500016754FEA06164FEAC30343EA52734FEA52
:10446000C2025FEA1C1CC0D111F4801F0BD141EACB
:1044700000014FF000004FF0004CB6E711F4801F30
:1044800004BF01430020B4F1FD0C88BFBCF5E06F10
:104490003FF6AFAEB5EB030C04BFB6EB020C5FEA20
:1044A000500C50F1000041EB045170BD0EF0004E75
:1044B0004EEA113114EB5C04C2BFD4EB0C0541EAA7
:1044C000045170BD41F480114FF0000E013C90E6A4
:1044D00045EA060E8DE60CEA135594EA0C0F08BF68
:1044E00095EA0C0F3FF43BAF94EA0C0F0AD150EA67
:1044F00001347FF434AF95EA0C0F7FF425AF1046FA
:1045000019462CE795EA0C0F06D152EA03353FF421
:10451000FDAE1046194622E750EA410618BF52EA9E
:1045200043067FF4C5AE50EA41047FF40DAF52EA72
:1045300043057FF4EBAE12E70EB4F0B59CB021ABAF
:104540000F4953F8042B019305466FF000440868A7
:1045500002954FF402774FF6FF7602A90695ADF863
:10456000147004940794ADF8166000F00BF8029BE9
:1045700000221A701CB0BDE8F04003B0704700BFC5
:10458000B09D01202DE9F04FC1B089460A920E93EB
:10459000089002F025FA03681793184603F0D0F844
:1045A000B9F80C3018901A0604D5D9F81030002B41
:1045B00001F08C80002330AF13932593249316933E
:1045C00019930B932397149315933C464E460A9DDB
:1045D0002B78002B00F0A980252B02D1A5E0252BFC
:1045E00003D015F8013F002BF9D10A9BEB1A73B1E8
:1045F000249A25990A98206001321944072A636099
:104600002591249272DC08340B9A1A440B922B7871
:10461000002B00F0B5870023691C6D788DF86F3092
:104620001A460C9307934FF0FF3A4B1CA5F120015B
:10463000582900F2D983DFE811F07002D703D703BD
:104640007403D703D703D703D703D703D703F002E5
:104650000D02D703F4011102D7037B03BA02BA0299
:10466000BA02BA02BA02BA02BA02BA02BA02D7034C
:10467000D703D703D703D703D703D703D703D7036A
:10468000D703C9028B03D7038B03D703D703D70301
:10469000D7036D03D703D7030503D703D703D70386
:1046A000D703D7032303D703D7033D03D703D70388
:1046B000D703D703D703D703D703D703D703D7032A
:1046C00058032C028B038B038B03FE022C02D703AF
:1046D000D703E602D7037E02FB01C0037702D703AC
:1046E0009202D7037A00D703D7034A0208980793A8
:1046F000314623AA03F052F850B93C46079B83E7A2
:104700000898314623AA03F049F8002800F0858173
:10471000B146B9F80C3013F0400F0B9B18BF4FF0A7
:10472000FF33184641B0BDE8F08F0A9D6FE70A934A
:10473000079B980640F1AD820E9B03F1070929F013
:10474000070303F10802D3E900890E9201234FF019
:10475000000C8DF86FC0CDF844A0BAF1000F03DB58
:10476000079A22F08002079258EA090240F04C832F
:10477000BAF1000F00F05184012B00F04F83022B9F
:1047800000F0908439464FEAD80242EA49724FEA73
:10479000D90008F0070381469046303358EA0902F1
:1047A00001F8013DEFD1079A1091D20700F144853D
:1047B0007B1A0D930D9A92455346B8BF1346099341
:1047C00000231293BCF1000F02D0099B013309931F
:1047D000079B13F002030F9302D0099B0233099346
:1047E000079B13F0840940F00C830C9B099AC2EBE1
:1047F0000308B8F1000F40F30483B8F1100F2599B6
:10480000249ADFF844A529DD53464FF0100BC24629
:10481000A8461D4606E0AAF1100ABAF1100F04F1ED
:10482000080417DD01321031072A2591249284E80B
:104830002008F0DD0898314623AA02F0AFFF0028D7
:104840007FF466AFAAF1100ABAF1100F2599249AE5
:104850003C46E7DC2B464546D0469A46013208EBFB
:10486000010B072ACDF894B02492C4F800A0C4F834
:10487000048000F37B849DF86FC00834BCF1000F06
:104880000FD0249B01330BF1010B0DF16F010122BD
:10489000072BCDF894B0249384E8060000F3DA8364
:1048A00008340F9B73B1249B01330BF1020B1CA93D
:1048B0000222072BCDF894B0249384E8060000F37D
:1048C000D5830834B9F1800F00F01183119B0D9A44
:1048D000C2EB030ABAF1000F3CDDBAF1100F249AC3
:1048E000DFF868942BDD49465B46A9464FF0100877
:1048F000DDF820B00D4606E0AAF1100ABAF1100F5B
:1049000004F1080417DD01321033072A259324929D
:1049100084E82001F0DD5846314623AA02F03EFF2C
:1049200000287FF4F5AEAAF1100ABAF1100F259B0A
:10493000249A3C46E7DC9B462B464D46994601327D
:10494000D344072ACDF894B0249284E8000600F3FB
:1049500075830834079BD90500F16C82249B0D995F
:10496000109A226001338B44072BCDF894B061601C
:10497000249300F346830834079B5A0741D50C9BC8
:10498000099A9D1A002D3CDD102D249BDFF8B8A359
:1049900023DD4FF010085A46DDF8209004E0103D6A
:1049A000102D04F1080417DD01331032072B259276
:1049B0002493C4F800A0C4F80480F0DD48463146D2
:1049C00023AA02F0EBFE00287FF4A2AE103D102DCA
:1049D000259A249B3C46E7DC93460133AB44072BE6
:1049E000CDF894B02493C4F800A0656009DD089860
:1049F000314623AA02F0D2FE00287FF489AEDDF80A
:104A000094B00B9B099A0C998A42ACBF9B185B1817
:104A10000B93BBF1000F7FF473AE002324933C464D
:104A2000D5E5194607981D7840F004000790FCE58D
:104A30000A93079B13F0200300F00E810E9B03F1F5
:104A4000070929F0070303F10802D3E900890E9250
:104A500000237CE61D7819462B22E6E51D782A2DD9
:104A600003F1010100F0AD87A5F1300009280B46E4
:104A70004FF0000A3FF6DAAD13F8015B0AEB8A0A41
:104A800000EB4A0AA5F130000928F5D94AEAEA7A8A
:104A9000CCE50A93079B8DF86F209B0640F1A1801F
:104AA0000E9B03F1070929F00709D9E9002309F151
:104AB00008010E9190469946002A73F10003C0F256
:104AC0000B849DF86FC0CDF844A0012345E60A93FE
:104AD0009B4B1693079B8DF86F209B0640F1F3804C
:104AE0000E9B03F1070929F00703D3E9008903F1BD
:104AF00008020E92079BD90740F1F58058EA090396
:104B000000F0F180079A8DF87150302342F00202D4
:104B10008DF870300792022319E61D781946002A95
:104B20007FF483AD202280E5079941F020010791B1
:104B30001D78194679E50A93079B8DF86F209A0630
:104B400040F1A1840B990E9A4FEAE1791368084667
:104B50008846043249460E92C3E9000137E50E9AB1
:104B60000A93136810934FF0000B8DF86FB002F1A9
:104B70000409002B00F03B86BAF1000F1098C0F238
:104B8000E9855946524602F0C1F9002800F06C86CA
:104B9000109BCDF844B0C31A0D93CDF8389023EA9A
:104BA000E3730993CDF848B09DF86FC00AE6A5F10C
:104BB0003000002113F8015B01EB810100EB4101A2
:104BC000A5F130000928F5D90C912FE50A93079B30
:104BD0008DF86F2043F010030793079B9B063FF56A
:104BE0005FAF079BD80600F16883079B590640F129
:104BF00064830E99B1F9008004314FEAE8794246A6
:104C00004B460E9158E71D7807996C2D00F0CB8428
:104C100041F010010791194607E50E9D29680C9196
:104C200008460028294601F10401C0F2B5840E911E
:104C30001D781946F9E4079941F0400107911D7864
:104C40001946F2E40A93079B43F010030793079B6E
:104C500013F020037FF4F2AE079A12F0100240F036
:104C60001983079B13F0400300F014830E99134639
:104C70000A460432B1F800800E924FF0000966E552
:104C80000A93079B43F010030793079B98063FF591
:104C900053AD079BD90600F10683079B5A0640F1E6
:104CA00002830E9AB2F8008004324FF0000901230B
:104CB0000E924CE50A93234B1693079B8DF86F20B9
:104CC0009B063FF50DAF079BD80640F1CD830E9AAA
:104CD00013461B689846079B0432D9070E924FF083
:104CE00000093FF50BAF022331E50E990A930A68DC
:104CF0008DF898200023012204319C4609920E91E0
:104D00008DF86F3026ABCDF844C0CDF848C00D9279
:104D100010935DE5079941F0080107911D78194648
:104D200083E4079941F0010107911D7819467CE45D
:104D3000079941F0800107911D78194675E400BF7D
:104D400074350108603501089435010840350108C3
:104D50000A930E9B8DF86F2003F1070929F00703D2
:104D600003F108020E921A6814925B681593159964
:104D7000149802F0A7FC0128D3461498159940F026
:104D800059830022002303F0E9F9002840F06485EC
:104D90009DF86FC0079BBE4ADFF800E323F0800355
:104DA0000793134603210020472DD8BF734609916E
:104DB000119010930D91129004E50E9807990A93A3
:104DC000302203688DF870200246782541F00201F8
:104DD00004329846AF4B169307910E924FF000099C
:104DE0008DF871500223B2E40A938DF86F20002DE4
:104DF00000F0C683002301229C4609928DF898504A
:104E00007EE7DDF894B039E5012B7FF4B8ACB9F159
:104E1000000F08BFB8F10A0F80F01C820DF5807BEF
:104E200008F130080BF8418DCBEB07030D93CDF85B
:104E300040B0BFE4652D40F3A0801498159900227E
:104E4000002303F081F9002800F04581249B924A59
:104E5000226001330BF1010B0122072BCDF894B036
:104E60002493626000F3348308341D9B139A9342A9
:104E700003DB079BDA077FF57FAD249B1899179A10
:104E8000226001338B44072BCDF894B061602493EA
:104E900000F390830834139B5D1E002D7FF76CADEB
:104EA000102D249BDFF8F89140F3BA814FF01008E1
:104EB0005A46DDF820A004E00834103D102D40F3E0
:104EC000AE8101331032072B25922493C4F8009051
:104ED000C4F80480F0DD5046314623AA02F05EFC9F
:104EE00000287FF415AC259A249B3C46E5E70C9BF3
:104EF000099AC2EB030ABAF1000F7FF7E7ACBAF1E7
:104F0000100F249ADFF898912BDD49465B46A9469D
:104F10004FF01008DDF820B00D4606E0AAF1100AA7
:104F2000BAF1100F04F1080417DD01321033072A1B
:104F30002593249284E82001F0DD5846314623AAC7
:104F400002F02CFC00287FF4E3ABAAF1100ABAF1BE
:104F5000100F259B249A3C46E7DC9B462B464D468A
:104F600099460132D344072ACDF894B0249284E8BC
:104F7000000600F352820834A8E4139B249D012B01
:104F800040F32082109B236001350BF101030122C5
:104F9000072D25932495626000F326820834189922
:104FA0006160013503EB010B072D179BCDF894B021
:104FB0002495236000F32482083400231498159963
:104FC000002203F0C1F8139B002840F0DE80109A05
:104FD000013B013501329B44072D2495CDF894B057
:104FE0002260636000F30E810834199A6260013513
:104FF00093441FAB072DCDF894B0249523607FF721
:10500000BAAC0898314623AA02F0C8FB00287FF406
:105010007FABDDF894B03C46AEE4002B32D1079B69
:10502000D8072FD50DF5807B30230BF8413DCBEB16
:1050300007030D93CDF840B0FFF7BCBB089831468D
:1050400023AA02F0ABFB00287FF462ABDDF894B03A
:105050003C467FE40898314623AA02F09FFB0028D3
:105060007FF456ABDDF894B03C461AE4089831461C
:1050700023AA02F093FB00287FF44AABDDF894B03A
:105080003C461FE4CDF834A01097FFF793BB00BF58
:105090005435010874350108903501085035010870
:1050A000403501081698BB464FEA181308F00F0167
:1050B00043EA09734FEA191298469146435C0BF88C
:1050C000013D58EA0903EFD15B46CDF840B0FB1A29
:1050D0000D93FFF76FBB1D9D002D40F30582139AC2
:1050E00012998A421346A8BF0B461D461099002DFF
:1050F00001EB020A0BDD249B21600133AB44072B3B
:10510000CDF894B06560249300F34D830834129B6E
:10511000002DA8BF5B1B002B1D4640F3F580102D12
:10512000249BDFF8F49540F3C6815A464FF01008EF
:10513000DDF820B004E00834103D102D40F3BA81B2
:1051400001331032072B25922493C4F80090C4F841
:105150000480F0DD5846314623AA02F01FFB0028E8
:105160007FF4D6AA259A249B3C46E5E70898314669
:1051700023AA02F013FB00287FF4CAAA9DF86FC08F
:10518000DDF894B03C46FFF779BB03F1FF38B8F186
:10519000000F7FF72AAFB8F1100FDFF87C9525DDFF
:1051A0005B464FF0100ADDF820B006E0A8F11008C9
:1051B000B8F1100F04F1080417DD01351033072D85
:1051C0002593249584E80006F0DD5846314623AA4D
:1051D00002F0E4FA00287FF49BAAA8F11008B8F1C5
:1051E000100F259B249D3C46E7DC9B460135C344BC
:1051F000072DCDF894B02495C4F80090C4F804802D
:105200007FF7F2AE0898314623AA02F0C7FA0028C9
:105210007FF47EAADDF894B0249D3C46E5E69346F3
:105220000133AB44072BCDF894B02493C4F800901D
:1052300065607FF7A0ABE4E6302B109B3FF447AFEF
:10524000013B1A461093BA1A30230D9201F8013C23
:10525000FFF7B0BABB46CDF824C0404649460A2203
:10526000002302F0CBFF3032404649460BF8012DB7
:1052700000230A2202F0C2FF8046894658EA090349
:10528000EBD15B46FB1ADDF824C0CDF840B00D939E
:10529000FFF790BA0E990A6804310E9190464FF0CC
:1052A0000009FFF754BA0E990A68043101230E91E0
:1052B00090464FF00009FFF74ABA0E9A13689846D5
:1052C0004FEAE3791346043342460E93002A4B46D5
:1052D00073F10003BFF6F5AB4FF02D0CD8F10008C9
:1052E00069EB49098DF86FC0CDF844A00123FFF7A1
:1052F00034BA0898314623AA02F050FA00287FF405
:1053000007AADDF894B03C46109A12991D9B0A44F6
:105310009046139A934246DB079AD00743D4139AD8
:10532000C8EB0A05D31A9D42A8BF1D46002D0CDD0F
:10533000249AC4F800800132AB44072ACDF894B017
:105340006560249200F367820834002DACBF5D1BBA
:105350001D46002D7FF710AB102D249BDFF8B8936E
:105360007FF75EAF4FF010085A46DDF820A004E04A
:105370000834103D102D7FF752AF01331032072B48
:1053800025922493C4F80090C4F80480F0DD5046C0
:10539000314623AA02F002FA00287FF4B9A9259A1F
:1053A000249B3C46E5E7249A18981799216001321E
:1053B0008344072ACDF894B06060249200F30A82F7
:1053C0000834ACE7079BD9073FF5DCAD109B2360A1
:1053D00001350BF1010B0123072DCDF894B0249575
:1053E00063607FF701AE0DE70898314623AA02F00B
:1053F000D5F900287FF48CA9259B249D3C46CEE559
:105400000898314623AA02F0C9F900287FF480A940
:10541000DDF894B0249D3C46CFE50898314623AA98
:1054200002F0BCF900287FF473A9DDF894B03C4683
:10543000FFF74CBA02F046F9002840F0C7808646D4
:10544000B24AB34B119007989DF86FC0CDF848E071
:10545000032120F08000472DD8BF1A4609910790FC
:1054600010920D91FFF7AEB9079B0E9A13F0400F03
:1054700013463FF42EAC0433B2F800800E934FF085
:105480000009FFF737BB079BDB060BD4079B5D06C4
:1054900008D50E9A136804320E92BDF82C201A809B
:1054A000FFF795B80E9A136804320E920B9A1A60A1
:1054B000FFF78DB893460133AB44072BCDF894B07A
:1054C0002493C4F8009065603FF713AF08341BE7DE
:1054D0000898314623AA02F061F900287FF418A940
:1054E000DDF894B03C46C0E4249B8A4A2260013334
:1054F0000BF1010B0122072BCDF894B024936260CD
:1055000000F3F48008342DB9139B1BB9079BDB070C
:105510007FF532AA249B1898179A226001330BEB6F
:105520000001072B25916060249300F3F38104F1BF
:1055300008026D42002D40F3FC80102DDFF8D89159
:1055400040F33D811024DDF8208004E00832103D56
:10555000102D40F3348101331031072B2591249312
:10556000C2F800905460F1DD4046314623AA02F0B3
:1055700015F900287FF4CCA82599249B3A46E6E744
:10558000259BB146002B3FF4C4A80898314623AAB6
:1055900002F004F9FFF7BDB80C980E9140420C9050
:1055A0001946FFF73FBA41F0200107915D78591C79
:1055B000FFF73BB80898314623AA02F0EFF800281D
:1055C0007FF4A6A8DDF894B03C4664E425F02003FF
:1055D000BAF1FF3F0D9300F09680472B05D1BAF149
:1055E000000F14BFD3464FF0010B079B43F48073A9
:1055F0001193159BB3F1000A149B0993BBBF53464B
:1056000003F1004A00232D23662D0F9300F0AC8098
:10561000462D00F0A9800D9B099A452B0CBF0BF17C
:105620000109D94602201DA98DE8010202911EA898
:1056300021A9039053460491089800F085FA672D3C
:10564000109002D0472D40F09F80079BDB0740F170
:105650008981109B03EB0908099851460022002319
:1056600002F072FD002840F0FD80219B984506D98C
:1056700030215A1C21921970219B9845F9D8109A13
:105680009B1A13930D9B472B1D9B00F0DE80652D0D
:1056900040F3F880662D129300F05781139B129A05
:1056A000934200F34481079BD90700F1738122EAFA
:1056B000E2730D920F9A002A40F0BC800993119B6F
:1056C000079311929DF86FC0FFF77CB808984021AE
:1056D00001F08AF9C9F80000C9F81000002800F0AC
:1056E0008C814023C9F81430FEF764BF0898314616
:1056F00023AA02F053F800287FF40AA81D9DDDF8C4
:1057000094B03C46FFE64FF0060B6EE75C350108AF
:105710005835010890350108403501080898314690
:1057200023AA02F03BF800287EF4F2AF2599249BCF
:105730003A46139C5460013301EB040B072B10997C
:10574000CDF894B0249311603FF75BAC02F10804EC
:10575000FFF712B9CDF844B001F0F2FFCDF8389060
:105760000D900346FFF71BBA03201DA98DE8010821
:1057700002911EA821A90390099A04915346089802
:1057800000F0E2F9D9461090109B03EB09080D9B3D
:10579000462B7FF461AF109B1B78302B00F0E48028
:1057A0001D9B984458E70898314623AA01F0F6FF5C
:1057B00000287EF4ADAFDDF894B03C46A7E4013399
:1057C0002944072B25912493C2F800905560A5DC4D
:1057D0000832AEE70898314623AA01F0DFFF00281F
:1057E0007EF496AF1D9BDDF894B03C4697E553469A
:1057F000062B28BF06230D9323EAE373DDF840C090
:105800000993834BCDF83890CDF844C0CDF848C00B
:105810001093FEF7D7BF0898314623AA01F0BEFFC8
:1058200000287EF475AF1D9B139ADDF894B0D31A4F
:105830003C468AE50993119B07934FF02D0C0023FA
:105840008DF86FC01193FEF7C0BFDA1C19DB9B45C2
:1058500017DB1293672521E74FF02D0C8DF86FC0F1
:10586000FFF798BA43460AE72AEAEA731190CDF89F
:10587000389012909DF86FC00993CDF834A0FEF7D0
:10588000A1BF023D013B002B1D93BABF5B422D22FD
:105890002B22092B8DF87C508DF87D2072DD0DF1C7
:1058A0008B0E70465B4A82FB0321DA17C2EBA10222
:1058B00002EB8201A3EB410303F13001092A1346F5
:1058C00000F8011DEEDC02463033D9B202F8011DAA
:1058D000964540F299800DF17E02034601E013F8EF
:1058E000011B02F8011B7345F9D123AB1B1A0DF103
:1058F0007E0213441FAA9B1A139A1993012A134478
:105900000D936BDD0D9B002201330D93129223EA60
:10591000E373CFE60898314623AA01F03FFF002841
:105920007EF4F6AE1D9D2599249B3A4601E6129B16
:10593000002BD8BFC3F10208139BC8BF4FF001086A
:1059400043440D9323EAE373B4E6002B30DDBBF14F
:10595000000F25D1079BDB0722D4129A0D9222EA71
:10596000E273A7E6219B8AE60998514600220023AC
:1059700002F0EAFB00287FF413AFC9F101031D9385
:10598000984469E6303330228DF87F308DF87E20E0
:1059900020ABAFE7129B01330D9323EAE37389E653
:1059A000129B0BF1010843440D9323EAE37381E654
:1059B000BBF1000F1BD1079BD80718D401230D930F
:1059C00078E60E9DD5F800A028460430BAF1000F05
:1059D0005D780E90BEF629AEFEF725BE079B13F04C
:1059E00001038FD112930D9B23EAE37362E60BF15F
:1059F00002030D9323EAE3735CE6089A0C23136019
:105A00004FF0FF30FEF78EBE0DF17E0372E700BF50
:105A1000883501086766666602690B69934200F380
:105A20008F802DE9F04F03F1FF3801F1140700F1E9
:105A3000140B57F828205BF828304FEA880483B00D
:105A40000132B3FBF2F90BEB0403009407EB040AF9
:105A50000193B9F1000F3BD000263246BC46DE462A
:105A600034465CF8046BDEF80050B3B2360C03FB2E
:105A7000094406FB09F606EB1446A3B2D31AB4B2E6
:105A800013FA85F3C4EB154404EB23449BB243EAB9
:105A90000443E2454FEA24424EF8043B4FEA1644E1
:105AA000DFD2009B5BF8033093B9019C231F9B4519
:105AB0000CD254F8043C4BB9A4F1080302E01A6874
:105AC000043B1AB99B4508F1FF38F8D3C0F81080A1
:105AD000044601F00DFD00282EDB09F101095D46A9
